:020000040000FA
:06000000B2EF3DF012001A
:020006001200E6
:0600080072EF38F0120057
:02000E000100EF
:06001800D5EF37F01200E5
:02001E000400DC
:10002000E57C0000600000009C0000000E00000065
:10003000FC000000020000000E7C00000001000037
:10004000D70000009C7B00007A02000072000000D4
:10005000D9CFE6FFE1CFD9FFFE0EDB50A96EA69EF9
:10006000A69CA680A85000D0E552E7CFD9FF120089
:10007000D9CFE6FFE1CFD9FFFE0EDB50A96EFD0E12
:10008000DB50A86EA69EA69CA684F29E550EA76E77
:10009000AA0EA76EA682F28EA694E552E7CFD9FFEC
:1000A0001200C70EE66ED4DFE552FF0806E1E66AED
:1000B000C70EE66EDDDFE552E5520A0EE66E65EC30
:1000C0003DF0E552C80EE66EC3DFE552FF0806E1DB
:1000D000E66AC80EE66ECCDFE552E5520A0EE66E21
:1000E00065EC3DF0E552C90EE66EB2DFE552FF0861
:1000F00006E1E66AC90EE66EBBDFE552E5520A0E7E
:10010000E66E65EC3DF0E552CA0EE66EA1DFE55203
:10011000FF0807E1010EE66ECA0EE66EA9DFE552A2
:10012000E5520A0EE66E65EC3DF0E552CB0EE66E4A
:100130008FDFE552FF0807E1010EE66ECB0EE66E9B
:1001400097DFE552E5520A0EE66E65EC3DF0E552AA
:100150001200CB0EE66E7CDFE552010807E1E66A8D
:10016000CB0EE66E85DFE552E55207D0010EE66E56
:10017000CB0EE66E7DDFE552E552050EE66E65ECD0
:100180003DF0E5521200CA0EE66E62DFE55201084C
:1001900007E1E66ACA0EE66E6BDFE552E55207D06C
:1001A000010EE66ECA0EE66E63DFE552E552050EFD
:1001B000E66E65EC3DF0E5521200E66AC70EE66EAB
:1001C00057DFE552E552050EE66E65EC3DF0E5526F
:1001D000E66AC80EE66E4CDFE552E552050EE66EA5
:1001E00065EC3DF0E552E66AC90EE66E41DFE55288
:1001F000E552050EE66E65EC3DF0E552010EE66E49
:10020000CA0EE66E35DFE552E552050EE66E65EC88
:100210003DF0E552010EE66ECB0EE66E29DFE552AB
:10022000E552050EE66E65EC3DF0E55200D0120099
:100230009684070EC16E920EC06EC46AC36A120025
:10024000D9CFE6FFE1CFD9FF020EE126C30EC214DB
:100250001C09C26EC280C282C2B2FED7C450166EE2
:10026000176A16C017F0166AC35000011610146EF4
:1002700017C015F014C0DEFF15C0DDFFDECF14F08F
:10028000DDCF15F014C0F3FF15C0F4FF020EE15CE2
:1002900003E200D0E16AE552E16EE552E7CFD9FF13
:1002A0001200D9CFE6FFE1CFD9FFE652800EDF6E14
:1002B000FE0EDB06D950FE0FE96EFF0EDA20EA6E65
:1002C000DF50EFCFE7FFE75204E0E8427F0BE7069D
:1002D000FCE1DF6EDF500201C011C06FE552E55254
:1002E000E7CFD9FF1200D9CFE6FFE1CFD9FFE65221
:1002F000DF6AFE0EDBCFE6FF080EE552D880E7543A
:10030000C0C2E7FF070B04E0E742E79EE806FCE116
:10031000E750DF6E010EDF14DF6EDF5000D0E552D4
:10032000E552E7CFD9FF12000201C06B1200D9CF0E
:10033000E6FFE1CFD9FF000163050EE1FB0EDBCF45
:10034000C5F2FC0EDBCFC6F2FD0EDBCFC7F2FE0E10
:10035000DBCFC8F2000E02D0010E00D0E552E7CF8D
:10036000D9FF120080B004D0010EE66E9ADFE5528C
:1003700080B204D0020EE66E94DFE55280B404D061
:10038000030EE66E8EDFE55280B604D0040EE66EF4
:1003900088DFE55280B804D0050EE66E82DFE552B4
:1003A00080BA04D0060EE66E7CDFE5521200D9CF8B
:1003B000E6FFE1CFD9FFE652BEC1DFFF8D6ADFCF96
:1003C00014F0070EE76E1418E8AE02D0143403D010
:1003D000E750D880145412E2080EDF5E100EDF24BE
:1003E000E96EEA6AE9BEEA68BF0EE926010EEA2272
:1003F000EF50300B040DF3508B6E0DD0100EDF2438
:10040000E96EEA6AE9BEEA68BF0EE926010EEA2251
:10041000EF50C00B8B6E010EDF5206E0DFCFF3FF13
:10042000E846FE0BF306FCE18A6EBEC1E9FFEA6A0C
:10043000E9BEEA68BF0EE926010EEA22EF508C6E93
:100440000C6A0D6A0E6A0F6AC5C207F0C6C208F0D0
:10045000C7C209F0C8C20AF020EC3BF0010A01E172
:100460008B84070E0101E76EBE19E8AE02D0BE35DF
:1004700003D0E750D880BE5503E2010E8D6E02D046
:10048000020E8D6EBE2B100EBE5D01E1BE6BE552FD
:10049000E552E7CFD9FF1200D9CFE6FFE1CFD9FF70
:1004A000020EE126DF6A010EDB6AFE0EDB06FD0EA0
:1004B000DB06FE0EDB50080804E0FE0EDB500908E8
:1004C0003BE1FD0EDBCF14F0080EE76E1418E8AE2A
:1004D00002D0E73402D0E750145C21E3FD0EDBCFFD
:1004E00015F0100EE76E1518E8AE02D0E73402D012
:1004F000E750155C14E2080E146EFD0EDBCFE7FF2B
:100500001450E75EFD0EE7CFDBFF020E146EFE0E09
:10051000DBCFE7FF1450E726FE0EE7CFDBFF080E28
:10052000146EFE0EDBCFE7FF1450E75EFE0EE7CF42
:10053000DBFFDE52100EDD6EFE0EDBCFE6FF070E98
:10054000E552D880E754E76EFE0EE7CFDBFFDBCF46
:1005500014F0010EDBCFE6FFFD0EDB50E552E72481
:10056000E96EEA6AE9BEEA68BF0EE926010EEA22F0
:10057000EF5014C0E7FFE75204E0E8427F0BE706C4
:10058000FCE1DF6E010EDF14DF6EDF50146E020E31
:10059000E15C03E200D0E16AE552E16E1450E552FD
:1005A000E7CFD9FF1200D9CFE6FFE1CFD9FF020E86
:1005B000E126FE0EDBCF14F0000EE76E1418E8AE55
:1005C00002D0143403D0E750D880145401E3C6D0CD
:1005D000FE0EDBCF15F00B0EE76E1518E8AE02D05D
:1005E000E73402D0E750155C01E3B8D0FD0EDBCF55
:1005F00016F0000EE76E1618E8AE02D0163403D0DF
:10060000E750D880165401E3A9D0FD0EDBCF17F0D8
:10061000110EE76E1718E8AE02D0E73402D0E750AB
:10062000175C01E39BD0800EDF6E010EDB6AFE0ECD
:10063000DB06FD0EDB06FE0EDB50080804E0FE0EB6
:10064000DB50090826E1FD0EDBCF14F0080EE76E43
:100650001418E8AE02D0E73402D0E750145C0CE383
:10066000200EDF6E080E146EFD0EDBCFE7FF145078
:10067000E75EFD0EE7CFDBFF080E146EFE0EDBCF4C
:10068000E7FF1450E75EFE0EE7CFDBFFDE52100EF1
:10069000DD6EFC0EDB50010BE76EFC0EE7CFDBFFDF
:1006A000D950FE0FE96EFF0EDA20EA6EDF50EFCF71
:1006B000E7FFE75204E0E8427F0BE706FCE1DF6E6C
:1006C000FC0EDB0425E1010EDBCFE6FFFD0EDB5067
:1006D000E552E724E96EEA6AE9BEEA68BF0EE92658
:1006E000010EEA22EF50DF10E66E010EDBCFE6FFCF
:1006F000FD0EDB50E552E724E96EEA6AE9BEEA68DE
:10070000BF0EE926010EEA22E552E750EF6E26D031
:10071000DF1C146E010EDBCFE6FFFD0EDB50E55251
:10072000E724E96EEA6AE9BEEA68BF0EE926010E2F
:10073000EA22EF501414E66E010EDBCFE6FFFD0E49
:10074000DB50E552E724E96EEA6AE9BEEA68BF0ECB
:10075000E926010EEA22E552E750EF6E020EE15C57
:1007600002E2E16AE552E16EE552E7CFD9FF1200FD
:10077000D9CFE6FFE1CFD9FF020EE126010EDF6EF1
:10078000DFCF14F0110EE76E1418E8AE02D0E73494
:1007900002D0E750145C1EE2DE52010EDD6EDBCFAC
:1007A00014F00B0EE76E1418E8AE02D0E73402D056
:1007B000E750145C0DE2E66ADFCFE6FF010EDBCF07
:1007C000E6FFF1DEE552E552E552010EDB2AE7D7FE
:1007D000DF2AD6D7020EE15C02E2E16AE552E16E61
:1007E000E552E7CFD9FF1200D9CFE6FFE1CFD9FF1D
:1007F000E652DF6ADF6ADFCF14F0050EE76E1418E9
:10080000E8AE02D0E73402D0E750145C01E343D1F4
:10081000070ED880DF54146EFB0EDBCFE9FFFC0E11
:10082000DBCFEAFFEF5014C0E7FFE75204E0E842F5
:100830007F0BE706FCE1010B010820E1070ED880E1
:10084000DF54146EFB0EDBCFE9FFFC0EDBCFEAFFBB
:10085000EF5014C0E7FFE75204E0E8427F0BE706E1
:10086000FCE1010BE66EFD0EDBCFE6FFFE0EDB507A
:10087000DF24E66E98DEE552E552E552070ED88099
:10088000DF54146E010EE76EFB0EDBCFE9FFFC0EAA
:10089000DBCFEAFFE750E926000EEA22EF5014C052
:1008A000E7FFE75204E0E8427F0BE706FCE1010BBB
:1008B000010826E1070ED880DF54146E010EE76EA2
:1008C000FB0EDBCFE9FFFC0EDBCFEAFFE750E926AA
:1008D000000EEA22EF5014C0E7FFE75204E0E842BE
:1008E0007F0BE706FCE1010BE66EFD0EDB28E66EF2
:1008F000FE0EDB50DF24E66E56DEE552E552E55291
:10090000070ED880DF54146E020EE76EFB0EDBCFAD
:10091000E9FFFC0EDBCFEAFFE750E926000EEA22F2
:10092000EF5014C0E7FFE75204E0E8427F0BE70610
:10093000FCE1010B010827E1070ED880DF54146E9B
:10094000020EE76EFB0EDBCFE9FFFC0EDBCFEAFF0A
:10095000E750E926000EEA22EF5014C0E7FFE75205
:1009600004E0E8427F0BE706FCE1010BE66EFD0EBA
:10097000DB50020FE66EFE0EDB50DF24E66E13DE68
:10098000E552E552E552070ED880DF54146E030E8F
:10099000E76EFB0EDBCFE9FFFC0EDBCFEAFFE75093
:1009A000E926000EEA22EF5014C0E7FFE75204E008
:1009B000E8427F0BE706FCE1010B010827E1070E87
:1009C000D880DF54146E030EE76EFB0EDBCFE9FF19
:1009D000FC0EDBCFEAFFE750E926000EEA22EF50DB
:1009E00014C0E7FFE75204E0E8427F0BE706FCE1B2
:1009F000010BE66EFD0EDB50030FE66EFE0EDB50C4
:100A0000DF24E66ED0DDE552E552E552070ED880D0
:100A1000DF54146E040EE76EFB0EDBCFE9FFFC0E15
:100A2000DBCFEAFFE750E926000EEA22EF5014C0C0
:100A3000E7FFE75204E0E8427F0BE706FCE1010B29
:100A4000010827E1070ED880DF54146E040EE76E0C
:100A5000FB0EDBCFE9FFFC0EDBCFEAFFE750E92618
:100A6000000EEA22EF5014C0E7FFE75204E0E8422C
:100A70007F0BE706FCE1010BE66EFD0EDB50040F79
:100A8000E66EFE0EDB50DF24E66E8DDDE552E552AC
:100A9000E552DF2AB0D6E552E552E7CFD9FF120082
:100AA000D9CFE6FFE1CFD9FFE652DF6ADF6ADFCFB9
:100AB00014F0050EE76E1418E8AE02D0E73402D049
:100AC000E750145C01E3C7D0070ED880DF54146EE2
:100AD000FB0EDBCFE9FFFC0EDBCFEAFFEF5014C0CB
:100AE000E7FFE75204E0E8427F0BE706FCE1010B79
:100AF00001080CE1E66AFD0EDBCFE6FFFE0EDB50DF
:100B0000DF24E66E50DDE552E552E552070ED8804F
:100B1000DF54146E010EE76EFB0EDBCFE9FFFC0E17
:100B2000DBCFEAFFE750E926000EEA22EF5014C0BF
:100B3000E7FFE75204E0E8427F0BE706FCE1010B28
:100B400001080CE1E66AFD0EDB28E66EFE0EDB50C6
:100B5000DF24E66E28DDE552E552E552070ED88027
:100B6000DF54146E020EE76EFB0EDBCFE9FFFC0EC6
:100B7000DBCFEAFFE750E926000EEA22EF5014C06F
:100B8000E7FFE75204E0E8427F0BE706FCE1010BD8
:100B900001080DE1E66AFD0EDB50020FE66EFE0E67
:100BA000DB50DF24E66EFFDCE552E552E552070E2E
:100BB000D880DF54146E030EE76EFB0EDBCFE9FF27
:100BC000FC0EDBCFEAFFE750E926000EEA22EF50E9
:100BD00014C0E7FFE75204E0E8427F0BE706FCE1C0
:100BE000010B01080DE1E66AFD0EDB50030FE66E16
:100BF000FE0EDB50DF24E66ED6DCE552E552E55210
:100C0000070ED880DF54146E040EE76EFB0EDBCFA8
:100C1000E9FFFC0EDBCFEAFFE750E926000EEA22EF
:100C2000EF5014C0E7FFE75204E0E8427F0BE7060D
:100C3000FCE1010B01080DE1E66AFD0EDB50040F3B
:100C4000E66EFE0EDB50DF24E66EADDCE552E552CB
:100C5000E552DF2A2CD7E552E552E7CFD9FF120043
:100C6000D59CD59AD598D596D594D592D590FE0E8B
:100C7000D76E700ED66ED08EF28CF28EF28AF19410
:100C8000F294D58E1200D9CFE6FFE1CFD9FF040E42
:100C9000E1260F0EC16E9268936A010E946E956AFA
:100CA000966ADEDF0001640501E078D2010EF36E82
:100CB000020EF3CFDBFFDBCF14F0110EE76E14183A
:100CC000E8AE02D0E73402D0E750145C26E2DE52F0
:100CD000010EDD6EDBCF14F00B0EE76E1418E8AEDC
:100CE00002D0E73402D0E750145C14E2010EE66E45
:100CF000020EDBCFE6FF010EDBCFE6FF54DCE55250
:100D0000E552E5521E0EE66E92EC3DF0E552010E04
:100D1000DB2AE0D7020EDB2ACED7010EF36E020EDD
:100D2000F3CFDBFFDBCF14F0110EE76E1418E8AE43
:100D300002D0E73402D0E750145C25E2DE52010E07
:100D4000DD6EDBCF14F00B0EE76E1418E8AE02D0A8
:100D5000E73402D0E750145C13E2E66A020EDBCF00
:100D6000E6FF010EDBCFE6FF1EDCE552E552E55261
:100D70001E0EE66E92EC3DF0E552010EDB2AE1D745
:100D8000020EDB2ACFD7030EDB6ADBCF14F0460E50
:100D9000E76E1418E8AE02D0E73402D0E750145CD6
:100DA00001E3FCD1A70EE66E000EE66E040EE66EC1
:100DB000030EDBCFE6FF0B0EE552D880E754E66E5C
:100DC0006FDEE552E552E552E552A70EE66E000EE3
:100DD000E66E040EE66E030EDBCFE6FF0A0EE5526A
:100DE000D880E754E66E00DDE552E552E552E55263
:100DF0006B0EE66E000EE66E040EE66E030EDBCFA3
:100E0000E6FF100EE552D880E754E66E49DEE55263
:100E1000E552E552E5526B0EE66E000EE66E040EEC
:100E2000E66E030EDBCFE6FF0F0EE552D880E754E7
:100E3000E66EDADCE552E552E552E5529D0EE66ECD
:100E4000000EE66E040EE66E030EDBCFE6FF150E17
:100E5000E552D880E754E66E23DEE552E552E552CE
:100E6000E5529D0EE66E000EE66E040EE66E030E73
:100E7000DBCFE6FF140EE552D880E754E66EB4DC13
:100E8000E552E552E552E552980EE66E000EE66E2A
:100E9000040EE66E030EDBCFE6FF1A0EE552D88095
:100EA000E754E66EFDDDE552E552E552E552980E57
:100EB000E66E000EE66E040EE66E030EDBCFE6FF76
:100EC000190EE552D880E754E66E8EDCE552E55205
:100ED000E552E552AC0EE66E000EE66E040EE66ECE
:100EE000030EDBCFE6FF1F0EE552D880E754E66E17
:100EF000D7DDE552E552E552E552AC0EE66E000E46
:100F0000E66E040EE66E030EDBCFE6FF1E0EE55224
:100F1000D880E754E66E68DCE552E552E552E552CA
:100F20008E0EE66E000EE66E040EE66E030EDBCF4E
:100F3000E6FF240EE552D880E754E66EB1DDE552B7
:100F4000E552E552E5528E0EE66E000EE66E040E98
:100F5000E66E030EDBCFE6FF230EE552D880E754A2
:100F6000E66E42DCE552E552E552E5527F0EE66E52
:100F7000000EE66E090EE66E030EDBCFE6FF240ED2
:100F8000E552D880E754E66E8BDDE552E552E55236
:100F9000E5527F0EE66E000EE66E090EE66E030E5B
:100FA000DBCFE6FF230EE552D880E754E66E1CDC6B
:100FB000E552E552E552E552840EE66E000EE66E0D
:100FC000090EE66E030EDBCFE6FF290EE552D88050
:100FD000E754E66E65DDE552E552E552E552840ED2
:100FE000E66E000EE66E090EE66E030EDBCFE6FF40
:100FF000280EE552D880E754E66EF4EC03F0E55293
:10100000E552E552E552D90EE66E000EE66E090E87
:10101000E66E030EDBCFE6FF2E0EE552D880E754D6
:10102000E66E3EDDE552E552E552E552D90EE66E3A
:10103000000EE66E090EE66E030EDBCFE6FF2D0E08
:10104000E552D880E754E66EF4EC03F0E552E55241
:10105000E552E552980EE66E000EE66E090EE66E5B
:10106000030EDBCFE6FF330EE552D880E754E66E81
:1010700017DDE552E552E552E552980EE66E000E98
:10108000E66E090EE66E030EDBCFE6FF320EE5528A
:10109000D880E754E66EF4EC03F0E552E552E552F1
:1010A000E5527A0EE66E000EE66E090EE66E030E4F
:1010B000DBCFE6FF380EE552D880E754E66EF0DC71
:1010C000E552E552E552E5527A0EE66E000EE66E06
:1010D000090EE66E030EDBCFE6FF370EE552D88031
:1010E000E754E66EF4EC03F0E552E552E552E552C2
:1010F000840EE66E000EE66E090EE66E030EDBCF82
:10110000E6FF3D0EE552D880E754E66EC9DCE552B5
:10111000E552E552E552840EE66E000EE66E090ECB
:10112000E66E030EDBCFE6FF3C0EE552D880E754B7
:10113000E66EF4EC03F0E552E552E552E552C50ED9
:10114000E66E000EE66E090EE66E030EDBCFE6FFDE
:10115000420EE552D880E754E66EA2DCE552E55235
:10116000E552E552C50EE66E000EE66E090EE66E1D
:10117000030EDBCFE6FF410EE552D880E754E66E62
:10118000F4EC03F0E552E552E552E5520A0EE66E44
:1011900065EC3DF0E552030EDB2AF7D5040EE15C69
:1011A00002E2E16AE552E16EE552E7CFD9FF1200B3
:1011B00094EC01F0B2EC01F0040EE66E73EC01F079
:1011C000E552000916E1030EE66E73EC01F0E552FC
:1011D00000090FE1050EE66E73EC01F0E55200091F
:1011E00008E1060EE66E73EC01F0E552000901E13C
:1011F00001D0DED71200DCDFB8EC03F0E30EE66EC0
:10120000000EE66E0A0EE66E090EE66EF4EC03F0D2
:10121000E552E552E552E552E80EE66E000EE66E46
:101220000A0EE66E010EE66EF4EC03F0E552E552AE
:10123000E552E5521200D9CFE6FFE1CFD9FF030E08
:10124000E126DF6A010EDB6A020EDB6AE30EE66E60
:10125000000EE66E0A0EE66E090EE66EF4EC03F082
:10126000E552E552E552E552E80EE66E000EE66EF6
:101270000A0EE66E010EE66EF4EC03F0E552E5525E
:10128000E552E552DF5002E0BEEF20F0020EDB50E7
:1012900001E052D2DE52040EDD6E010EDBCF14F0FF
:1012A000150EE76E1418E8AE02D0E73402D0E7500E
:1012B000145C01E315D1C50EE66E000EE66E040E59
:1012C000E66E010EDBCFE6FF060EE552D880E7544E
:1012D000E66E50EC05F0E552E552E552E552C50EDA
:1012E000E66E000EE66E040EE66E010EDBCFE6FF44
:1012F000050EE552D880E754E66EF4EC03F0E552B3
:10130000E552E552E552AC0EE66E000EE66E040EB6
:10131000E66E010EDBCFE6FF0B0EE552D880E754F8
:10132000E66E50EC05F0E552E552E552E552AC0EA2
:10133000E66E000EE66E040EE66E010EDBCFE6FFF3
:101340000A0EE552D880E754E66EF4EC03F0E5525D
:10135000E552E552E5526B0EE66E000EE66E040EA7
:10136000E66E010EDBCFE6FF110EE552D880E754A2
:10137000E66E50EC05F0E552E552E552E5526B0E93
:10138000E66E000EE66E040EE66E010EDBCFE6FFA3
:10139000100EE552D880E754E66EF4EC03F0E55207
:1013A000E552E552E5529D0EE66E000EE66E040E25
:1013B000E66E010EDBCFE6FF160EE552D880E7544D
:1013C000E66E50EC05F0E552E552E552E5529D0E11
:1013D000E66E000EE66E040EE66E010EDBCFE6FF53
:1013E000150EE552D880E754E66EF4EC03F0E552B2
:1013F000E552E552E552840EE66E000EE66E040EEE
:10140000E66E010EDBCFE6FF1B0EE552D880E754F7
:10141000E66E50EC05F0E552E552E552E552840ED9
:10142000E66E000EE66E040EE66E010EDBCFE6FF02
:101430001A0EE552D880E754E66EF4EC03F0E5525C
:10144000E552E552E552C9C2E6FF65EC3DF0E552D2
:10145000060EE66E73EC01F0E552010816E1E66A4D
:10146000E66AFA0EE66E430EE66E97EC01F0E55280
:10147000E552E552E552B8EC03F0010EDF6E0A0EBC
:10148000F36E020EF3CFDBFF2BD0040EE66E73EC8F
:1014900001F0E552010807E0030EE66E73EC01F07F
:1014A000E55201081AE1040EE66E73EC01F0E55214
:1014B000010805E1010EF36E020EF3CFDBFF030E10
:1014C000E66E73EC01F0E552010805E1030EF36EE0
:1014D000020EF3CFDBFF8FDE03D0010EDB2ADDD659
:1014E000020EDB5001E027D1DE52140EDD6E010E3C
:1014F000DBCF14F0030EE76E1418E8AE02D01434FC
:1015000003D0E750D880145401E315D1C50EE66E20
:10151000000EE66E040EE66E010EDBCFE6FF050E52
:10152000E552D880E754E66E50EC05F0E552E552FE
:10153000E552E552AC0EE66E000EE66E040EE66E67
:10154000010EDBCFE6FF0A0EE552D880E754E66EC7
:1015500050EC05F0E552E552E552E552C50EE66E57
:10156000000EE66E040EE66E010EDBCFE6FF060E01
:10157000E552D880E754E66EF4EC03F0E552E5520C
:10158000E552E5526B0EE66E000EE66E040EE66E58
:10159000010EDBCFE6FF100EE552D880E754E66E71
:1015A00050EC05F0E552E552E552E552AC0EE66E20
:1015B000000EE66E040EE66E010EDBCFE6FF0B0EAC
:1015C000E552D880E754E66EF4EC03F0E552E552BC
:1015D000E552E5529D0EE66E000EE66E040EE66ED6
:1015E000010EDBCFE6FF150EE552D880E754E66E1C
:1015F00050EC05F0E552E552E552E5526B0EE66E11
:10160000000EE66E040EE66E010EDBCFE6FF110E55
:10161000E552D880E754E66EF4EC03F0E552E5526B
:10162000E552E552840EE66E000EE66E040EE66E9E
:10163000010EDBCFE6FF1A0EE552D880E754E66EC6
:1016400050EC05F0E552E552E552E5529D0EE66E8E
:10165000000EE66E040EE66E010EDBCFE6FF160E00
:10166000E552D880E754E66EF4EC03F0E552E5521B
:10167000E552E552840EE66E000EE66E040EE66E4E
:10168000010EDBCFE6FF1B0EE552D880E754E66E75
:10169000F4EC03F0E552E552E552E552C9C2E6FF2B
:1016A00065EC3DF0E552060EE66E73EC01F0E55296
:1016B000010816E1B8EC03F0E66AE66AFA0EE66E97
:1016C000430EE66E97EC01F0E552E552E552E55225
:1016D000010EDF6E0A0EF36E020EF3CFDBFF2BD08E
:1016E000040EE66E73EC01F0E552010807E0030E0C
:1016F000E66E73EC01F0E55201081AE1040EE66EA5
:1017000073EC01F0E552010805E1010EF36E020EE3
:10171000F3CFDBFF030EE66E73EC01F0E552010838
:1017200005E1030EF36E020EF3CFDBFF64DD03D0A1
:10173000010EDB06DCD6AAD5020EDB0401E09FD247
:10174000DE52040EDD6E010EDBCF14F0160EE76ED6
:101750001418E8AE02D0E73402D0E750145C01E37D
:101760003BD1CF0EE66E000EE66E040EE66E010E65
:10177000DBCFE6FF060EE552D880E754E66E50EC6C
:1017800005F0E552E552E552E552CF0EE66E000E49
:10179000E66E040EE66E010EDBCFE6FF050EE552A7
:1017A000D880E754E66EF4EC03F0E552E552E552DA
:1017B000E552840EE66E000EE66E040EE66E010E35
:1017C000DBCFE6FF0B0EE552D880E754E66E50EC17
:1017D00005F0E552E552E552E552840EE66E000E44
:1017E000E66E040EE66E010EDBCFE6FF0A0EE55252
:1017F000D880E754E66EF4EC03F0E552E552E5528A
:10180000E552CF0EE66E000EE66E040EE66E010E99
:10181000DBCFE6FF0F0EE552D880E754E66E50ECC2
:1018200005F0E552E552E552E552CF0EE66E000EA8
:10183000E66E040EE66E010EDBCFE6FF0E0EE552FD
:10184000D880E754E66EF4EC03F0E552E552E55239
:10185000E552C00EE66E000EE66E040EE66E010E58
:10186000DBCFE6FF140EE552D880E754E66E50EC6D
:1018700005F0E552E552E552E552C00EE66E000E67
:10188000E66E040EE66E010EDBCFE6FF130EE552A8
:10189000D880E754E66EF4EC03F0E552E552E552E9
:1018A000E552980EE66E000EE66E040EE66E010E30
:1018B000DBCFE6FF170EE552D880E754E66E50EC1A
:1018C00005F0E552E552E552E552980EE66E000E3F
:1018D000E66E040EE66E010EDBCFE6FF160EE55255
:1018E000D880E754E66EF4EC03F0E552E552E55299
:1018F000E552C50EE66E000EE66E040EE66E010EB3
:10190000DBCFE6FF1C0EE552D880E754E66E50ECC4
:1019100005F0E552E552E552E552C50EE66E000EC1
:10192000E66E040EE66E010EDBCFE6FF1B0EE552FF
:10193000D880E754E66EF4EC03F0E552E552E55248
:10194000E552C9C2E6FF65EC3DF0E552060EE66ED3
:1019500073EC01F0E552010816E1B8EC03F0E66A19
:10196000E66AFA0EE66E430EE66E97EC01F0E5527B
:10197000E552E552E552010EDF6E0B0EF36E020EDC
:10198000F3CFDBFF29D0040EE66E73EC01F0E552D5
:10199000010807E0030EE66E73EC01F0E552010862
:1019A00018E1040EE66E73EC01F0E552010804E163
:1019B000020EF36EF3CFDBFF030EE66E73EC01F065
:1019C000E552010802E1020EDB6AD8EC08F013DCF4
:1019D00003D0010EDB2AB7D6020EDB0401E04ED1A4
:1019E000DE52150EDD6E010EDBCF14F0030EE76E36
:1019F0001418E8AE02D0143403D0E750D880145441
:101A000001E33CD1CF0EE66E000EE66E040EE66EEC
:101A1000010EDBCFE6FF050EE552D880E754E66EF7
:101A200050EC05F0E552E552E552E552840EE66EC3
:101A3000000EE66E040EE66E010EDBCFE6FF0A0E28
:101A4000E552D880E754E66E50EC05F0E552E552D9
:101A5000E552E552CF0EE66E000EE66E040EE66E1F
:101A6000010EDBCFE6FF060EE552D880E754E66EA6
:101A7000F4EC03F0E552E552E552E552CF0EE66E86
:101A8000000EE66E040EE66E010EDBCFE6FF0E0ED4
:101A9000E552D880E754E66E50EC05F0E552E55289
:101AA000E552E552840EE66E000EE66E040EE66E1A
:101AB000010EDBCFE6FF0B0EE552D880E754E66E51
:101AC000F4EC03F0E552E552E552E552C00EE66E45
:101AD000000EE66E040EE66E010EDBCFE6FF130E7F
:101AE000E552D880E754E66E50EC05F0E552E55239
:101AF000E552E552CF0EE66E000EE66E040EE66E7F
:101B0000010EDBCFE6FF0F0EE552D880E754E66EFC
:101B1000F4EC03F0E552E552E552E552980EE66E1C
:101B2000000EE66E040EE66E010EDBCFE6FF160E2B
:101B3000E552D880E754E66E50EC05F0E552E552E8
:101B4000E552E552C00EE66E000EE66E040EE66E3D
:101B5000010EDBCFE6FF140EE552D880E754E66EA7
:101B6000F4EC03F0E552E552E552E552980EE66ECC
:101B7000000EE66E040EE66E010EDBCFE6FF170EDA
:101B8000E552D880E754E66EF4EC03F0E552E552F6
:101B9000E552E552C50EE66E000EE66E040EE66EE8
:101BA000010EDBCFE6FF1B0EE552D880E754E66E50
:101BB00050EC05F0E552E552E552E552C50EE66EF1
:101BC000000EE66E040EE66E010EDBCFE6FF1C0E85
:101BD000E552D880E754E66EF4EC03F0E552E552A6
:101BE000E552E552C9C2E6FF65EC3DF0E552060E4E
:101BF000E66E73EC01F0E552010816E1B8EC03F073
:101C0000E66AE66AFA0EE66E430EE66E97EC01F0BF
:101C1000E552E552E552E552010EDF6E0B0EF36E12
:101C2000020EF3CFDBFF2AD0040EE66E73EC01F058
:101C3000E552010807E0030EE66E73EC01F0E55291
:101C4000010819E1040EE66E73EC01F0E55201089B
:101C500004E1020EF36EF3CFDBFF030EE66E73ECCE
:101C600001F0E552010802E1020EDB6AD8EC08F04F
:101C7000FBEC08F003D0010EDB06B5D65DD5020EF5
:101C8000DB50020801E049D3DE52040EDD6E010E86
:101C9000DBCF14F0230EE76E1418E8AE02D0E73461
:101CA00002D0E750145C01E390D16B0EE66E000E9B
:101CB000E66E040EE66E010EDBCFE6FF060EE55281
:101CC000D880E754E66E50EC05F0E552E552E55257
:101CD000E5526B0EE66E000EE66E040EE66E010E29
:101CE000DBCFE6FF050EE552D880E754E66EF4EC54
:101CF00003F0E552E552E552E552C00EE66E000EE5
:101D0000E66E040EE66E010EDBCFE6FF0B0EE5522B
:101D1000D880E754E66E50EC05F0E552E552E55206
:101D2000E552C00EE66E000EE66E040EE66E010E83
:101D3000DBCFE6FF0A0EE552D880E754E66EF4ECFE
:101D400003F0E552E552E552E5529D0EE66E000EB7
:101D5000E66E040EE66E010EDBCFE6FF0F0EE552D7
:101D6000D880E754E66E50EC05F0E552E552E552B6
:101D7000E5529D0EE66E000EE66E040EE66E010E56
:101D8000DBCFE6FF0E0EE552D880E754E66EF4ECAA
:101D900003F0E552E552E552E5526B0EE66E000E99
:101DA000E66E040EE66E010EDBCFE6FF140EE55282
:101DB000D880E754E66E50EC05F0E552E552E55266
:101DC000E5526B0EE66E000EE66E040EE66E010E38
:101DD000DBCFE6FF130EE552D880E754E66EF4EC55
:101DE00003F0E552E552E552E552AC0EE66E000E08
:101DF000E66E040EE66E010EDBCFE6FF190EE5522D
:101E0000D880E754E66E50EC05F0E552E552E55215
:101E1000E552AC0EE66E000EE66E040EE66E010EA6
:101E2000DBCFE6FF180EE552D880E754E66EF4ECFF
:101E300003F0E552E552E552E552B10EE66E000EB2
:101E4000E66E040EE66E010EDBCFE6FF1F0EE552D6
:101E5000D880E754E66E50EC05F0E552E552E552C5
:101E6000E552B10EE66E000EE66E040EE66E010E51
:101E7000DBCFE6FF1E0EE552D880E754E66EF4ECA9
:101E800003F0E552E552E552E552980EE66E000E7B
:101E9000E66E040EE66E010EDBCFE6FF230EE55282
:101EA000D880E754E66E50EC05F0E552E552E55275
:101EB000E552980EE66E000EE66E040EE66E010E1A
:101EC000DBCFE6FF220EE552D880E754E66EF4EC55
:101ED00003F0E552E552E552E5527F0EE66E000E44
:101EE000E66E040EE66E010EDBCFE6FF280EE5522D
:101EF000D880E754E66E50EC05F0E552E552E55225
:101F0000E5527F0EE66E000EE66E040EE66E010EE2
:101F1000DBCFE6FF270EE552D880E754E66EF4ECFF
:101F200003F0E552E552E552E552C9C2E6FF65EC21
:101F30003DF0E552060EE66E73EC01F0E552010845
:101F400016E1B8EC03F0E66AE66AFA0EE66E430EB6
:101F5000E66E97EC01F0E552E552E552E552010ECE
:101F6000DF6E0C0EF36E020EF3CFDBFF2ED0040EED
:101F7000E66E73EC01F0E552010807E0030EE66E31
:101F800073EC01F0E55201081DE1040EE66E73ECFE
:101F900001F0E552010805E1030EF36E020EF3CFE6
:101FA000DBFF030EE66E73EC01F0E552010805E17C
:101FB000010EF36E020EF3CFDBFFD8EC08F0FBEC62
:101FC00008F003D0010EDB2A62D6020EDB500208B5
:101FD00001E0A2D1DE52220EDD6E010EDBCF14F045
:101FE000030EE76E1418E8AE02D0143403D0E750A5
:101FF000D880145401E390D16B0EE66E000EE66EAD
:10200000040EE66E010EDBCFE6FF050EE552D8802A
:10201000E754E66E50EC05F0E552E552E552E55224
:10202000C00EE66E000EE66E040EE66E010EDBCF0D
:10203000E6FF0A0EE552D880E754E66E50EC05F054
:10204000E552E552E552E5526B0EE66E000EE66E85
:10205000040EE66E010EDBCFE6FF060EE552D880D9
:10206000E754E66EF4EC03F0E552E552E552E55232
:102070009D0EE66E000EE66E040EE66E010EDBCFE0
:10208000E6FF0E0EE552D880E754E66E50EC05F000
:10209000E552E552E552E552C00EE66E000EE66EE0
:1020A000040EE66E010EDBCFE6FF0B0EE552D88084
:1020B000E754E66EF4EC03F0E552E552E552E552E2
:1020C0006B0EE66E000EE66E040EE66E010EDBCFC2
:1020D000E6FF130EE552D880E754E66E50EC05F0AB
:1020E000E552E552E552E5529D0EE66E000EE66EB3
:1020F000040EE66E010EDBCFE6FF0F0EE552D88030
:10210000E754E66EF4EC03F0E552E552E552E55291
:10211000AC0EE66E000EE66E040EE66E010EDBCF30
:10212000E6FF180EE552D880E754E66E50EC05F055
:10213000E552E552E552E5526B0EE66E000EE66E94
:10214000040EE66E010EDBCFE6FF140EE552D880DA
:10215000E754E66EF4EC03F0E552E552E552E55241
:10216000AC0EE66E000EE66E040EE66E010EDBCFE0
:10217000E6FF190EE552D880E754E66EF4EC03F062
:10218000E552E552E552E552B10EE66E000EE66EFE
:10219000040EE66E010EDBCFE6FF1E0EE552D88080
:1021A000E754E66E50EC05F0E552E552E552E55293
:1021B000B10EE66E000EE66E040EE66E010EDBCF8B
:1021C000E6FF1F0EE552D880E754E66EF4EC03F00C
:1021D000E552E552E552E552980EE66E000EE66EC7
:1021E000040EE66E010EDBCFE6FF220EE552D8802C
:1021F000E754E66E50EC05F0E552E552E552E55243
:10220000980EE66E000EE66E040EE66E010EDBCF53
:10221000E6FF230EE552D880E754E66EF4EC03F0B7
:10222000E552E552E552E5527F0EE66E000EE66E8F
:10223000040EE66E010EDBCFE6FF270EE552D880D6
:10224000E754E66E50EC05F0E552E552E552E552F2
:102250007F0EE66E000EE66E040EE66E010EDBCF1C
:10226000E6FF280EE552D880E754E66EF4EC03F062
:10227000E552E552E552E552C9C2E6FF65EC3DF094
:10228000E552060EE66E73EC01F0E552010816E128
:10229000B8EC03F0E66AE66AFA0EE66E430EE66E06
:1022A00097EC01F0E552E552E552E552010EDF6E82
:1022B0000C0EF36E020EF3CFDBFF2ED0040EE66E93
:1022C00073EC01F0E552010807E0030EE66E73ECD3
:1022D00001F0E55201081DE1040EE66E73EC01F019
:1022E000E552010805E1030EF36E020EF3CFDBFFAA
:1022F000030EE66E73EC01F0E552010805E1010EF4
:10230000F36E020EF3CFDBFFD8EC08F0FBEC08F025
:1023100003D0010EDB0661D6B2D4020EDB500308F7
:1023200001E025D3DE52040EDD6E010EDBCF14F08A
:10233000230EE76E1418E8AE02D0E73402D0E7505F
:10234000145C01E37ED1C50EE66E000EE66E040E4F
:10235000E66E010EDBCFE6FF060EE552D880E754AD
:10236000E66E50EC05F0E552E552E552E552C50E39
:10237000E66E000EE66E040EE66E010EDBCFE6FFA3
:10238000050EE552D880E754E66EF4EC03F0E55212
:10239000E552E552E552840EE66E000EE66E040E3E
:1023A000E66E010EDBCFE6FF0B0EE552D880E75458
:1023B000E66E50EC05F0E552E552E552E552840E2A
:1023C000E66E000EE66E040EE66E010EDBCFE6FF53
:1023D0000A0EE552D880E754E66EF4EC03F0E552BD
:1023E000E552E552E552CF0EE66E000EE66E040EA3
:1023F000E66E010EDBCFE6FF0F0EE552D880E75404
:10240000E66E50EC05F0E552E552E552E552CF0E8E
:10241000E66E000EE66E040EE66E010EDBCFE6FF02
:102420000E0EE552D880E754E66EF4EC03F0E55268
:10243000E552E552E552CF0EE66E000EE66E040E52
:10244000E66E010EDBCFE6FF130EE552D880E754AF
:10245000E66E50EC05F0E552E552E552E552CF0E3E
:10246000E66E000EE66E040EE66E010EDBCFE6FFB2
:10247000120EE552D880E754E66EF4EC03F0E55214
:10248000E552E552E552980EE66E000EE66E040E39
:10249000E66E010EDBCFE6FF170EE552D880E7545B
:1024A000E66E50EC05F0E552E552E552E552980E25
:1024B000E66E000EE66E040EE66E010EDBCFE6FF62
:1024C000160EE552D880E754E66EF4EC03F0E552C0
:1024D000E552E552E552AC0EE66E000EE66E040ED5
:1024E000E66E010EDBCFE6FF1C0EE552D880E75406
:1024F000E66E50EC05F0E552E552E552E552AC0EC1
:10250000E66E000EE66E040EE66E010EDBCFE6FF11
:102510001B0EE552D880E754E66EF4EC03F0E5526A
:10252000E552E552E5528E0EE66E000EE66E040EA2
:10253000E66E010EDBCFE6FF220EE552D880E754AF
:10254000E66E50EC05F0E552E552E552E5528E0E8E
:10255000E66E000EE66E040EE66E010EDBCFE6FFC1
:10256000210EE552D880E754E66EF4EC03F0E55214
:10257000E552E552E552C50EE66E000EE66E040E1B
:10258000E66E010EDBCFE6FF280EE552D880E75459
:10259000E66E50EC05F0E552E552E552E552C50E07
:1025A000E66E000EE66E040EE66E010EDBCFE6FF71
:1025B000270EE552D880E754E66EF4EC03F0E552BE
:1025C000E552E552E552C9C2E6FF65EC3DF0E55241
:1025D000060EE66E73EC01F0E552010808E1040E08
:1025E000F36E020EF3CFDBFFD8EC08F02AD0040E16
:1025F000E66E73EC01F0E552010807E0030EE66EAB
:1026000073EC01F0E552010819E1040EE66E73EC7B
:1026100001F0E552010802E1020EDB6A030EE66EEC
:1026200073EC01F0E552010804E1020EF36EF3CF02
:10263000DBFFD8EC08F0FBEC08F003D0010EDB2A3E
:1026400074D6020EDB50030801E090D1DE52220E58
:10265000DD6E010EDBCF14F0030EE76E1418E8AE4A
:1026600002D0143403D0E750D880145401E37ED153
:10267000C50EE66E000EE66E040EE66E010EDBCFB2
:10268000E6FF050EE552D880E754E66E50EC05F003
:10269000E552E552E552E552840EE66E000EE66E16
:1026A000040EE66E010EDBCFE6FF0A0EE552D8807F
:1026B000E754E66E50EC05F0E552E552E552E5527E
:1026C000C50EE66E000EE66E040EE66E010EDBCF62
:1026D000E6FF060EE552D880E754E66EF4EC03F010
:1026E000E552E552E552E552CF0EE66E000EE66E7B
:1026F000040EE66E010EDBCFE6FF0E0EE552D8802B
:10270000E754E66E50EC05F0E552E552E552E5522D
:10271000840EE66E000EE66E040EE66E010EDBCF52
:10272000E6FF0B0EE552D880E754E66EF4EC03F0BA
:10273000E552E552E552E552CF0EE66E000EE66E2A
:10274000040EE66E010EDBCFE6FF120EE552D880D6
:10275000E754E66E50EC05F0E552E552E552E552DD
:10276000CF0EE66E000EE66E040EE66E010EDBCFB7
:10277000E6FF0F0EE552D880E754E66EF4EC03F066
:10278000E552E552E552E552980EE66E000EE66E11
:10279000040EE66E010EDBCFE6FF160EE552D88082
:1027A000E754E66E50EC05F0E552E552E552E5528D
:1027B000CF0EE66E000EE66E040EE66E010EDBCF67
:1027C000E6FF130EE552D880E754E66EF4EC03F012
:1027D000E552E552E552E552980EE66E000EE66EC1
:1027E000040EE66E010EDBCFE6FF170EE552D88031
:1027F000E754E66EF4EC03F0E552E552E552E5529B
:10280000AC0EE66E000EE66E040EE66E010EDBCF39
:10281000E6FF1B0EE552D880E754E66E50EC05F05B
:10282000E552E552E552E552AC0EE66E000EE66E5C
:10283000040EE66E010EDBCFE6FF1C0EE552D880DB
:10284000E754E66EF4EC03F0E552E552E552E5524A
:102850008E0EE66E000EE66E040EE66E010EDBCF07
:10286000E6FF210EE552D880E754E66E50EC05F005
:10287000E552E552E552E5528E0EE66E000EE66E2A
:10288000040EE66E010EDBCFE6FF220EE552D88085
:10289000E754E66EF4EC03F0E552E552E552E552FA
:1028A000C50EE66E000EE66E040EE66E010EDBCF80
:1028B000E6FF270EE552D880E754E66E50EC05F0AF
:1028C000E552E552E552E552C50EE66E000EE66EA3
:1028D000040EE66E010EDBCFE6FF280EE552D8802F
:1028E000E754E66EF4EC03F0E552E552E552E552AA
:1028F000C9C2E6FF65EC3DF0E552060EE66E73ECEC
:1029000001F0E552010808E1040EF36E020EF3CF68
:10291000DBFFD8EC08F02AD0040EE66E73EC01F071
:10292000E552010807E0030EE66E73EC01F0E55294
:10293000010819E1040EE66E73EC01F0E55201089E
:1029400002E1020EDB6A030EE66E73EC01F0E55263
:10295000010804E1020EF36EF3CFDBFFD8EC08F0C0
:10296000FBEC08F003D0010EDB0673D6D6D4020EC2
:10297000DB50040801E031D3CB0EE66E28EC00F00A
:10298000E55201081DE1F70EE66E000EE66E0A0E36
:10299000E66E040EE66E50EC05F0E552E552E552A7
:1029A000E552F20EE66E000EE66E0A0EE66E040EBC
:1029B000E66EF4EC03F0E552E552E552E5521CD028
:1029C000F20EE66E000EE66E0A0EE66E040EE66E7F
:1029D00050EC05F0E552E552E552E552F70EE66E91
:1029E000000EE66E0A0EE66E040EE66EF4EC03F0E0
:1029F000E552E552E552E552DE52040EDD6E010E5F
:102A0000DBCF14F0150EE76E1418E8AE02D0E734F1
:102A100002D0E750145C01E365D1C50EE66E000EEE
:102A2000E66E040EE66E010EDBCFE6FF060EE55203
:102A3000D880E754E66E50EC05F0E552E552E552D9
:102A4000E552C50EE66E000EE66E040EE66E010E51
:102A5000DBCFE6FF050EE552D880E754E66EF4ECD6
:102A600003F0E552E552E552E552B10EE66E000E76
:102A7000E66E040EE66E010EDBCFE6FF0B0EE552AE
:102A8000D880E754E66E50EC05F0E552E552E55289
:102A9000E552B10EE66E000EE66E040EE66E010E15
:102AA000DBCFE6FF0A0EE552D880E754E66EF4EC81
:102AB00003F0E552E552E552E552D40EE66E000E03
:102AC000E66E040EE66E010EDBCFE6FF100EE55259
:102AD000D880E754E66E50EC05F0E552E552E55239
:102AE000E552D40EE66E000EE66E040EE66E010EA2
:102AF000DBCFE6FF0F0EE552D880E754E66EF4EC2C
:102B000003F0E552E552E552E552AC0EE66E000EDA
:102B1000E66E040EE66E010EDBCFE6FF150EE55203
:102B2000D880E754E66E50EC05F0E552E552E552E8
:102B3000E552AC0EE66E000EE66E040EE66E010E79
:102B4000DBCFE6FF140EE552D880E754E66EF4ECD6
:102B500003F0E552E552E552E5527F0EE66E000EB7
:102B6000E66E040EE66E010EDBCFE6FF1B0EE552AD
:102B7000D880E754E66E50EC05F0E552E552E55298
:102B8000E5527F0EE66E000EE66E040EE66E010E56
:102B9000DBCFE6FF1A0EE552D880E754E66EF4EC80
:102BA00003F0E552E552E552E552C9C2E6FF65EC95
:102BB0003DF0E552060EE66E73EC01F0E5520108B9
:102BC00007E0050EE66E73EC01F0E55201085CE1EA
:102BD000060EE66E73EC01F0E552010842E1A9EC45
:102BE00000F0CB0EE66E28EC00F0E55201081DE186
:102BF000F70EE66E000EE66E0A0EE66E040EE66E48
:102C000050EC05F0E552E552E552E552F20EE66E63
:102C1000000EE66E0A0EE66E040EE66EF4EC03F0AD
:102C2000E552E552E552E5521CD0F20EE66E000E7A
:102C3000E66E0A0EE66E040EE66E50EC05F0E55206
:102C4000E552E552E552F70EE66E000EE66E0A0E0C
:102C5000E66E040EE66EF4EC03F0E552E552E55242
:102C6000E552050EE66E73EC01F0E55201080AE14B
:102C7000030EF36E020EF3CFDBFFB8EC03F0FBECB8
:102C800008F030D0D8EC08F0040EE66E73EC01F0DA
:102C9000E552010807E0030EE66E73EC01F0E55221
:102CA00001081DE1040EE66E73EC01F0E552010827
:102CB00005E1050EF36E020EF3CFDBFF030EE66EA9
:102CC00073EC01F0E552010805E1060EF36E020E09
:102CD000F3CFDBFFD8EC08F0FBEC08F003D0010EDB
:102CE000DB2A8DD6020EDB50040801E075D1DE52DE
:102CF000150EDD6E010EDBCF14F0030EE76E141817
:102D0000E8AE02D0143403D0E750D880145401E365
:102D100063D1C50EE66E000EE66E040EE66E010E81
:102D2000DBCFE6FF050EE552D880E754E66E50ECA7
:102D300005F0E552E552E552E552B10EE66E000EA1
:102D4000E66E040EE66E010EDBCFE6FF0A0EE552DC
:102D5000D880E754E66E50EC05F0E552E552E552B6
:102D6000E552C50EE66E000EE66E040EE66E010E2E
:102D7000DBCFE6FF060EE552D880E754E66EF4ECB2
:102D800003F0E552E552E552E552D40EE66E000E30
:102D9000E66E040EE66E010EDBCFE6FF0F0EE55287
:102DA000D880E754E66E50EC05F0E552E552E55266
:102DB000E552B10EE66E000EE66E040EE66E010EF2
:102DC000DBCFE6FF0B0EE552D880E754E66EF4EC5D
:102DD00003F0E552E552E552E552AC0EE66E000E08
:102DE000E66E040EE66E010EDBCFE6FF140EE55232
:102DF000D880E754E66E50EC05F0E552E552E55216
:102E0000E552D40EE66E000EE66E040EE66E010E7E
:102E1000DBCFE6FF100EE552D880E754E66EF4EC07
:102E200003F0E552E552E552E5527F0EE66E000EE4
:102E3000E66E040EE66E010EDBCFE6FF1A0EE552DB
:102E4000D880E754E66E50EC05F0E552E552E552C5
:102E5000E552AC0EE66E000EE66E040EE66E010E56
:102E6000DBCFE6FF150EE552D880E754E66EF4ECB2
:102E700003F0E552E552E552E5527F0EE66E000E94
:102E8000E66E040EE66E010EDBCFE6FF1B0EE5528A
:102E9000D880E754E66EF4EC03F0E552E552E552D3
:102EA000E552C9C2E6FF65EC3DF0E552060EE66E5E
:102EB00073EC01F0E552010807E0050EE66E73ECD5
:102EC00001F0E55201085AE1060EE66E73EC01F0DE
:102ED000E552010842E1A9EC00F0CB0EE66E28ECC9
:102EE00000F0E55201081DE1F70EE66E000EE66EF9
:102EF0000A0EE66E040EE66E50EC05F0E552E55261
:102F0000E552E552F20EE66E000EE66E0A0EE66E31
:102F1000040EE66EF4EC03F0E552E552E552E5529C
:102F20001CD0F20EE66E000EE66E0A0EE66E040E81
:102F3000E66E50EC05F0E552E552E552E552F70E2B
:102F4000E66E000EE66E0A0EE66E040EE66EF4EC19
:102F500003F0E552E552E552E552050EE66E73ECDC
:102F600001F0E552010808E1030EF36E020EF3CF03
:102F7000DBFFFBEC08F030D0D8EC08F0040EE66E76
:102F800073EC01F0E552010807E0030EE66E73EC06
:102F900001F0E55201081DE1040EE66E73EC01F04C
:102FA000E552010805E1050EF36E020EF3CFDBFFDB
:102FB000030EE66E73EC01F0E552010805E1060E22
:102FC000F36E020EF3CFDBFFD8EC08F0FBEC08F059
:102FD00003D0010EDB068ED6CAD4020EDB500508E4
:102FE00001E07FD3CA0EE66E28EC00F0E55201083E
:102FF0001DE1F70EE66E000EE66E0A0EE66E040E9A
:10300000E66E50EC05F0E552E552E552E552F20E5F
:10301000E66E000EE66E0A0EE66E040EE66EF4EC48
:1030200003F0E552E552E552E5521CD0F20EE66E91
:10303000000EE66E0A0EE66E040EE66E50EC05F02B
:10304000E552E552E552E552F70EE66E000EE66EE9
:103050000A0EE66E040EE66EF4EC03F0E552E5525D
:10306000E552E552DE52040EDD6E010EDBCF14F0A8
:10307000190EE76E1418E8AE02D0E73402D0E7501C
:10308000145C01E38BD1C50EE66E000EE66E040EF5
:10309000E66E010EDBCFE6FF060EE552D880E75460
:1030A000E66E50EC05F0E552E552E552E552C50EEC
:1030B000E66E000EE66E040EE66E010EDBCFE6FF56
:1030C000050EE552D880E754E66EF4EC03F0E552C5
:1030D000E552E552E552B60EE66E000EE66E040EBF
:1030E000E66E010EDBCFE6FF0B0EE552D880E7540B
:1030F000E66E50EC05F0E552E552E552E552B60EAB
:10310000E66E000EE66E040EE66E010EDBCFE6FF05
:103110000A0EE552D880E754E66EF4EC03F0E5526F
:10312000E552E552E552A20EE66E000EE66E040E82
:10313000E66E010EDBCFE6FF100EE552D880E754B5
:10314000E66E50EC05F0E552E552E552E552A20E6E
:10315000E66E000EE66E040EE66E010EDBCFE6FFB5
:103160000F0EE552D880E754E66EF4EC03F0E5521A
:10317000E552E552E5526B0EE66E000EE66E040E69
:10318000E66E010EDBCFE6FF140EE552D880E75461
:10319000E66E50EC05F0E552E552E552E5526B0E55
:1031A000E66E000EE66E040EE66E010EDBCFE6FF65
:1031B000130EE552D880E754E66EF4EC03F0E552C6
:1031C000E552E552E552C50EE66E000EE66E040EBF
:1031D000E66E010EDBCFE6FF190EE552D880E7540C
:1031E000E66E50EC05F0E552E552E552E552C50EAB
:1031F000E66E000EE66E040EE66E010EDBCFE6FF15
:10320000180EE552D880E754E66EF4EC03F0E55270
:10321000E552E552E552930EE66E000EE66E040EA0
:10322000E66E010EDBCFE6FF1E0EE552D880E754B6
:10323000E66E50EC05F0E552E552E552E552930E8C
:10324000E66E000EE66E040EE66E010EDBCFE6FFC4
:103250001D0EE552D880E754E66EF4EC03F0E5521B
:10326000E552E552E552C9C2E6FF65EC3DF0E55294
:10327000060EE66E73EC01F0E552010807E0050E5C
:10328000E66E73EC01F0E55201085AE1060EE66EB7
:1032900073EC01F0E552010842E1C3EC00F0CA0E04
:1032A000E66E28EC00F0E55201081DE1F70EE66E2F
:1032B000000EE66E0A0EE66E040EE66E50EC05F0A9
:1032C000E552E552E552E552F20EE66E000EE66E6C
:1032D0000A0EE66E040EE66EF4EC03F0E552E552DB
:1032E000E552E5521CD0F20EE66E000EE66E0A0EB6
:1032F000E66E040EE66E50EC05F0E552E552E5523E
:10330000E552F70EE66E000EE66E0A0EE66E040E4D
:10331000E66EF4EC03F0E552E552E552E552050E97
:10332000E66E73EC01F0E552010808E1030EF36E5E
:10333000020EF3CFDBFFFBEC08F030D0D8EC08F046
:10334000040EE66E73EC01F0E552010807E0030E8F
:10335000E66E73EC01F0E55201081DE1040EE66E25
:1033600073EC01F0E552010805E1060EF36E020E62
:10337000F3CFDBFF030EE66E73EC01F0E5520108BC
:1033800005E1040EF36E020EF3CFDBFFD8EC08F07C
:10339000FBEC08F003D0010EDB2A67D6020EDB50EF
:1033A000050801E09DD1DE52190EDD6E010EDBCF66
:1033B00014F0030EE76E1418E8AE02D0143403D0F4
:1033C000E750D880145401E38BD1C50EE66E000E91
:1033D000E66E040EE66E010EDBCFE6FF050EE5524B
:1033E000D880E754E66E50EC05F0E552E552E55220
:1033F000E552B60EE66E000EE66E040EE66E010EA7
:10340000DBCFE6FF0A0EE552D880E754E66E50ECBB
:1034100005F0E552E552E552E552C50EE66E000EA6
:10342000E66E040EE66E010EDBCFE6FF060EE552F9
:10343000D880E754E66EF4EC03F0E552E552E5522D
:10344000E552A20EE66E000EE66E040EE66E010E6A
:10345000DBCFE6FF0F0EE552D880E754E66E50EC66
:1034600005F0E552E552E552E552B60EE66E000E65
:10347000E66E040EE66E010EDBCFE6FF0B0EE552A4
:10348000D880E754E66EF4EC03F0E552E552E552DD
:10349000E5526B0EE66E000EE66E040EE66E010E51
:1034A000DBCFE6FF130EE552D880E754E66E50EC12
:1034B00005F0E552E552E552E552A20EE66E000E29
:1034C000E66E040EE66E010EDBCFE6FF100EE5524F
:1034D000D880E754E66EF4EC03F0E552E552E5528D
:1034E000E552C50EE66E000EE66E040EE66E010EA7
:1034F000DBCFE6FF180EE552D880E754E66E50ECBD
:1035000005F0E552E552E552E5526B0EE66E000E0F
:10351000E66E040EE66E010EDBCFE6FF140EE552FA
:10352000D880E754E66EF4EC03F0E552E552E5523C
:10353000E552C50EE66E000EE66E040EE66E010E56
:10354000DBCFE6FF190EE552D880E754E66EF4ECC7
:1035500003F0E552E552E552E552930EE66E000E99
:10356000E66E040EE66E010EDBCFE6FF1D0EE552A1
:10357000D880E754E66E50EC05F0E552E552E5528E
:10358000E552930EE66E000EE66E040EE66E010E38
:10359000DBCFE6FF1E0EE552D880E754E66EF4EC72
:1035A00003F0E552E552E552E552C9C2E6FF65EC8B
:1035B0003DF0E552060EE66E73EC01F0E5520108AF
:1035C00007E0050EE66E73EC01F0E55201085AE1E2
:1035D000060EE66E73EC01F0E552010842E1C3EC21
:1035E00000F0CA0EE66E28EC00F0E55201081DE17D
:1035F000F70EE66E000EE66E0A0EE66E040EE66E3E
:1036000050EC05F0E552E552E552E552F20EE66E59
:10361000000EE66E0A0EE66E040EE66EF4EC03F0A3
:10362000E552E552E552E5521CD0F20EE66E000E70
:10363000E66E0A0EE66E040EE66E50EC05F0E552FC
:10364000E552E552E552F70EE66E000EE66E0A0E02
:10365000E66E040EE66EF4EC03F0E552E552E55238
:10366000E552050EE66E73EC01F0E552010808E143
:10367000030EF36E020EF3CFDBFFFBEC08F030D04D
:10368000D8EC08F0040EE66E73EC01F0E552010888
:1036900007E0030EE66E73EC01F0E55201081DE150
:1036A000040EE66E73EC01F0E552010805E1060E2A
:1036B000F36E020EF3CFDBFF030EE66E73EC01F048
:1036C000E552010805E1040EF36E020EF3CFDBFFB5
:1036D000D8EC08F0FBEC08F003D0010EDB0666D650
:1036E0007CD4020EDB50060801E01ED3DE52040E2D
:1036F000DD6E010EDBCF14F01C0EE76E1418E8AE81
:1037000002D0E73402D0E750145C01E37BD1C00E55
:10371000E66E000EE66E040EE66E010EDBCFE6FFEF
:10372000070EE552D880E754E66E50EC05F0E552FE
:10373000E552E552E552C00EE66E000EE66E040E4E
:10374000E66E010EDBCFE6FF060EE552D880E754A9
:10375000E66EF4EC03F0E552E552E552E552840ED4
:10376000E66E000EE66E040EE66E010EDBCFE6FF9F
:103770000B0EE552D880E754E66E50EC05F0E552AA
:10378000E552E552E552840EE66E000EE66E040E3A
:10379000E66E010EDBCFE6FF0A0EE552D880E75455
:1037A000E66EF4EC03F0E552E552E552E552C50E43
:1037B000E66E000EE66E040EE66E010EDBCFE6FF4F
:1037C000100EE552D880E754E66E50EC05F0E55255
:1037D000E552E552E552C50EE66E000EE66E040EA9
:1037E000E66E010EDBCFE6FF0F0EE552D880E75400
:1037F000E66EF4EC03F0E552E552E552E552CF0EE9
:10380000E66E000EE66E040EE66E010EDBCFE6FFFE
:10381000140EE552D880E754E66E50EC05F0E55200
:10382000E552E552E552CF0EE66E000EE66E040E4E
:10383000E66E010EDBCFE6FF130EE552D880E754AB
:10384000E66EF4EC03F0E552E552E552E552B10EB6
:10385000E66E000EE66E040EE66E010EDBCFE6FFAE
:10386000190EE552D880E754E66E50EC05F0E552AB
:10387000E552E552E552B10EE66E000EE66E040E1C
:10388000E66E010EDBCFE6FF180EE552D880E75456
:10389000E66EF4EC03F0E552E552E552E552C00E57
:1038A000E66E000EE66E040EE66E010EDBCFE6FF5E
:1038B0001E0EE552D880E754E66E50EC05F0E55256
:1038C000E552E552E552C00EE66E000EE66E040EBD
:1038D000E66E010EDBCFE6FF1D0EE552D880E75401
:1038E000E66EF4EC03F0E552E552E552E552840E43
:1038F000E66E000EE66E040EE66E010EDBCFE6FF0E
:10390000220EE552D880E754E66E50EC05F0E55201
:10391000E552E552E552840EE66E000EE66E040EA8
:10392000E66E010EDBCFE6FF210EE552D880E754AC
:10393000E66EF4EC03F0E552E552E552E552C9C2F9
:10394000E6FF65EC3DF0E552060EE66E73EC01F025
:10395000E552010807E0050EE66E73EC01F0E55252
:10396000010822E1060EE66E73EC01F0E552010853
:103970000AE1070EF36E020EF3CFDBFFB8EC03F0A3
:10398000DE521C0EDD6E050EE66E73EC01F0E552A4
:10399000010808E1030EF36E020EF3CFDBFFFBEC30
:1039A00008F030D0D8EC08F0040EE66E73EC01F0AD
:1039B000E552010807E0030EE66E73EC01F0E552F4
:1039C00001081DE1040EE66E73EC01F0E5520108FA
:1039D00005E1040EF36E020EF3CFDBFF030EE66E7D
:1039E00073EC01F0E552010805E1050EF36E020EDD
:1039F000F3CFDBFFD8EC08F0FBEC08F003D0010EAE
:103A0000DB2A77D6020EDB50060801E08CD1DE52AD
:103A10001C0EDD6E010EDBCF14F0030EE76E1418E2
:103A2000E8AE02D0143403D0E750D880145401E338
:103A30007AD1C00EE66E000EE66E040EE66E010E42
:103A4000DBCFE6FF060EE552D880E754E66E50EC79
:103A500005F0E552E552E552E552840EE66E000EA1
:103A6000E66E040EE66E010EDBCFE6FF0A0EE552AF
:103A7000D880E754E66E50EC05F0E552E552E55289
:103A8000E552C00EE66E000EE66E040EE66E010E06
:103A9000DBCFE6FF070EE552D880E754E66EF4EC84
:103AA00003F0E552E552E552E552C50EE66E000E12
:103AB000E66E040EE66E010EDBCFE6FF0F0EE5525A
:103AC000D880E754E66E50EC05F0E552E552E55239
:103AD000E552840EE66E000EE66E040EE66E010EF2
:103AE000DBCFE6FF0B0EE552D880E754E66EF4EC30
:103AF00003F0E552E552E552E552CF0EE66E000EB8
:103B0000E66E040EE66E010EDBCFE6FF130EE55205
:103B1000D880E754E66E50EC05F0E552E552E552E8
:103B2000E552C50EE66E000EE66E040EE66E010E60
:103B3000DBCFE6FF100EE552D880E754E66EF4ECDA
:103B400003F0E552E552E552E552B10EE66E000E85
:103B5000E66E040EE66E010EDBCFE6FF180EE552B0
:103B6000D880E754E66E50EC05F0E552E552E55298
:103B7000E552CF0EE66E000EE66E040EE66E010E06
:103B8000DBCFE6FF140EE552D880E754E66EF4EC86
:103B900003F0E552E552E552E552B10EE66E000E35
:103BA000E66E040EE66E010EDBCFE6FF190EE5525F
:103BB000D880E754E66EF4EC03F0E552E552E552A6
:103BC000E552C00EE66E000EE66E040EE66E010EC5
:103BD000DBCFE6FF1D0EE552D880E754E66E50ECD1
:103BE00005F0E552E552E552E552C00EE66E000ED4
:103BF000E66E040EE66E010EDBCFE6FF1E0EE5520A
:103C0000D880E754E66EF4EC03F0E552E552E55255
:103C1000E552840EE66E000EE66E040EE66E010EB0
:103C2000DBCFE6FF210EE552D880E754E66E50EC7C
:103C300005F0E552E552E552E552840EE66E000EBF
:103C4000E66E040EE66E010EDBCFE6FF220EE552B5
:103C5000D880E754E66EF4EC03F0E552E552E55205
:103C6000E552C9C2E6FF65EC3DF0E552060EE66E90
:103C700073EC01F0E552010807E0050EE66E73EC07
:103C800001F0E552010821E1060EE66E73EC01F049
:103C9000E552010809E1070EF36E020EF3CFDBFFD8
:103CA000B8EC03F0010EDB6A050EE66E73EC01F072
:103CB000E552010808E1030EF36E020EF3CFDBFFBD
:103CC000FBEC08F030D0D8EC08F0040EE66E73EC94
:103CD00001F0E552010807E0030EE66E73EC01F017
:103CE000E55201081DE1040EE66E73EC01F0E552A9
:103CF000010805E1040EF36E020EF3CFDBFF030EA5
:103D0000E66E73EC01F0E552010805E1050EF36E75
:103D1000020EF3CFDBFFD8EC08F0FBEC08F003D089
:103D2000010EDB0677D6DDD4020EDB50070801E07A
:103D300023D2DE52040EDD6E010EDBCF14F0140E22
:103D4000E76E1418E8AE02D0E73402D0E750145CF6
:103D500001E3FDD0C50EE66E000EE66E040EE66EC3
:103D6000010EDBCFE6FF060EE552D880E754E66E83
:103D700050EC05F0E552E552E552E552C50EE66E0F
:103D8000000EE66E040EE66E010EDBCFE6FF050EBA
:103D9000E552D880E754E66EF4EC03F0E552E552C4
:103DA000E552E552D40EE66E000EE66E040EE66EA7
:103DB000010EDBCFE6FF0B0EE552D880E754E66E2E
:103DC00050EC05F0E552E552E552E552D40EE66EB0
:103DD000000EE66E040EE66E010EDBCFE6FF0A0E65
:103DE000E552D880E754E66EF4EC03F0E552E55274
:103DF000E552E552C00EE66E000EE66E040EE66E6B
:103E0000010EDBCFE6FF100EE552D880E754E66ED8
:103E100050EC05F0E552E552E552E552C00EE66E73
:103E2000000EE66E040EE66E010EDBCFE6FF0F0E0F
:103E3000E552D880E754E66EF4EC03F0E552E55223
:103E4000E552E552840EE66E000EE66E040EE66E56
:103E5000010EDBCFE6FF140EE552D880E754E66E84
:103E600050EC05F0E552E552E552E552840EE66E5F
:103E7000000EE66E040EE66E010EDBCFE6FF130EBB
:103E8000E552D880E754E66EF4EC03F0E552E552D3
:103E9000E552E552ED0EE66E000EE66E040EE66E9D
:103EA000010EDBCFE6FF190EE552D880E754E66E2F
:103EB00050EC05F0E552E552E552E552ED0EE66EA6
:103EC000000EE66E040EE66E010EDBCFE6FF180E66
:103ED000E552D880E754E66EF4EC03F0E552E55283
:103EE000E552E552C9C2E6FF65EC3DF0E552060E2B
:103EF000E66E73EC01F0E552010807E0050EE66E90
:103F000073EC01F0E55201081FE1060EE66E73EC5A
:103F100001F0E552010807E1DDEC00F0020EDB6A7A
:103F2000FBEC08F014D0050EE66E73EC01F0E552E0
:103F3000010808E1030EF36E020EF3CFDBFFFBEC8A
:103F400008F005D0D8EC08F0010EDB2AF5D6020EF9
:103F5000DB50070801E00FD1DE52140EDD6E010EBA
:103F6000DBCF14F0030EE76E1418E8AE02D0143461
:103F700003D0E750D880145401E3FDD0C50EE66E9F
:103F8000000EE66E040EE66E010EDBCFE6FF050EB8
:103F9000E552D880E754E66E50EC05F0E552E55264
:103FA000E552E552D40EE66E000EE66E040EE66EA5
:103FB000010EDBCFE6FF0A0EE552D880E754E66E2D
:103FC00050EC05F0E552E552E552E552C50EE66EBD
:103FD000000EE66E040EE66E010EDBCFE6FF060E67
:103FE000E552D880E754E66EF4EC03F0E552E55272
:103FF000E552E552C00EE66E000EE66E040EE66E69
:10400000010EDBCFE6FF0F0EE552D880E754E66ED7
:1040100050EC05F0E552E552E552E552D40EE66E5D
:10402000000EE66E040EE66E010EDBCFE6FF0B0E11
:10403000E552D880E754E66EF4EC03F0E552E55221
:10404000E552E552840EE66E000EE66E040EE66E54
:10405000010EDBCFE6FF130EE552D880E754E66E83
:1040600050EC05F0E552E552E552E552C00EE66E21
:10407000000EE66E040EE66E010EDBCFE6FF100EBC
:10408000E552D880E754E66EF4EC03F0E552E552D1
:10409000E552E552ED0EE66E000EE66E040EE66E9B
:1040A000010EDBCFE6FF180EE552D880E754E66E2E
:1040B00050EC05F0E552E552E552E552840EE66E0D
:1040C000000EE66E040EE66E010EDBCFE6FF140E68
:1040D000E552D880E754E66EF4EC03F0E552E55281
:1040E000E552E552ED0EE66E000EE66E040EE66E4B
:1040F000010EDBCFE6FF190EE552D880E754E66EDD
:10410000F4EC03F0E552E552E552E552C9C2E6FF90
:1041100065EC3DF0E552060EE66E73EC01F0E552FB
:10412000010807E0050EE66E73EC01F0E5520108A8
:104130001FE1060EE66E73EC01F0E552010807E19F
:10414000DDEC00F0020EDB6AFBEC08F014D0050E8B
:10415000E66E73EC01F0E552010808E1030EF36E20
:10416000020EF3CFDBFFFBEC08F005D0D8EC08F033
:10417000010EDB06F4D6D8D542EF09F0020EDB5073
:10418000F60F0201C36FC46B800B01E0C469010E1E
:10419000C16FC26B030EE15C02E2E16AE552E16EBF
:1041A000E552E7CFD9FF1200E66AE66AFA0EE66E3C
:1041B000430EE66E97EC01F0E552E552E552E5520A
:1041C000A20EE66E000EE66E010EE66E020EE66EC2
:1041D000F4EC03F0E552E552E552E552B10EE66E1D
:1041E000000EE66E010EE66E060EE66EF4EC03F0CF
:1041F000E552E552E552E552DE0EE66E000EE66E41
:10420000070EE66E040EE66EF4EC03F0E552E5529E
:10421000E552E552750EE66E000EE66E0B0EE66E8A
:10422000010EE66EF4EC03F0E552E552E552E5527C
:10423000700EE66E000EE66E0B0EE66E050EE66E76
:10424000F4EC03F0E552E552E552E552CF0EE66E8E
:10425000000EE66E0B0EE66E070EE66EF4EC03F053
:10426000E552E552E552E552050EE66E73EC01F0BB
:10427000E552010807E0060EE66E73EC01F0E55228
:10428000010805E1B8EC03F0D8EC08F001D098D7AC
:104290001200D9CFE6FFE1CFD9FF020EE126D650BA
:1042A000E66EE66A47EC3DF0E552E55200011E0E6F
:1042B000616F02017A6B070EB66F030EB76F040EC3
:1042C000B86F030EB96FBA6BBB6BBC6BBD6BBE6BCB
:1042D000BF6B040ECB6FCC6BCE6BDE6EDD6ADECFB8
:1042E00014F0DDCF15F0D890155004E6080E145CDC
:1042F000000E155810E2010EE66E030EE66EDFCFDB
:10430000E6FFD3EC02F0E552E552E552DF2A010E5A
:1043100001E3DB2AE4D7020EE15C02E2E16AE55246
:10432000E16EE552E7CFD9FF1200B8EC03F0E66A80
:10433000E66A7A0EE66E440EE66E97EC01F0E55200
:10434000E552E552E552090E0201C36FC46BC16B21
:10435000C26BC90EE66E28EC00F0E5520201D8806F
:10436000CE5508E2CEC2E6FFC90EE66E38EC00F08C
:10437000E552E55212000201BD5158E14EEC3DF00C
:10438000F3CF14F0F4CF15F0090E0D6E0E6A14C0C1
:1043900008F015C009F09FEC3AF004C014F005C015
:1043A00015F0010E14240201BE6F4EEC3DF0F3CF68
:1043B00014F0F4CF15F00F0E0D6E0E6A14C008F055
:1043C00015C009F09FEC3AF004C014F005C015F0D8
:1043D000010E14240201BF6FBFC2E6FFBEC2E6FF9A
:1043E0004CEC02F0E552E552000903E10201010E36
:1043F000BD6F0201BE0503E1BF0501E1BD6B0A0E01
:10440000BE5D03E1BF0501E1BD6BBE0504E1100E19
:10441000BF5D01E1BD6B0A0EBE5D04E1100EBF5D24
:1044200001E1BD6BBD0501E1CE2BA5D7010EE66E06
:10443000BFC2E6FFBEC2E6FFD3EC02F0E552E55292
:10444000E5521200D9CFE6FFE1CFD9FF040EE126F5
:10445000FD0EDB5001E0E4D0BAC216F0176A16BEBA
:1044600017680201CB511624146ECC511720156E1B
:104470001406000E155A020E14C0DBFF030E15C001
:10448000DBFFBCC214F0156A14BE156814C0DEFF51
:1044900015C0DDFF020EDBCF14F0030EDBCF15F0ED
:1044A000153404E214500308000E15543BE2BCC25C
:1044B00016F0176A16BE1768020EDBCF18F0030E4F
:1044C000DBCF19F0040E0D6E0E6A18C008F019C08B
:1044D00009F09FEC3AF008C018F009C019F0165026
:1044E0001824146E17501920156E14C0DEFF15C065
:1044F000DDFF020EDBCF14F0030EDBCF15F0040E50
:104500000D6E0E6A14C008F015C009F09FEC3AF069
:1045100004C014F005C015F0020E14C0DBFF030E3A
:1045200015C0DBFFDECF14F0DDCF15F0153404E24B
:1045300014503B08000E155408E2D9CFE9FFDACF3A
:10454000EAFF3C0EEE5E000EED5A020E086E096A9E
:10455000DBCF0DF0030EDBCF0EF0C5EC3AF006C05A
:1045600015F007C016F0060ED8801556000E165628
:10457000030E15C0E7FFE75204E0E846FE0BE7062E
:10458000FCE1E81C146EDECFE9FFDDCFEAFF7A0E16
:10459000E926020EEA22EF501414E66EDECFE9FFA0
:1045A000DDCFEAFF7A0EE926020EEA22E552E75055
:1045B000EF6E020E086E096ADBCF0DF0030EDBCF43
:1045C0000EF0C5EC3AF006C015F007C016F0060E66
:1045D000D8801556000E1656FE0EDB5015C0E7FFAC
:1045E000E75204E0E846FE0BE706FCE1146EDECF7E
:1045F000E9FFDDCFEAFF7A0EE926020EEA22EF504C
:104600001410E66EDECFE9FFDDCFEAFF7A0EE92671
:10461000020EEA22E552E750EF6E000E2CD02BD0AE
:10462000FD0EDB040EE10201BA2B040EBA5D02E1BD
:10463000BA6BBC2B3C0EBC5D01E1BC6B000E1BD009
:104640001AD0FD0EDB50020816E10201BA51E8242F
:10465000146EBCC2E9FFEA6AE9BEEA687A0EE9268E
:10466000020EEA22EF50145204E0E846FE0B140654
:10467000FCE1C00B00D0146E040EE15C02E2E16AC2
:10468000E552E16E1450E552E7CFD9FF12000A0E51
:104690000201E76EB619E8AE02D0B63503D0E75096
:1046A000D880B6550AE3010EE76EB619E8AE02D01F
:1046B000E73402D0E750B65D01E237DE100E0201AA
:1046C000E76EB719E8AE02D0B73503D0E750D8800F
:1046D000B7550AE3010EE76EB719E8AE02D0E7342A
:1046E00002D0E750B75D01E220DE0201BB512DE1AF
:1046F000B629BE5D29E1BF51B75D26E1BD6BE66A13
:10470000E66A160EE66E430EE66E97EC01F0E55291
:10471000E552E552E5520A0E0001E76E6119E8AE76
:1047200002D0613503D0E750D880615501E26107BE
:104730000201B62BE66ABBC2E6FF84DEE552E55213
:104740000201CB2B000ECC23B62B030EBB5D2DE15B
:10475000BE51B65D29E1B729BF5D26E1BD6BE66AB2
:10476000E66A160EE66E430EE66E97EC01F0E55231
:10477000E552E552E5520A0E0001E76E6119E8AE16
:1047800002D0613503D0E750D880615501E261075E
:104790000201B72BE66ABBC2E6FF54DEE552E552E2
:1047A0000201CB2B000ECC23B72B020EBB5D2DE1FB
:1047B000BE51B65D29E1B705BF5D26E1BD6BE66A76
:1047C000E66A160EE66E430EE66E97EC01F0E552D1
:1047D000E552E552E5520A0E0001E76E6119E8AEB6
:1047E00002D0613503D0E750D880615501E26107FE
:1047F0000201B707E66ABBC2E6FF24DEE552E552D6
:104800000201CB2B000ECC23B707BB052DE1B6056B
:10481000BE5D29E1BF51B75D26E1BD6BE66AE66A80
:10482000160EE66E430EE66E97EC01F0E552E55289
:10483000E552E5520A0E0001E76E6119E8AE02D0BA
:10484000613503D0E750D880615501E2610702016C
:10485000B607E66ABBC2E6FFF5DDE552E5520201A6
:10486000CB2B000ECC23B607B7C2E6FFB6C2E6FFDD
:104870004CEC02F0E552E552010802E156DD0BD0A6
:10488000010EE66EB7C2E6FFB6C2E6FFD3EC02F059
:10489000E552E552E552E66AB9C2E6FFB8C2E6FF64
:1048A000D3EC02F0E552E552E552E66ABBC2E6FF00
:1048B000C9DDE552E552020EE66EBBC2E6FFC2DD7F
:1048C000E552E552000902E10201B82B020EE66E44
:1048D000BBC2E6FFB7DDE552E552C00802E10201C6
:1048E000B92B020EE66EBBC2E6FFACDDE552E55227
:1048F000400802E10201B807020EE66EBBC2E6FF05
:10490000A1DDE552E552800802E10201B90702018A
:10491000CD6B010EE66EBBC2E6FF94DDE552E552BB
:104920001200040EE66E73EC01F0E552010808E196
:104930000201CD5105E1BB0503E0010ECD6FBB6B5C
:10494000030EE66E73EC01F0E552010808E1020186
:10495000CD5105E1BB5103E0010ECD6FBB6F020EDF
:10496000E66E73EC01F0E55201080AE10201CD5157
:1049700007E1020EBB5D04E0010ECD6F030EBB6FBD
:10498000010EE66E73EC01F0E55201080AE1020146
:10499000CD5107E1030EBB5D04E0010ECD6F020EA9
:1049A000BB6F1200D9CFE6FFE1CFD9FF040EE1269D
:1049B000DF6A010EDB6A020EDB6A030EDB6AC90ED8
:1049C000E66E28EC00F0E552DF6EDF5003E161DCBB
:1049D000CFD0CED0D8EC08F0BB0EE66E000EE66E5F
:1049E000010EE66EE66EF4EC03F0E552E552E55298
:1049F000E552CF0EE66E000EE66E010EE66E030E79
:104A0000E66EF4EC03F0E552E552E552E552CA0ECB
:104A1000E66E000EE66E010EE66E080EE66EF4EC33
:104A200003F0E552E552E552E552640E146E14C0EF
:104A30000EF0DFCF09F0C0EC3DF0010E09C0DBFF46
:104A40000A0E146E14C00EF0010EDBCF09F0C0EC9C
:104A50003DF0010E05C0DBFF0A0E146E14C00EF00F
:104A6000DFCF09F0C0EC3DF0020E09C0DBFF0A0EFB
:104A7000146E14C00EF0020EDBCF09F0C0EC3DF056
:104A8000020E05C0DBFF030EDFCFDBFF0A0E146E44
:104A900014C00EF0030EDBCF09F0C0EC3DF0030EA6
:104AA00005C0DBFF010EDB50050DF3CF14F0F4CF92
:104AB00015F0000E1426010E152214C0E6FF15C0D5
:104AC000E6FF060EE66E010EE66EF4EC03F0E5522C
:104AD000E552E552E552020EDB50050DF3CF14F01E
:104AE000F4CF15F0000E1426010E152214C0E6FFB7
:104AF00015C0E6FF0C0EE66E010EE66EF4EC03F058
:104B0000E552E552E552E552030EDB50050DF3CFB9
:104B100014F0F4CF15F0000E1426010E152214C067
:104B2000E6FF15C0E6FF0C0EE66E060EE66EF4EC30
:104B300003F0E552E552E552E552060EE66E73ECDF
:104B400001F0E552010807E1B8EC03F049EC21F06F
:104B5000D8EC08F00DD0050EE66E73EC01F0E552CE
:104B6000010805E195EC21F0D8EC08F001D032D72E
:104B7000040EE15C02E2E16AE552E16EE552E7CF44
:104B8000D9FF1200D9CFE6FFE1CFD9FFE652DF6AA5
:104B9000DF6ADFCF14F0FE0EDBCFF6FFF76AF6BE5A
:104BA000F768290EF702F3CFF7FFF602F3CFF6FF0F
:104BB000F450F726560EF626780EF7220800F55028
:104BC000E76E1418E8AE02D0E73402D0E750145C68
:104BD00001E39CD0010EE66EFE0EDBCF14F0156AE9
:104BE00014BE1568290E1502F3CF15F01402F3CF89
:104BF00014F0F4501526560E1426780E1522DF50A8
:104C0000E824020F166E176A16BE17681450162491
:104C1000F66E15501720F76E0800F550E66EFE0E82
:104C2000DBCF18F0196A18BE1968290E1902F3CFE4
:104C300019F01802F3CF18F0F4501926560E182662
:104C4000780E1922DF50E824010F1A6E1B6A1ABE73
:104C50001B6818501A24F66E19501B20F76E0800B6
:104C6000F550E66ED3EC02F0E552E552E552010E46
:104C7000E66EFE0EDBCF14F0156A14BE1568290E21
:104C80001502F3CF15F01402F3CF14F0F4501526EB
:104C9000560E1426780E1522DF50E824020F166EE9
:104CA000176A16BE176814501624F66E1550172092
:104CB000F76E0800F550E66EFE0EDBCF18F0196AAD
:104CC00018BE1968290E1902F3CF19F01802F3CF94
:104CD00018F0F4501926560E1826780E1922DF50B7
:104CE000E824010F1A6E1B6A1ABE1B6818501A249A
:104CF000F66E19501B20F76E0800F528E66ED3EC0F
:104D000002F0E552E552E552DF2A43D7E552E5527B
:104D1000E7CFD9FF1200D650E66EE66A47EC3DF0C9
:104D2000E552E552C80EE66E28EC00F0E552146E2E
:104D30000201E251E76E1418E8AE02D0E73402D067
:104D4000E750145C08E2E2C2E6FFC80EE66E38ECFB
:104D500000F0E552E5520A0E0201E76EE219E8AEF4
:104D600002D0E23503D0E750D880E25502E3E235C5
:104D700001E3E26B040E7A6F100E7B6F02016C6B25
:104D80006D6BA00E6E6F400E6F6F706B716B700E5F
:104D9000726F410E736F646B656B666B676B686BEC
:104DA000696B6A6B6B6B0201BE6BBF6B010EBD6FF3
:104DB000BC6F030EE76EE219E8AE02D0E73402D012
:104DC000E750E25D05E2F00ED96F040E7C6F13D060
:104DD000070EE76EE219E8AE02D0E73402D0E750E2
:104DE000E25D05E2E00ED96F030E7C6F04D0C00EC9
:104DF000D96F020E7C6FE2C2E9FFEA6AE9BEEA6897
:104E0000CF0EE926020EEA22EFCF60F0010EE66E29
:104E100070C207F071C208F072C209F073C20AF0E2
:104E2000F2EC3AF00950E66E6CC207F06DC208F081
:104E30006EC209F06FC20AF0F2EC3AF00950E66E69
:104E4000D3EC02F0E552E552E552D90EE66E020EC1
:104E5000E66E7BC2E6FF7AC2E6FFF4EC03F0E552B1
:104E6000E552E552E5520201E36BE2C2E6FF8ADE5B
:104E7000E55212000201E26BB8EC03F0E66AE66A62
:104E80007A0EE66E440EE66E97EC01F0E552E552BE
:104E9000E552E552090E0201C36FC46BC16BC26BD0
:104EA000BD6B1200D9CFE6FFE1CFD9FFE652DF6A32
:104EB000FE0EDBCF14F002017A51E76E1418E8AE53
:104EC00002D0E73402D0E750145C46E3FE0EDBCF9D
:104ED00015F07A517C25E76E1518E8AE02D0E7345C
:104EE00002D0E750155C38E2FD0EDB507B5D34E10B
:104EF000DEC20CF0DFC20DF0E0C20EF0E1C20FF036
:104F000064C207F065C208F066C209F067C20AF021
:104F100049EC39F007C064F208C065F209C066F2D6
:104F20000AC067F20C6A0D6A800E0E6EBF0E0F6E1D
:104F300068C207F069C208F06AC209F06BC20AF0E1
:104F400032EC3AF007C068F208C069F209C06AF2B0
:104F50000AC06BF2020EECD2FD0EDBCF14F0010E94
:104F6000E76E1418E8AE02D0E73402D0E750145CC4
:104F70001AE20C6A0D6A800E0E6EBF0E0F6E68C2CA
:104F800007F069C208F06AC209F06BC20AF032EC9D
:104F90003AF007C068F208C069F209C06AF20AC0B4
:104FA0006BF2010EC5D2FD0EDBCF14F0010EE76EE1
:104FB0001418E8AE02D0E73402D0E750145C1AE2CD
:104FC0000C6A0D6A800E0E6EBF0E0F6E68C207F07F
:104FD00069C208F06AC209F06BC20AF032EC3AF01A
:104FE00007C068F208C069F209C06AF20AC06BF231
:104FF000010E9ED2FE0EDBCF14F00A0EE76E1418DF
:10500000E8AE02D0143403D0E750D88014540DE336
:10501000FE0EDBCF15F0010EE76E1518E8AE02D0DC
:10502000E73402D0E750155C1AE20C6A0D6A800E74
:105030000E6EBF0E0F6E64C207F065C208F066C246
:1050400009F067C20AF032EC3AF007C064F208C017
:1050500065F209C066F20AC067F2010E69D2DF6A22
:10506000DFCF14F0E2C2F6FFF76AF6BEF768290E4A
:10507000F702F3CFF7FFF602F3CFF6FFF450F7266F
:10508000560EF626780EF7220800F550E76E141833
:10509000E8AE02D0E73402D0E750145C01E346D218
:1050A000E2C214F0156A14BE1568290E1502F3CF7A
:1050B00015F01402F3CF14F0F4501526560E1426F2
:1050C000780E1522DF50E824010F166E176A16BEFF
:1050D000176814501624F66E15501720F76E080046
:1050E000F550F36EFE0EDB50F35C01E0E5D0E2C25A
:1050F00018F0196A18BE1968290E1902F3CF19F0B1
:105100001802F3CF18F0F4501926560E1826780E10
:105110001922DF50E824020F1A6E1B6A1ABE1B68A0
:1051200018501A24F66E19501B20F76E0800F5501F
:10513000F36EFD0EDB50F35C01E0BED0FD0EDBCF65
:10514000E6FFFE0EDBCFE6FF4CEC02F0E552E55247
:10515000010801E0B1D00C6A0D6A0E6A0F6A64C2E0
:1051600007F065C208F066C209F067C20AF020ECD9
:105170003BF0010A19E10C6A0D6A800E0E6EBF0E3B
:105180000F6E64C207F065C208F066C209F067C21C
:105190000AF032EC3AF007C064F208C065F209C0C8
:1051A00066F20AC067F218D00C6A0D6A800E0E6EA5
:1051B000BF0E0F6E68C207F069C208F06AC209F03C
:1051C0006BC20AF032EC3AF007C068F208C069F22C
:1051D00009C06AF20AC06BF24EEC3DF0F3CF18F052
:1051E000F4CF19F0050E0D6E0E6A18C008F019C044
:1051F00009F09FEC3AF004C018F005C019F00A0E4F
:105200000D6E0E6A18C008F019C009F09FEC3AF054
:1052100008C018F009C019F018C008F019C009F04A
:1052200035EC39F007C014F008C015F009C016F0CD
:105230000AC017F014C00CF015C00DF016C00EF027
:1052400017C00FF064C207F065C208F066C209F02B
:1052500067C20AF048EC39F007C064F208C065F292
:1052600009C066F20AC067F2E66AFD0EDBCFE6FF10
:10527000FE0EDBCFE6FFD3EC02F0E552E552E5523D
:10528000E66AFD0EDBCFE6FFFE0EDB28E66ED3EC12
:1052900002F0E552E552E5520201E32BE66AE66AC6
:1052A000C80EE66E420EE66E97EC01F0E552E5524E
:1052B000E552E552030E3CD1E2C214F0156A14BE69
:1052C0001568290E1502F3CF15F01402F3CF14F070
:1052D000F4501526560E1426780E1522DF50E824B9
:1052E000010F166E176A16BE176814501624F66E54
:1052F00015501720F76E0800F528F36EFE0EDB50F0
:10530000F35C01E011D1E2C218F0196A18BE196805
:10531000290E1902F3CF19F01802F3CF18F0F45048
:105320001926560E1826780E1922DF50E824020F8F
:105330001A6E1B6A1ABE1B6818501A24F66E195092
:105340001B20F76E0800F550F36EFD0EDB50F35C8A
:1053500001E0EAD0FD0EDBCFE6FFFE0EDBCFE6FF7D
:105360004CEC02F0E552E552010801E0DDD00C6A98
:105370000D6A0E6A0F6A64C207F065C208F066C261
:1053800009F067C20AF029EC3BF0010A19E10C6A46
:105390000D6A800E0E6EBF0E0F6E64C207F065C2FE
:1053A00008F066C209F067C20AF032EC3AF007C0B2
:1053B00064F208C065F209C066F20AC067F218D04C
:1053C0000C6A0D6A800E0E6EBF0E0F6E68C207F07B
:1053D00069C208F06AC209F06BC20AF032EC3AF016
:1053E00007C068F208C069F209C06AF20AC06BF22D
:1053F0000C6A0D6A800E0E6EBF0E0F6E64C207F04F
:1054000065C208F066C209F067C20AF032EC3AF0F1
:1054100007C014F008C015F009C016F00AC017F054
:1054200014C0E6FF15C0E6FF16C0E6FF17C0E6FF92
:105430004EEC3DF0E552E7CF17F0E552E7CF16F01E
:10544000E552E7CF15F0E552E7CF14F0F3CF1CF0AB
:10545000F4CF1DF0050E0D6E0E6A1CC008F01DC0C5
:1054600009F09FEC3AF004C01CF005C01DF00A0ED4
:105470000D6E0E6A1CC008F01DC009F09FEC3AF0DA
:1054800008C01CF009C01DF01CC008F01DC009F0C8
:1054900035EC39F007C018F008C019F009C01AF04F
:1054A0000AC01BF018C00CF019C00DF01AC00EF0A5
:1054B0001BC00FF014C007F015C008F016C009F0AB
:1054C00017C00AF048EC39F007C064F208C065F272
:1054D00009C066F20AC067F2E66AFD0EDBCFE6FF9E
:1054E000FE0EDBCFE6FFD3EC02F0E552E552E552CB
:1054F000E66AFD0EDBCFE6FFFE0EDB04E66ED3ECC4
:1055000002F0E552E552E5520201E32BE66AE66A53
:10551000C80EE66E420EE66E97EC01F0E552E552DB
:10552000E552E552030E04D0DF2A9AD5000E00D0D2
:10553000E552E552E7CFD9FF12000C6A0D6A800EE2
:105540000E6E410E0F6E70C207F071C208F072C28B
:1055500009F073C20AF020EC3BF0010A03E18ADC97
:10556000010E02D0000E00D01200E2C2F6FFF76A70
:10557000F6BEF768290EF702F3CFF7FFF602F3CF76
:10558000F6FFF450F726560EF626780EF72208009E
:10559000F5500201E35D13E1E22BB8EC03F08BEC74
:1055A00026F0E66AE66A7A0EE66E440EE66E97EC40
:1055B00001F0E552E552E552E552010E02D0000E2F
:1055C00000D01200030EE66E73EC01F0E552000904
:1055D00021E1040EE66E73EC01F0E55200091AE1D8
:1055E000CD0E0C6ECC0E0D6E8C0E0E6E3F0E0F6E31
:1055F000DEC207F0DFC208F0E0C209F0E1C20AF043
:10560000DFEC39F007C0DEF208C0DFF209C0E0F2DB
:105610000AC0E1F268C20CF069C20DF06AC20EF075
:105620006BC20FF070C207F071C208F072C209F0CD
:1056300073C20AF049EC39F0F2EC3AF00950E66E28
:1056400064C20CF065C20DF066C20EF067C20FF0C6
:105650006CC207F06DC208F06EC209F06FC20AF0AA
:1056600049EC39F0F2EC3AF00950E66E1BDCE552F9
:10567000E552000901E0CED7E66A70C207F071C2B8
:1056800008F072C209F073C20AF0F2EC3AF0095065
:10569000E66E6CC207F06DC208F06EC209F06FC210
:1056A0000AF0F2EC3AF00950E66ED3EC02F0E55263
:1056B000E552E55264C20CF065C20DF066C20EF010
:1056C00067C20FF06CC207F06DC208F06EC209F03D
:1056D0006FC20AF049EC39F007C06CF208C06DF2F5
:1056E00009C06EF20AC06FF268C20CF069C20DF018
:1056F0006AC20EF06BC20FF070C207F071C208F000
:1057000072C209F073C20AF049EC39F007C070F2B6
:1057100008C071F209C072F20AC073F20C6A0D6A15
:10572000800E0E6E3F0E0F6E68C207F069C208F061
:105730006AC209F06BC20AF020EC3BF0010A07E1F3
:105740000201686B696B800E6A6F3F0E6B6F0C6AAB
:105750000D6A800E0E6EBF0E0F6E68C207F069C232
:1057600008F06AC209F06BC20AF029EC3BF0010AAA
:1057700007E10201686B696B800E6A6FBF0E6B6F89
:105780000C6A0D6A0E6A400E0F6E64C207F065C2A5
:1057900008F066C209F067C20AF020EC3BF0010A8B
:1057A00006E10201686B696B6A6B400E6B6F0C6AF5
:1057B0000D6A0E6AC00E0F6E64C207F065C208F073
:1057C00066C209F067C20AF029EC3BF0010A06E163
:1057D0000201686B696B6A6BC00E6B6FC6DE0009F5
:1057E00022E1ABDE00091FE1010EE66E70C207F098
:1057F00071C208F072C209F073C20AF0F2EC3AF01A
:105800000950E66E6CC207F06DC208F06EC209F076
:105810006FC20AF0F2EC3AF00950E66ED3EC02F0F7
:10582000E552E552E55212000201BD0501E01CD22D
:10583000040EE66E73EC01F0E552010801E0DCD0E5
:105840000201BF5101E0D8D00B0ED8807C55E76E25
:105850007A19E8AE02D0E73402D0E7507A5D01E36E
:10586000CBD00C6A0D6A0E6A0F6A64C207F065C27B
:1058700008F066C209F067C20AF019EC3BF0010AB1
:105880006DE10C6A0D6A0E6A0F6A68C207F069C2A0
:1058900008F06AC209F06BC20AF019EC3BF0010A89
:1058A0005DE1E66A70C207F071C208F072C209F0E9
:1058B00073C20AF0F2EC3AF00950E66E6CC207F0DF
:1058C0006DC208F06EC209F06FC20AF00C6A0D6A70
:1058D000800E0E6E3F0E0F6E49EC39F06CC214F064
:1058E0006DC215F06EC216F06FC217F007C06CF2F1
:1058F00008C06DF209C06EF20AC06FF214C007F062
:1059000015C008F016C009F017C00AF0F2EC3AF022
:105910000950E66ED3EC02F0E552E552E552010E75
:10592000E66E70C207F071C208F072C209F073C26D
:105930000AF0F2EC3AF00950E66E6CC207F06DC264
:1059400008F06EC209F06FC20AF0F2EC3AF00950AA
:10595000E66ED3EC02F0E552E552E552D90EE66E62
:10596000020EE66E7BC2E6FF7AC2E6FF50EC05F05F
:10597000E552E552E552E552D90EE66E020EE66EAC
:105980007BC2E6FF02017A2B7AC2E6FFF4EC03F059
:10599000E552E552E552E552CD0E0C6ECC0E0D6E81
:1059A0000E6E3E0E0F6EDEC207F0DFC208F0E0C2E0
:1059B00009F0E1C20AF029EC3BF0010A19E1CD0E31
:1059C0000C6ECC0E0D6E0E6E3D0E0F6EDEC207F02D
:1059D000DFC208F0E0C209F0E1C20AF049EC39F098
:1059E00007C0DEF208C0DFF209C0E0F20AC0E1F24F
:1059F0000201010EBF6F09D0040EE66E73EC01F0D8
:105A0000E552000902E10201BF6B030EE66E73EC82
:105A100001F0E552010801E0DBD00201BE5101E0D6
:105A2000D7D0010EE76E7A19E8AE02D07A3503D0EE
:105A3000E750D8807A5501E3CBD00C6A0D6A0E6A24
:105A40000F6A64C207F065C208F066C209F067C257
:105A50000AF019EC3BF0010A6DE10C6A0D6A0E6A5E
:105A60000F6A68C207F069C208F06AC209F06BC227
:105A70000AF019EC3BF0010A5DE1E66A70C207F03A
:105A800071C208F072C209F073C20AF0F2EC3AF087
:105A90000950E66E6CC207F06DC208F06EC209F0E4
:105AA0006FC20AF00C6A0D6A800E0E6E3F0E0F6E0A
:105AB00048EC39F06CC214F06DC215F06EC216F0ED
:105AC0006FC217F007C06CF208C06DF209C06EF229
