:020000040000FA
:060000008FEF15F0120065
:020006001200E6
:0600080043EF14F01200AA
:02000E000100EF
:06001800E2EF13F01200FC
:02001E000200DE
:100020003A2B000000010000B90000000E000000A3
:08003000C30100000200000002
:08003800D9CFE6FFE1CFD9FFAB
:10004000E652800EDF6EFE0EDB06D950FE0FE96E23
:10005000FF0EDA20EA6EDF50EFCFE7FFE75204E051
:10006000E8427F0BE706FCE1DF6EDF500101AF11D4
:10007000AF6FE552E552E7CFD9FF1200D9CFE6FFC7
:10008000E1CFD9FFE652DF6AFE0EDBCFE6FF080EB6
:10009000E552D880E754AFC1E7FF070B04E0E74221
:1000A000E79EE806FCE1E750DF6E010EDF14DF6E2D
:1000B000DF5000D0E552E552E7CFD9FF1200010131
:1000C000AF6B120080B004D0010EE66EB5DFE552D2
:1000D00080B204D0020EE66EAFDFE55280B404D0E9
:1000E000030EE66EA9DFE55280B604D0040EE66E7C
:1000F000A3DFE55280B804D0050EE66E9DDFE55221
:100100001200D9CFE6FFE1CFD9FFE65200C1DFFFF1
:100110008D6ADFCF14F0070EE76E1418E8AE02D038
:10012000143403D0E750D880145412E2080EDF5E76
:10013000100EDF24E96EEA6AE9BEEA68010EE926DC
:10014000010EEA22EF50300B040DF3508B6E0DD0F0
:10015000100EDF24E96EEA6AE9BEEA68010EE926BC
:10016000010EEA22EF50C00B8B6E010EDF5206E04B
:10017000DFCFF3FFE846FE0BF306FCE18A6E00C119
:10018000E9FFEA6AE9BEEA68010EE926010EEA2201
:10019000EF508C6E070E0101E76E0019E8AE02D039
:1001A000003503D0E750D880005503E2010E8D6E74
:1001B00002D0020E8D6E002B100E005D01E1006B6F
:1001C000E552E552E7CFD9FF1200D9CFE6FFE1CFE4
:1001D000D9FF020EE126DF6A010EDB6AFE0EDB06A6
:1001E000FD0EDB06FE0EDB50080804E0FE0EDB50C1
:1001F00009083BE1FD0EDBCF14F0080EE76E141882
:10020000E8AE02D0E73402D0E750145C21E3FD0EE3
:10021000DBCF15F0100EE76E1518E8AE02D0E7340C
:1002200002D0E750155C14E2080E146EFD0EDBCF11
:10023000E7FF1450E75EFD0EE7CFDBFF020E146E02
:10024000FE0EDBCFE7FF1450E726FE0EE7CFDBFF05
:10025000080E146EFE0EDBCFE7FF1450E75EFE0EB5
:10026000E7CFDBFFDE52100EDD6EFE0EDBCFE6FFCA
:10027000070EE552D880E754E76EFE0EE7CFDBFFAE
:10028000DBCF14F0010EDBCFE6FFFD0EDB50E552B5
:10029000E724E96EEA6AE9BEEA68010EE926010E82
:1002A000EA22EF5014C0E7FFE75204E0E8427F0B78
:1002B000E706FCE1DF6E010EDF14DF6EDF50146E27
:1002C000020EE15C03E200D0E16AE552E16E1450F7
:1002D000E552E7CFD9FF1200D9CFE6FFE1CFD9FF32
:1002E000020EE126FE0EDBCF14F0000EE76E1418AE
:1002F000E8AE02D0143403D0E750D880145401E3A0
:10030000C6D0FE0EDBCF15F00B0EE76E1518E8AE6B
:1003100002D0E73402D0E750155C01E3B8D0FD0EFF
:10032000DBCF16F0000EE76E1618E8AE02D01634DA
:1003300003D0E750D880165401E3A9D0FD0EDBCFDF
:1003400017F0110EE76E1718E8AE02D0E73402D0AE
:10035000E750175C01E39BD0800EDF6E010EDB6A75
:10036000FE0EDB06FD0EDB06FE0EDB50080804E089
:10037000FE0EDB50090826E1FD0EDBCF14F0080E5F
:10038000E76E1418E8AE02D0E73402D0E750145CF0
:100390000CE3200EDF6E080E146EFD0EDBCFE7FFC0
:1003A0001450E75EFD0EE7CFDBFF080E146EFE0E65
:1003B000DBCFE7FF1450E75EFE0EE7CFDBFFDE5238
:1003C000100EDD6EFC0EDB50010BE76EFC0EE7CF6E
:1003D000DBFFD950FE0FE96EFF0EDA20EA6EDF5028
:1003E000EFCFE7FFE75204E0E8427F0BE706FCE1CE
:1003F000DF6EFC0EDB0425E1010EDBCFE6FFFD0E18
:10040000DB50E552E724E96EEA6AE9BEEA68010ECC
:10041000E926010EEA22EF50DF10E66E010EDBCF77
:10042000E6FFFD0EDB50E552E724E96EEA6AE9BE1D
:10043000EA68010EE926010EEA22E552E750EF6E66
:1004400026D0DF1C146E010EDBCFE6FFFD0EDB5065
:10045000E552E724E96EEA6AE9BEEA68010EE92698
:10046000010EEA22EF501414E66E010EDBCFE6FF18
:10047000FD0EDB50E552E724E96EEA6AE9BEEA6860
:10048000010EE926010EEA22E552E750EF6E020E58
:10049000E15C02E2E16AE552E16EE552E7CFD9FFA5
:1004A0001200D9CFE6FFE1CFD9FF020EE126010EFF
:1004B000DF6EDFCF14F0110EE76E1418E8AE02D035
:1004C000E73402D0E750145C1EE2DE52010EDD6E0E
:1004D000DBCF14F00B0EE76E1418E8AE02D0E73451
:1004E00002D0E750145C0DE2E66ADFCFE6FF010EB2
:1004F000DBCFE6FFF1DEE552E552E552010EDB2AE5
:10050000E7D7DF2AD6D7020EE15C02E2E16AE552C4
:10051000E16EE552E7CFD9FF1200D9CFE6FFE1CF78
:10052000D9FFE652DF6ADF6ADFCF14F0050EE76E0F
:100530001418E8AE02D0E73402D0E750145C01E3AF
:1005400043D1070ED880DF54146EFB0EDBCFE9FFDA
:10055000FC0EDBCFEAFFEF5014C0E7FFE75204E0E8
:10056000E8427F0BE706FCE1010B010820E1070EE2
:10057000D880DF54146EFB0EDBCFE9FFFC0EDBCF1F
:10058000EAFFEF5014C0E7FFE75204E0E8427F0BB8
:10059000E706FCE1010BE66EFD0EDBCFE6FFFE0E8B
:1005A000DB50DF24E66E98DEE552E552E552070E99
:1005B000D880DF54146E010EE76EFB0EDBCFE9FF2F
:1005C000FC0EDBCFEAFFE750E926000EEA22EF50EF
:1005D00014C0E7FFE75204E0E8427F0BE706FCE1C6
:1005E000010B010826E1070ED880DF54146E010EBE
:1005F000E76EFB0EDBCFE9FFFC0EDBCFEAFFE75037
:10060000E926000EEA22EF5014C0E7FFE75204E0AB
:10061000E8427F0BE706FCE1010BE66EFD0EDB28EE
:10062000E66EFE0EDB50DF24E66E56DEE552E55246
:10063000E552070ED880DF54146E020EE76EFB0EF3
:10064000DBCFE9FFFC0EDBCFEAFFE750E926000E27
:10065000EA22EF5014C0E7FFE75204E0E8427F0BC4
:10066000E706FCE1010B010827E1070ED880DF5403
:10067000146E020EE76EFB0EDBCFE9FFFC0EDBCF44
:10068000EAFFE750E926000EEA22EF5014C0E7FF28
:10069000E75204E0E8427F0BE706FCE1010BE66E5F
:1006A000FD0EDB50020FE66EFE0EDB50DF24E66E21
:1006B00013DEE552E552E552070ED880DF54146E82
:1006C000030EE76EFB0EDBCFE9FFFC0EDBCFEAFF8C
:1006D000E750E926000EEA22EF5014C0E7FFE75288
:1006E00004E0E8427F0BE706FCE1010B010827E18B
:1006F000070ED880DF54146E030EE76EFB0EDBCFBF
:10070000E9FFFC0EDBCFEAFFE750E926000EEA2204
:10071000EF5014C0E7FFE75204E0E8427F0BE70622
:10072000FCE1010BE66EFD0EDB50030FE66EFE0EE4
:10073000DB50DF24E66ED0DDE552E552E552070ED0
:10074000D880DF54146E040EE76EFB0EDBCFE9FF9A
:10075000FC0EDBCFEAFFE750E926000EEA22EF505D
:1007600014C0E7FFE75204E0E8427F0BE706FCE134
:10077000010B010827E1070ED880DF54146E040E28
:10078000E76EFB0EDBCFE9FFFC0EDBCFEAFFE750A5
:10079000E926000EEA22EF5014C0E7FFE75204E01A
:1007A000E8427F0BE706FCE1010BE66EFD0EDB5035
:1007B000040FE66EFE0EDB50DF24E66E8DDDE552A3
:1007C000E552E552DF2AB0D6E552E552E7CFD9FF30
:1007D0001200D9CFE6FFE1CFD9FFE652DF6ADF6A28
:1007E000DFCF14F0050EE76E1418E8AE02D0E73440
:1007F00002D0E750145C01E3C7D0070ED880DF5465
:10080000146EFB0EDBCFE9FFFC0EDBCFEAFFEF50EF
:1008100014C0E7FFE75204E0E8427F0BE706FCE183
:10082000010B01080CE1E66AFD0EDBCFE6FFFE0ED0
:10083000DB50DF24E66E50DDE552E552E552070E4F
:10084000D880DF54146E010EE76EFB0EDBCFE9FF9C
:10085000FC0EDBCFEAFFE750E926000EEA22EF505C
:1008600014C0E7FFE75204E0E8427F0BE706FCE133
:10087000010B01080CE1E66AFD0EDB28E66EFE0EB8
:10088000DB50DF24E66E28DDE552E552E552070E27
:10089000D880DF54146E020EE76EFB0EDBCFE9FF4B
:1008A000FC0EDBCFEAFFE750E926000EEA22EF500C
:1008B00014C0E7FFE75204E0E8427F0BE706FCE1E3
:1008C000010B01080DE1E66AFD0EDB50020FE66E3A
:1008D000FE0EDB50DF24E66EFFDCE552E552E5520A
:1008E000070ED880DF54146E030EE76EFB0EDBCFCD
:1008F000E9FFFC0EDBCFEAFFE750E926000EEA2213
:10090000EF5014C0E7FFE75204E0E8427F0BE70630
:10091000FCE1010B01080DE1E66AFD0EDB50030F5F
:10092000E66EFE0EDB50DF24E66ED6DCE552E552C5
:10093000E552070ED880DF54146E040EE76EFB0EEE
:10094000DBCFE9FFFC0EDBCFEAFFE750E926000E24
:10095000EA22EF5014C0E7FFE75204E0E8427F0BC1
:10096000E706FCE1010B01080DE1E66AFD0EDB5034
:10097000040FE66EFE0EDB50DF24E66EADDCE552C2
:10098000E552E552DF2A2CD7E552E552E7CFD9FFF1
:100990001200D59CD59AD598D596D594D592D59058
:1009A000FE0ED76E700ED66ED08EF28CF28EF28A5C
:1009B000F194F294D58E1200D9CFE6FFE1CFD9FFA2
:1009C000040EE1260F0EC16E9268936A010E946EBA
:1009D000956A966ADEDF010EF36E020EF3CFDBFF3F
:1009E000DBCF14F0110EE76E1418E8AE02D0E73436
:1009F00002D0E750145C26E2DE52010EDD6EDBCF42
:100A000014F00B0EE76E1418E8AE02D0E73402D0F3
:100A1000E750145C14E2010EE66E020EDBCFE6FF37
:100A2000010EDBCFE6FF58DCE552E552E5521E0E23
:100A3000E66E6FEC15F0E552010EDB2AE0D7020EF0
:100A4000DB2ACED7010EF36E020EF3CFDBFFDBCF36
:100A500014F0110EE76E1418E8AE02D0E73402D09D
:100A6000E750145C25E2DE52010EDD6EDBCF14F0A0
:100A70000B0EE76E1418E8AE02D0E73402D0E75050
:100A8000145C13E2E66A020EDBCFE6FF010EDBCF59
:100A9000E6FF22DCE552E552E5521E0EE66E6FECF3
:100AA00015F0E552010EDB2AE1D7020EDB2ACFD783
:100AB000030EDB6ADBCF14F0460EE76E1418E8AEC7
:100AC00002D0E73402D0E750145C01E3FCD1190EE8
:100AD000E66E010EE66E040EE66E030EDBCFE6FF59
:100AE0000B0EE552D880E754E66E73DEE552E55210
:100AF000E552E552190EE66E010EE66E040EE66E44
:100B0000030EDBCFE6FF0A0EE552D880E754E66E0F
:100B100004DDE552E552E552E5521E0EE66E010E89
:100B2000E66E040EE66E030EDBCFE6FF100EE55216
:100B3000D880E754E66E4DDEE552E552E552E552C7
:100B40001E0EE66E010EE66E040EE66E030EDBCFA1
:100B5000E6FF0F0EE552D880E754E66EDEDCE55284
:100B6000E552E552E552230EE66E010EE66E040EE6
:100B7000E66E030EDBCFE6FF150EE552D880E75494
:100B8000E66E27DEE552E552E552E552230EE66EAB
:100B9000010EE66E040EE66E030EDBCFE6FF140ECA
:100BA000E552D880E754E66EB8DCE552E552E552EE
:100BB000E552280EE66E010EE66E040EE66E030E9A
:100BC000DBCFE6FF1A0EE552D880E754E66E01DE71
:100BD000E552E552E552E552280EE66E010EE66E4C
:100BE000040EE66E030EDBCFE6FF190EE552D88049
:100BF000E754E66E92DCE552E552E552E5522D0EE1
:100C0000E66E010EE66E040EE66E030EDBCFE6FF27
:100C10001F0EE552D880E754E66EDBDDE552E55263
:100C2000E552E5522D0EE66E010EE66E040EE66EFE
:100C3000030EDBCFE6FF1E0EE552D880E754E66ECA
:100C40006CDCE552E552E552E552320EE66E010EDD
:100C5000E66E040EE66E030EDBCFE6FF240EE552D1
:100C6000D880E754E66EB5DDE552E552E552E5522F
:100C7000320EE66E010EE66E040EE66E030EDBCF5C
:100C8000E6FF230EE552D880E754E66E46DCE552D7
:100C9000E552E552E552370EE66E010EE66E090E9C
:100CA000E66E030EDBCFE6FF240EE552D880E75454
:100CB000E66E8FDDE552E552E552E552370EE66EFF
:100CC000010EE66E090EE66E030EDBCFE6FF230E85
:100CD000E552D880E754E66E20DCE552E552E55255
:100CE000E5523C0EE66E010EE66E090EE66E030E50
:100CF000DBCFE6FF290EE552D880E754E66E69DDCA
:100D0000E552E552E552E5523C0EE66E010EE66E06
:100D1000090EE66E030EDBCFE6FF280EE552D88003
:100D2000E754E66E8DEC02F0E552E552E552E552ED
:100D3000410EE66E010EE66E090EE66E030EDBCF87
:100D4000E6FF2E0EE552D880E754E66E42DDE5520E
:100D5000E552E552E552410EE66E010EE66E090ED1
:100D6000E66E030EDBCFE6FF2D0EE552D880E7548A
:100D7000E66E8DEC02F0E552E552E552E552280EA2
:100D8000E66E010EE66E090EE66E030EDBCFE6FFA1
:100D9000330EE552D880E754E66E1BDDE552E5528E
:100DA000E552E552280EE66E010EE66E090EE66E7D
:100DB000030EDBCFE6FF320EE552D880E754E66E35
:100DC0008DEC02F0E552E552E552E552460EE66E34
:100DD000010EE66E090EE66E030EDBCFE6FF380E5F
:100DE000E552D880E754E66EF4DCE552E552E55270
:100DF000E552460EE66E010EE66E090EE66E030E35
:100E0000DBCFE6FF370EE552D880E754E66E8DEC77
:100E100002F0E552E552E552E5523C0EE66E010E57
:100E2000E66E090EE66E030EDBCFE6FF3D0EE552E1
:100E3000D880E754E66ECDDCE552E552E552E55246
:100E40003C0EE66E010EE66E090EE66E030EDBCF7B
:100E5000E6FF3C0EE552D880E754E66E8DEC02F0DA
:100E6000E552E552E552E5524B0EE66E010EE66E96
:100E7000090EE66E030EDBCFE6FF420EE552D88088
:100E8000E754E66EA6DCE552E552E552E5524B0E1C
:100E9000E66E010EE66E090EE66E030EDBCFE6FF90
:100EA000410EE552D880E754E66E8DEC02F0E55233
:100EB000E552E552E5520A0EE66E42EC15F0E552B7
:100EC000030EDB2AF7D5040EE15C02E2E16AE5528B
:100ED000E16EE552E7CFD9FF1200D9CFE6FFE1CFAF
:100EE000D9FF030EE126DF6A010EDB6A020EDB6A20
:100EF0005F0EE66E010EE66E0A0EE66E090EE66EF7
:100F00008DEC02F0E552E552E552E552640EE66ED4
:100F1000010EE66E0A0EE66E010EE66E8DEC02F034
:100F2000E552E552E552E552DF5002E0E8EF10F0FD
:100F3000020EDB5001E0B6D2DE52040EDD6E010E71
:100F4000DBCF14F0150EE76E1418E8AE02D0E734CC
:100F500002D0E750145C01E34ED14B0EE66E010E59
:100F6000E66E040EE66E010EDBCFE6FF060EE552DE
:100F7000D880E754E66E2DDCE552E552E552E552A5
:100F80004B0EE66E010EE66E040EE66E010EDBCF32
:100F9000E6FF050EE552D880E754E66E8DEC02F0D0
:100FA000E552E552E552E5522D0EE66E010EE66E73
:100FB000040EE66E010EDBCFE6FF0B0EE552D88085
:100FC000E754E66EE9EC03F0E552E552E552E552EE
:100FD0002D0EE66E010EE66E040EE66E010EDBCF00
:100FE000E6FF0A0EE552D880E754E66E8DEC02F07B
:100FF000E552E552E552E5521E0EE66E010EE66E32
:10100000040EE66E010EDBCFE6FF110EE552D8802E
:10101000E754E66EE9EC03F0E552E552E552E5529D
:101020001E0EE66E010EE66E040EE66E010EDBCFBE
:10103000E6FF100EE552D880E754E66E8DEC02F024
:10104000E552E552E552E552230EE66E010EE66EDC
:10105000040EE66E010EDBCFE6FF160EE552D880D9
:10106000E754E66EE9EC03F0E552E552E552E5524D
:10107000230EE66E010EE66E040EE66E010EDBCF69
:10108000E6FF150EE552D880E754E66E8DEC02F0CF
:10109000E552E552E552E5523C0EE66E010EE66E73
:1010A000040EE66E010EDBCFE6FF1B0EE552D88084
:1010B000E754E66EE9EC03F0E552E552E552E552FD
:1010C0003C0EE66E010EE66E040EE66E010EDBCF00
:1010D000E6FF1A0EE552D880E754E66E8DEC02F07A
:1010E000E552E552E552E5521E0EE66E42EC15F071
:1010F000E552050EE66E3EEC00F0E55201081EE1F9
:101100005FEC00F062EC00F0050EE66E3EEC00F0E5
:10111000E552000901E101D0F3D751EC02F0010ED4
:10112000DF6E030E146E020EDBCFE7FF1450E726CE
:10113000020EE7CFDBFFDE52160EDD6E040EE66E0A
:101140003EEC00F0E552010807E0030EE66E3EECCF
:1011500000F0E55201084CE1040EE66E3EEC00F0B2
:10116000E552010805E1010EF36E020EF3CFDBFF3D
:10117000030EE66E3EEC00F0E552010804E1020EBB
:10118000F36EF3CFDBFF5FEC00F062EC00F0040ED7
:10119000E66E3EEC00F0E552000908E1030EE66E53
:1011A0003EEC00F0E552000901E101D0ECD751EC32
:1011B00002F0DE52160EDD6E5F0EE66E010EE66E7A
:1011C0000A0EE66E090EE66E8DEC02F0E552E5526F
:1011D000E552E552640EE66E010EE66E0A0EE66E0C
:1011E000010EE66E8DEC02F0E552E552E552E55255
:1011F000010EDB2AA4D6020EDB5001E052D1DE52F2
:10120000140EDD6E010EDBCF14F0030EE76E141822
:10121000E8AE02D0143403D0E750D880145401E370
:1012200040D14B0EE66E010EE66E040EE66E010E28
:10123000DBCFE6FF050EE552D880E754E66EE9EC19
:1012400003F0E552E552E552E5522D0EE66E010E31
:10125000E66E040EE66E010EDBCFE6FF0A0EE552E7
:10126000D880E754E66EE9EC03F0E552E552E5522A
:10127000E5524B0EE66E010EE66E040EE66E010EB2
:10128000DBCFE6FF060EE552D880E754E66E8DEC24
:1012900002F0E552E552E552E5521E0EE66E010EF1
:1012A000E66E040EE66E010EDBCFE6FF100EE55291
:1012B000D880E754E66EE9EC03F0E552E552E552DA
:1012C000E5522D0EE66E010EE66E040EE66E010E80
:1012D000DBCFE6FF0B0EE552D880E754E66E8DECCF
:1012E00002F0E552E552E552E552230EE66E010E9C
:1012F000E66E040EE66E010EDBCFE6FF150EE5523C
:10130000D880E754E66EE9EC03F0E552E552E55289
:10131000E5521E0EE66E010EE66E040EE66E010E3E
:10132000DBCFE6FF110EE552D880E754E66E8DEC78
:1013300002F0E552E552E552E5523C0EE66E010E32
:10134000E66E040EE66E010EDBCFE6FF1A0EE552E6
:10135000D880E754E66EE9EC03F0E552E552E55239
:10136000E552230EE66E010EE66E040EE66E010EE9
:10137000DBCFE6FF160EE552D880E754E66E8DEC23
:1013800002F0E552E552E552E5523C0EE66E010EE2
:10139000E66E040EE66E010EDBCFE6FF1B0EE55295
:1013A000D880E754E66E8DEC02F0E552E552E55246
:1013B000E5521E0EE66E42EC15F0E552050EE66EA5
:1013C0003EEC00F0E552010810E151EC02F0010E94
:1013D000DF6E030E146E020EDBCFE7FF1450E7261C
:1013E000020EE7CFDBFF010EDB6A040EE66E3EEC79
:1013F00000F0E552010807E0030EE66E3EEC00F057
:10140000E55201084BE1040EE66E3EEC00F0E552B9
:10141000010805E1010EF36E020EF3CFDBFF030EB0
:10142000E66E3EEC00F0E552010804E1020EF36EB8
:10143000F3CFDBFF5FEC00F062EC00F0040EE66E31
:101440003EEC00F0E552000908E1030EE66E3EECCA
:1014500000F0E552000901E101D0ECD751EC02F0B7
:10146000010EDB6A5F0EE66E010EE66E0A0EE66E98
:10147000090EE66E8DEC02F0E552E552E552E552BA
:10148000640EE66E010EE66E0A0EE66E010EE66E64
:101490008DEC02F0E552E552E552E552010EDB0615
:1014A000B1D646D5020EDB0401E0F4D2DE52040EC2
:1014B000DD6E010EDBCF14F0160EE76E1418E8AEE9
:1014C00002D0E73402D0E750145C01E367D1500E3C
:1014D000E66E010EE66E040EE66E010EDBCFE6FF51
:1014E000060EE552D880E754E66EE9EC03F0E552CB
:1014F000E552E552E552500EE66E010EE66E040E20
:10150000E66E010EDBCFE6FF050EE552D880E7540C
:10151000E66E8DEC02F0E552E552E552E5523C0EE6
:10152000E66E010EE66E040EE66E010EDBCFE6FF00
:101530000B0EE552D880E754E66EE9EC03F0E55275
:10154000E552E552E5523C0EE66E010EE66E040EE3
:10155000E66E010EDBCFE6FF0A0EE552D880E754B7
:10156000E66E8DEC02F0E552E552E552E552500E82
:10157000E66E010EE66E040EE66E010EDBCFE6FFB0
:101580000F0EE552D880E754E66EE9EC03F0E55221
:10159000E552E552E552500EE66E010EE66E040E7F
:1015A000E66E010EDBCFE6FF0E0EE552D880E75463
:1015B000E66E8DEC02F0E552E552E552E552550E2D
:1015C000E66E010EE66E040EE66E010EDBCFE6FF60
:1015D000140EE552D880E754E66EE9EC03F0E552CC
:1015E000E552E552E552550EE66E010EE66E040E2A
:1015F000E66E010EDBCFE6FF130EE552D880E7540E
:10160000E66E8DEC02F0E552E552E552E552280E09
:10161000E66E010EE66E040EE66E010EDBCFE6FF0F
:10162000170EE552D880E754E66EE9EC03F0E55278
:10163000E552E552E552280EE66E010EE66E040E06
:10164000E66E010EDBCFE6FF160EE552D880E754BA
:10165000E66E8DEC02F0E552E552E552E5524B0E96
:10166000E66E010EE66E040EE66E010EDBCFE6FFBF
:101670001C0EE552D880E754E66EE9EC03F0E55223
:10168000E552E552E5524B0EE66E010EE66E040E93
:10169000E66E010EDBCFE6FF1B0EE552D880E75465
:1016A000E66E8DEC02F0E552E552E552E5521E0E73
:1016B000E66E42EC15F0E552050EE66E3EEC00F0EB
:1016C000E552010811E151EC02F0010EDF6E030E4C
:1016D000146E020EDBCFE7FF1450E726020EE7CFB1
:1016E000DBFFDE52170EDD6E040EE66E3EEC00F000
:1016F000E552010807E0030EE66E3EEC00F0E5520D
:10170000010849E1040EE66E3EEC00F0E5520108E6
:1017100004E1020EF36EF3CFDBFF030EE66E3EEC48
:1017200000F0E552010802E1020EDB6A5FEC00F016
:1017300062EC00F0040EE66E3EEC00F0E5520009AB
:1017400008E1030EE66E3EEC00F0E552000901E10F
:1017500001D0ECD751EC02F0DE52170EDD6E5F0EB9
:10176000E66E010EE66E0A0EE66E090EE66E8DEC72
:1017700002F0E552E552E552E552640EE66E010EC6
:10178000E66E0A0EE66E010EE66E8DEC02F0E55294
:10179000E552E552E552010EDB2A8BD6020EDB0440
:1017A00001E077D1DE52150EDD6E010EDBCF14F0B5
:1017B000030EE76E1418E8AE02D0143403D0E750DD
:1017C000D880145401E365D1500EE66E010EE66E2A
:1017D000040EE66E010EDBCFE6FF050EE552D88063
:1017E000E754E66EE9EC03F0E552E552E552E552C6
:1017F0003C0EE66E010EE66E040EE66E010EDBCFC9
:10180000E6FF0A0EE552D880E754E66EE9EC03F0F5
:10181000E552E552E552E552500EE66E010EE66ED7
:10182000040EE66E010EDBCFE6FF060EE552D88011
:10183000E754E66E8DEC02F0E552E552E552E552D2
:10184000500EE66E010EE66E040EE66E010EDBCF64
:10185000E6FF0E0EE552D880E754E66EE9EC03F0A1
:10186000E552E552E552E5523C0EE66E010EE66E9B
:10187000040EE66E010EDBCFE6FF0B0EE552D880BC
:10188000E754E66E8DEC02F0E552E552E552E55282
:10189000550EE66E010EE66E040EE66E010EDBCF0F
:1018A000E6FF130EE552D880E754E66EE9EC03F04C
:1018B000E552E552E552E552500EE66E010EE66E37
:1018C000040EE66E010EDBCFE6FF0F0EE552D88068
:1018D000E754E66E8DEC02F0E552E552E552E55232
:1018E000280EE66E010EE66E040EE66E010EDBCFEC
:1018F000E6FF160EE552D880E754E66EE9EC03F0F9
:10190000E552E552E552E552550EE66E010EE66EE1
:10191000040EE66E010EDBCFE6FF140EE552D88012
:10192000E754E66E8DEC02F0E552E552E552E552E1
:10193000280EE66E010EE66E040EE66E010EDBCF9B
:10194000E6FF170EE552D880E754E66E8DEC02F004
:10195000E552E552E552E5524B0EE66E010EE66E9B
:10196000040EE66E010EDBCFE6FF1B0EE552D880BB
:10197000E754E66EE9EC03F0E552E552E552E55234
:101980004B0EE66E010EE66E040EE66E010EDBCF28
:10199000E6FF1C0EE552D880E754E66E8DEC02F0AF
:1019A000E552E552E552E5521E0EE66E42EC15F0A8
:1019B000E552050EE66E3EEC00F0E552010810E13E
:1019C00051EC02F0010EDF6E030E146E020EDBCF3F
:1019D000E7FF1450E726020EE7CFDBFF010EDB6ABC
:1019E000040EE66E3EEC00F0E552010807E0030E3F
:1019F000E66E3EEC00F0E552010848E1040EE66EAA
:101A00003EEC00F0E552010804E1020EF36EF3CF64
:101A1000DBFF030EE66E3EEC00F0E552010802E14A
:101A2000020EDB6A5FEC00F062EC00F0040EE66E82
:101A30003EEC00F0E552000908E1030EE66E3EECD4
:101A400000F0E552000901E101D0ECD751EC02F0C1
:101A5000010EDB6A5F0EE66E010EE66E0A0EE66EA2
:101A6000090EE66E8DEC02F0E552E552E552E552C4
:101A7000640EE66E010EE66E0A0EE66E010EE66E6E
:101A80008DEC02F0E552E552E552E552010EDB061F
:101A90008CD608D5020EDB50020801E097D3DE5247
:101AA000040EDD6E010EDBCF14F0230EE76E14186A
:101AB000E8AE02D0E73402D0E750145C01E3B8D1BD
:101AC0001E0EE66E010EE66E040EE66E010EDBCF14
:101AD000E6FF060EE552D880E754E66EE9EC03F027
:101AE000E552E552E552E5521E0EE66E010EE66E37
:101AF000040EE66E010EDBCFE6FF050EE552D88040
:101B0000E754E66E8DEC02F0E552E552E552E552FF
:101B1000550EE66E010EE66E040EE66E010EDBCF8C
:101B2000E6FF0B0EE552D880E754E66EE9EC03F0D1
:101B3000E552E552E552E552550EE66E010EE66EAF
:101B4000040EE66E010EDBCFE6FF0A0EE552D880EA
:101B5000E754E66E8DEC02F0E552E552E552E552AF
:101B6000230EE66E010EE66E040EE66E010EDBCF6E
:101B7000E6FF0F0EE552D880E754E66EE9EC03F07D
:101B8000E552E552E552E552230EE66E010EE66E91
:101B9000040EE66E010EDBCFE6FF0E0EE552D88096
:101BA000E754E66E8DEC02F0E552E552E552E5525F
:101BB0001E0EE66E010EE66E040EE66E010EDBCF23
:101BC000E6FF140EE552D880E754E66EE9EC03F028
:101BD000E552E552E552E5521E0EE66E010EE66E46
:101BE000040EE66E010EDBCFE6FF130EE552D88041
:101BF000E754E66E8DEC02F0E552E552E552E5520F
:101C00002D0EE66E010EE66E040EE66E010EDBCFC3
:101C1000E6FF190EE552D880E754E66EE9EC03F0D2
:101C2000E552E552E552E5522D0EE66E010EE66EE6
:101C3000040EE66E010EDBCFE6FF180EE552D880EB
:101C4000E754E66E8DEC02F0E552E552E552E552BE
:101C50005A0EE66E010EE66E040EE66E010EDBCF46
:101C6000E6FF1F0EE552D880E754E66EE9EC03F07C
:101C7000E552E552E552E5525A0EE66E010EE66E69
:101C8000040EE66E010EDBCFE6FF1E0EE552D88095
:101C9000E754E66E8DEC02F0E552E552E552E5526E
:101CA000280EE66E010EE66E040EE66E010EDBCF28
:101CB000E6FF230EE552D880E754E66EE9EC03F028
:101CC000E552E552E552E552280EE66E010EE66E4B
:101CD000040EE66E010EDBCFE6FF220EE552D88041
:101CE000E754E66E8DEC02F0E552E552E552E5521E
:101CF000370EE66E010EE66E040EE66E010EDBCFC9
:101D0000E6FF280EE552D880E754E66EE9EC03F0D2
:101D1000E552E552E552E552370EE66E010EE66EEB
:101D2000040EE66E010EDBCFE6FF270EE552D880EB
:101D3000E754E66E8DEC02F0E552E552E552E552CD
:101D40001E0EE66E42EC15F0E552050EE66E3EEC18
:101D500000F0E552010811E151EC02F0010EDF6ED6
:101D6000030E146E020EDBCFE7FF1450E726020EBF
:101D7000E7CFDBFFDE52280EDD6E040EE66E3EEC92
:101D800000F0E552010807E0030EE66E3EEC00F0BD
:101D9000E55201084AE1040EE66E3EEC00F0E55221
:101DA000010802E1020EDB6A030EE66E3EEC00F073
:101DB000E552010805E1010EF36E020EF3CFDBFFE1
:101DC0005FEC00F062EC00F0040EE66E3EEC00F01A
:101DD000E552000908E1030EE66E3EEC00F0E55224
:101DE000000901E101D0ECD751EC02F0DE52280EDF
:101DF000DD6E5F0EE66E010EE66E0A0EE66E090EF1
:101E0000E66E8DEC02F0E552E552E552E552640EC5
:101E1000E66E010EE66E0A0EE66E010EE66E8DECC3
:101E200002F0E552E552E552E552010EDB2A3AD6C0
:101E3000020EDB50020801E0C8D1DE52220EDD6E38
:101E4000010EDBCF14F0030EE76E1418E8AE02D0DB
:101E5000143403D0E750D880145401E3B6D11E0ED9
:101E6000E66E010EE66E040EE66E010EDBCFE6FFB7
:101E7000050EE552D880E754E66EE9EC03F0E55232
:101E8000E552E552E552550EE66E010EE66E040E81
:101E9000E66E010EDBCFE6FF0A0EE552D880E7546E
:101EA000E66EE9EC03F0E552E552E552E5521E0E0E
:101EB000E66E010EE66E040EE66E010EDBCFE6FF67
:101EC000060EE552D880E754E66E8DEC02F0E5523E
:101ED000E552E552E552230EE66E010EE66E040E63
:101EE000E66E010EDBCFE6FF0E0EE552D880E7541A
:101EF000E66EE9EC03F0E552E552E552E552550E87
:101F0000E66E010EE66E040EE66E010EDBCFE6FF16
:101F10000B0EE552D880E754E66E8DEC02F0E552E8
:101F2000E552E552E5521E0EE66E010EE66E040E17
:101F3000E66E010EDBCFE6FF130EE552D880E754C4
:101F4000E66EE9EC03F0E552E552E552E552230E68
:101F5000E66E010EE66E040EE66E010EDBCFE6FFC6
:101F60000F0EE552D880E754E66E8DEC02F0E55294
:101F7000E552E552E5522D0EE66E010EE66E040EB8
:101F8000E66E010EDBCFE6FF180EE552D880E7546F
:101F9000E66EE9EC03F0E552E552E552E5521E0E1D
:101FA000E66E010EE66E040EE66E010EDBCFE6FF76
:101FB000140EE552D880E754E66E8DEC02F0E5523F
:101FC000E552E552E5522D0EE66E010EE66E040E68
:101FD000E66E010EDBCFE6FF190EE552D880E7541E
:101FE000E66E8DEC02F0E552E552E552E5525A0EEE
:101FF000E66E010EE66E040EE66E010EDBCFE6FF26
:102000001E0EE552D880E754E66EE9EC03F0E55287
:10201000E552E552E5525A0EE66E010EE66E040EEA
:10202000E66E010EDBCFE6FF1F0EE552D880E754C7
:10203000E66E8DEC02F0E552E552E552E552280ECF
:10204000E66E010EE66E040EE66E010EDBCFE6FFD5
:10205000220EE552D880E754E66EE9EC03F0E55233
:10206000E552E552E552280EE66E010EE66E040ECC
:10207000E66E010EDBCFE6FF230EE552D880E75473
:10208000E66E8DEC02F0E552E552E552E552370E70
:10209000E66E010EE66E040EE66E010EDBCFE6FF85
:1020A000270EE552D880E754E66EE9EC03F0E552DE
:1020B000E552E552E552370EE66E010EE66E040E6D
:1020C000E66E010EDBCFE6FF280EE552D880E7541E
:1020D000E66E8DEC02F0E552E552E552E5521E0E39
:1020E000E66E42EC15F0E552050EE66E3EEC00F0B1
:1020F000E552010810E151EC02F0010EDF6E030E13
:10210000146E020EDBCFE7FF1450E726020EE7CF76
:10211000DBFF010EDB6A040EE66E3EEC00F0E552DA
:10212000010807E0030EE66E3EEC00F0E552010800
:1021300049E1040EE66E3EEC00F0E552010802E1D2
:10214000020EDB6A030EE66E3EEC00F0E55201087B
:1021500005E1010EF36E020EF3CFDBFF5FEC00F042
:1021600062EC00F0040EE66E3EEC00F0E552000971
:1021700008E1030EE66E3EEC00F0E552000901E1D5
:1021800001D0ECD751EC02F0010EDB6A5F0EE66E77
:10219000010EE66E0A0EE66E090EE66E8DEC02F09A
:1021A000E552E552E552E552640EE66E010EE66E2A
:1021B0000A0EE66E010EE66E8DEC02F0E552E55277
:1021C000E552E552010EDB063BD664D494EF07F0EE
:1021D000020EDB50FD0F0101B26FB36B800B01E00B
:1021E000B369010EB06FB16B030EE15C02E2E16A0C
:1021F000E552E16EE552E7CFD9FF1200D9CFE6FFF5
:10220000E1CFD9FF020EE126D650E66EE66A24EC55
:1022100015F0E552E5520101696B070EA56F030E3B
:10222000A66F040EA76F030EA86FA96BAA6BAB6B0A
:10223000AC6BAD6BAE6B040EB46FB56BDE6EDD6A6E
:10224000DECF14F0DDCF15F0D890155004E6080E5F
:10225000145C000E155810E2010EE66E030EE66ED9
:10226000DFCFE6FF6CEC01F0E552E552E552DF2AE4
:10227000010E01E3DB2AE4D7020EE15C02E2E16A2F
:10228000E552E16EE552E7CFD9FF120051EC02F0C2
:10229000090E0101B26FB36BB06BB16B120001019B
:1022A000AC5147E12BEC15F0F3CF14F0F4CF15F05F
:1022B000090E0D6E0E6A14C008F015C009F064EC2A
:1022C00014F004C014F005C015F0010E142401012F
:1022D000AD6F2BEC15F0F3CF14F0F4CF15F00F0E1B
:1022E0000D6E0E6A14C008F015C009F064EC14F00D
:1022F00004C014F005C015F0010E14240101AE6FE6
:10230000AEC1E6FFADC1E6FFE5EC00F0E552E552F7
:10231000000903E10101010EAC6F010EE66EAEC1D2
:10232000E6FFADC1E6FF6CEC01F0E552E552E55287
:10233000B6D71200D9CFE6FFE1CFD9FF040EE126D0
:10234000FD0EDB5001E0E4D0A9C116F0176A16BEFD
:1023500017680101B4511624146EB5511720156E7B
:102360001406000E155A020E14C0DBFF030E15C032
:10237000DBFFABC114F0156A14BE156814C0DEFF94
:1023800015C0DDFF020EDBCF14F0030EDBCF15F01E
:10239000153404E214500308000E15543BE2ABC19F
:1023A00016F0176A16BE1768020EDBCF18F0030E80
:1023B000DBCF19F0040E0D6E0E6A18C008F019C0BC
:1023C00009F064EC14F008C018F009C019F01650B8
:1023D0001824146E17501920156E14C0DEFF15C096
:1023E000DDFF020EDBCF14F0030EDBCF15F0040E81
:1023F0000D6E0E6A14C008F015C009F064EC14F0FC
:1024000004C014F005C015F0020E14C0DBFF030E6B
:1024100015C0DBFFDECF14F0DDCF15F0153404E27C
:1024200014503B08000E155408E2D9CFE9FFDACF6B
:10243000EAFF3C0EEE5E000EED5A020E086E096ACF
:10244000DBCF0DF0030EDBCF0EF08AEC14F006C0EC
:1024500015F007C016F0060ED8801556000E165659
:10246000030E15C0E7FFE75204E0E846FE0BE7065F
:10247000FCE1E81C146EDECFE9FFDDCFEAFF690E58
:10248000E926010EEA22EF501414E66EDECFE9FFD2
:10249000DDCFEAFF690EE926010EEA22E552E75098
:1024A000EF6E020E086E096ADBCF0DF0030EDBCF74
:1024B0000EF08AEC14F006C015F007C016F0060EF8
:1024C000D8801556000E1656FE0EDB5015C0E7FFDD
:1024D000E75204E0E846FE0BE706FCE1146EDECFAF
:1024E000E9FFDDCFEAFF690EE926010EEA22EF508F
:1024F0001410E66EDECFE9FFDDCFEAFF690EE926B4
:10250000010EEA22E552E750EF6E000E2CD02BD0E0
:10251000FD0EDB040EE10101A92B040EA95D02E111
:10252000A96BAB2B3C0EAB5D01E1AB6B000E1BD07E
:102530001AD0FD0EDB50020816E10101A951E82472
:10254000146EABC1E9FFEA6AE9BEEA68690EE926E2
:10255000010EEA22EF50145204E0E846FE0B140686
:10256000FCE1C00B00D0146E040EE15C02E2E16AF3
:10257000E552E16E1450E552E7CFD9FF12000A0E82
:102580000101E76EA519E8AE02D0A53503D0E750EA
:10259000D880A5550AE3010EE76EA519E8AE02D072
:1025A000E73402D0E750A55D01E270DE100E0101B4
:1025B000E76EA619E8AE02D0A63503D0E750D88062
:1025C000A6550AE3010EE76EA619E8AE02D0E7347D
:1025D00002D0E750A65D01E259DE0101AA5113E1E4
:1025E000A529AD5D0FE1AE51A65D0CE1AC6BA52B4D
:1025F000E66AAAC1E6FF9EDEE552E5520101B42B70
:10260000000EB523A52B030EAA5D13E1AD51A55D08
:102610000FE1A629AE5D0CE1AC6BA62BE66AAAC160
:10262000E6FF88DEE552E5520101B42B000EB5232A
:10263000A62B020EAA5D13E1AD51A55D0FE1A60523
:10264000AE5D0CE1AC6BA607E66AAAC1E6FF72DEDE
:10265000E552E5520101B42B000EB523A607AA05E9
:1026600013E1A505AD5D0FE1AE51A65D0CE1AC6BCC
:10267000A507E66AAAC1E6FF5DDEE552E552010163
:10268000B42B000EB523A507A6C1E6FFA5C1E6FF42
:10269000E5EC00F0E552E552010802E1F7DD0BD070
:1026A000010EE66EA6C1E6FFA5C1E6FF6CEC01F0E7
:1026B000E552E552E552E66AA8C1E6FFA7C1E6FF8A
:1026C0006CEC01F0E552E552E552E66AAAC1E6FF7C
:1026D00031DEE552E552020EE66EAAC1E6FF2ADEC1
:1026E000E552E552000902E10101A72B020EE66E58
:1026F000AAC1E6FF1FDEE552E552C00802E1010172
:10270000A82B020EE66EAAC1E6FF14DEE552E552E2
:10271000400802E10101A707020EE66EAAC1E6FF2A
:1027200009DEE552E552800802E10101A807010136
:10273000B66B010EE66EAAC1E6FFFCDDE552E5527E
:102740001200040EE66E3EEC00F0E552010808E1CE
:102750000101B65105E1AA0503E0010EB66FAA6BAF
:10276000030EE66E3EEC00F0E552010808E10101BF
:10277000B65105E1AA5103E0010EB66FAA6F020E31
:10278000E66E3EEC00F0E55201080AE10101B651A7
:1027900007E1020EAA5D04E0010EB66F030EAA6FF8
:1027A000010EE66E3EEC00F0E55201080AE101017F
:1027B000B65107E1030EAA5D04E0010EB66F020EEA
:1027C000AA6F1200DACFE4FFE2CFDAFFE9CFE4FF2D
:1027D000EACFE4FFF6CFE4FFF7CFE4FFF5CFE4FF65
:1027E000F3CFE4FFF4CFE4FFFACFE4FF00EE00F014
:1027F000140EE80403E3EECFE4FFFBD700EE14F081
:10280000060EE80403E3EECFE4FFFBD7E652F2A4A2
:1028100016D00101010EB01901E1B15102E15FECE6
:1028200000F062EC00F081EC00F00101B251B31154
:1028300001E187DFFE0ED76E700ED66EF294E55280
:1028400000EE19F0060EE80403E3E5CFEDFFFBD739
:1028500000EE13F0140EE80403E3E5CFEDFFFBD721
:10286000E5CFFAFFE5CFF4FFE5CFF3FFE5CFF5FFC6
:10287000E5CFF7FFE5CFF6FFE5CFEAFFE5CFE9FFCC
:10288000E5CFDAFF1100DACFE4FFE2CFDAFFE6525C
:10289000F2B2F292E552E5CFDAFF1100DCEC04F07F
:1028A0006DEC07F00101B251B31101E1A7DC0101A8
:1028B000B251B31108E11E0EE66E42EC15F0E5527E
:0828C000EEDC5DDEF4D712002E
:0828C800006A0EAE6DEF14F082
:1028D0000D6C0E1EE86A0E22001E09AE75EF14F094
:1028E000086C091EE86A0922001E59EC15F009BEA1
:1028F00085EF14F000AE000C086C091EE86A09228E
:10290000046C051EE86A0522000C00BE7CEF14F082
:102910000188FF0C09C013F008C012F008500D0226
:10292000F4CF07F0F3CF06F009500E02F4CF09F010
:10293000F3CF08F00D02F3500726F4500822E86A9E
:10294000092212500E02F3500726F4500822E86ABA
:1029500009220EAEB0EF14F01250085E1350095A5F
:1029600013AE000C0D50085E0E50095A000C08C042
:1029700012F008500D02F4CF07F0F3CF06F0095023
:102980000E02F4CF09F0F3CF08F00D02F350072642
:10299000F4500822E86A092212500E02F35007266A
:0A29A000F4500822E86A0922000C36
:0629AA001E0EF66E000E89
:1029B000F76E000EF86E01010900F550BE6F0900B8
:1029C000F550BF6F03E1BE6701D03DD00900F5505F
:1029D000B96F0900F550BA6F0900F550BB6F0900D7
:1029E0000900F550E96E0900F550EA6E090009008A
:1029F0000900F550BC6F0900F550BD6F09000900D2
:102A0000F6CFC0F1F7CFC1F1F8CFC2F1B9C1F6FFEF
:102A1000BAC1F7FFBBC1F8FF0101BC5302E1BD53CE
:102A200007E00900F550EE6EBC07F8E2BD07F9D7E4
:102A3000C0C1F6FFC1C1F7FFC2C1F8FF0101BE0767
:082A4000000EBF5BBFD71200BE
:082A4800FE0EE3CFC3F1FF0E07
:102A5000E3CFC4F11200C4C109F0C3C108F0350EC0
:102A60000D6E450E0E6EB7EC14F0062AE86A0722CA
:102A7000079E07C0C4F106C0C3F1C3C1F3FFC4C1C0
:042A8000F4FF12004D
:0C2A8400FF0EE3501B6EEF0E01D0F30EAE
:102A9000E76EE72E49EF15F00C0E1A6EE76AE72E87
:102AA0004FEF15F01A2E4EEF15F01B2E47EF15F0D5
:022AB000120012
:0E2AB200056A046A100EE76ED89008360936E1
:102AC000043605360D50045C0E50055805E30D50D4
:0E2AD000045E0E50055A082AE72EF0D71200B9
:022ADE00FF0EE9
:102AE000E3501B6E480E01D04C0EE76EE72EFED76A
:0E2AF000E76AE72EFED71B2EF7D70000120074
:022AFE00000EC8
:102B0000F36E00EE00F0080E01D81200EA6002D069
:0E2B1000EE6AFCD7F350E9601200EE6AFCD7C3
:022B1E0013EEB4
:102B200000F023EE00F0F86A019CD5EC14F003EC01
:0A2B300000F04EEC14F0FBD7120089
:062B3A0000000000000095
:102B40000000000000000000000000000000000085
:102B500000000088D8A888886090F0909090A0C06D
:102B6000A090702020207088C8A89888F880B88825
:102B7000F8E0909090E0F080E080F088885050205D
:102B8000F0808080F0F080F010F07020202020E0B5
:102B9000A0C0A0A0F0909090F00080C08000004005
:102BA000C040000000000000000000000000000025
:102BB0000000000000000000000000000000000015
:102BC0000000000000000000000000000000000005
:102BD00000000000000000000000000000000000F5
:102BE00000000000000000000000000009000000DC
:032BF000000000E2
:020000040030CA
:010001000CF2
:010006008178
:00000001FF
