:020000040000FA
:0600000032EF3EF0120099
:020006001200E6
:06000800F8EF38F01200D1
:02000E000100EF
:0600180042EF38F0120077
:02001E000400DC
:10002000EF7D000000020000A50000000E000000AF
:10003000E600000002000000187D00000001000042
:10004000D70000009C7C0000600000007C000000E5
:10005000D9CFE6FFE1CFD9FFFE0EDB50A96EA69EF9
:10006000A69CA680A85000D0E552E7CFD9FF120089
:10007000D9CFE6FFE1CFD9FFFE0EDB50A96EFD0E12
:10008000DB50A86EA69EA69CA684F29E550EA76E77
:10009000AA0EA76EA682F28EA694E552E7CFD9FFEC
:1000A0001200C70EE66ED4DFE552FF0806E1E66AED
:1000B000C70EE66EDDDFE552E5520A0EE66EF5ECA0
:1000C0003DF0E552C80EE66EC3DFE552FF0806E1DB
:1000D000E66AC80EE66ECCDFE552E5520A0EE66E21
:1000E000F5EC3DF0E552C90EE66EB2DFE552FF08D1
:1000F00006E1E66AC90EE66EBBDFE552E5520A0E7E
:10010000E66EF5EC3DF0E552CA0EE66EA1DFE55273
:10011000FF0807E1010EE66ECA0EE66EA9DFE552A2
:10012000E5520A0EE66EF5EC3DF0E552CB0EE66EBA
:100130008FDFE552FF0807E1010EE66ECB0EE66E9B
:1001400097DFE552E5520A0EE66EF5EC3DF0E5521A
:100150001200CB0EE66E7CDFE552010807E1E66A8D
:10016000CB0EE66E85DFE552E55207D0010EE66E56
:10017000CB0EE66E7DDFE552E552050EE66EF5EC40
:100180003DF0E5521200CA0EE66E62DFE55201084C
:1001900007E1E66ACA0EE66E6BDFE552E55207D06C
:1001A000010EE66ECA0EE66E63DFE552E552050EFD
:1001B000E66EF5EC3DF0E5521200E66AC70EE66E1B
:1001C00057DFE552E552050EE66EF5EC3DF0E552DF
:1001D000E66AC80EE66E4CDFE552E552050EE66EA5
:1001E000F5EC3DF0E552E66AC90EE66E41DFE552F8
:1001F000E552050EE66EF5EC3DF0E552010EE66EB9
:10020000CA0EE66E35DFE552E552050EE66EF5ECF8
:100210003DF0E552010EE66ECB0EE66E29DFE552AB
:10022000E552050EE66EF5EC3DF0E55200D0120009
:100230009684070EC16E920EC06EC46AC36A120025
:10024000D9CFE6FFE1CFD9FF020EE126C30EC214DB
:100250001C09C26EC280C282C2B2FED7C450166EE2
:10026000176A16C017F0166AC35000011610146EF4
:1002700017C015F014C0DEFF15C0DDFFDECF14F08F
:10028000DDCF15F014C0F3FF15C0F4FF020EE15CE2
:1002900003E200D0E16AE552E16EE552E7CFD9FF13
:1002A0001200D9CFE6FFE1CFD9FFE652800EDF6E14
:1002B000FE0EDB06D950FE0FE96EFF0EDA20EA6E65
:1002C000DF50EFCFE7FFE75204E0E8427F0BE7069D
:1002D000FCE1DF6EDF500001A611A66FE552E5528A
:1002E000E7CFD9FF1200D9CFE6FFE1CFD9FFE65221
:1002F000DF6AFE0EDBCFE6FF080EE552D880E7543A
:10030000A6C0E7FF070B04E0E742E79EE806FCE132
:10031000E750DF6E010EDF14DF6EDF5000D0E552D4
:10032000E552E7CFD9FF12000001A66B1200D9CF2A
:10033000E6FFE1CFD9FF020106050EE1FB0EDBCFA0
:10034000ABF0FC0EDBCFACF0FD0EDBCFADF0FE0E64
:10035000DBCFAEF0000E02D0010E00D0E552E7CFA9
:10036000D9FF120080B004D0010EE66E9ADFE5528C
:1003700080B204D0020EE66E94DFE55280B404D061
:10038000030EE66E8EDFE55280B604D0040EE66EF4
:1003900088DFE55280B804D0050EE66E82DFE552B4
:1003A00080BA04D0060EE66E7CDFE5521200D9CF8B
:1003B000E6FFE1CFD9FFE652BEC1DFFF8D6ADFCF96
:1003C00014F0070EE76E1418E8AE02D0143403D010
:1003D000E750D880145412E2080EDF5E100EDF24BE
:1003E000E96EEA6AE9BEEA68BF0EE926010EEA2272
:1003F000EF50300B040DF3508B6E0DD0100EDF2438
:10040000E96EEA6AE9BEEA68BF0EE926010EEA2251
:10041000EF50C00B8B6E010EDF5206E0DFCFF3FF13
:10042000E846FE0BF306FCE18A6EBEC1E9FFEA6A0C
:10043000E9BEEA68BF0EE926010EEA22EF508C6E93
:10044000070E0101E76EBE19E8AE02D0BE3503D03B
:10045000E750D880BE5503E2010E8D6E02D0020E29
:100460008D6EBE2B100EBE5D01E1BE6BE552E552F6
:10047000E7CFD9FF1200D9CFE6FFE1CFD9FF020EB7
:10048000E126DF6A010EDB6AFE0EDB06FD0EDB06EF
:10049000FE0EDB50080804E0FE0EDB5009083BE1CD
:1004A000FD0EDBCF14F0080EE76E1418E8AE02D094
:1004B000E73402D0E750145C21E3FD0EDBCF15F0EA
:1004C000100EE76E1518E8AE02D0E73402D0E75000
:1004D000155C14E2080E146EFD0EDBCFE7FF14501E
:1004E000E75EFD0EE7CFDBFF020E146EFE0EDBCFE4
:1004F000E7FF1450E726FE0EE7CFDBFF080E146E71
:10050000FE0EDBCFE7FF1450E75EFE0EE7CFDBFF0A
:10051000DE52100EDD6EFE0EDBCFE6FF070EE5525B
:10052000D880E754E76EFE0EE7CFDBFFDBCF14F099
:10053000010EDBCFE6FFFD0EDB50E552E724E96E4E
:10054000EA6AE9BEEA68BF0EE926010EEA22EF5028
:1005500014C0E7FFE75204E0E8427F0BE706FCE146
:10056000DF6E010EDF14DF6EDF50146E020EE15CF1
:1005700003E200D0E16AE552E16E1450E552E7CFA4
:10058000D9FF1200D9CFE6FFE1CFD9FF020EE12655
:10059000FE0EDBCF14F0000EE76E1418E8AE02D0AA
:1005A000143403D0E750D880145401E3C6D0FE0EB3
:1005B000DBCF15F00B0EE76E1518E8AE02D0E7346E
:1005C00002D0E750155C01E3B8D0FD0EDBCF16F08A
:1005D000000EE76E1618E8AE02D0163403D0E750CE
:1005E000D880165401E3A9D0FD0EDBCF17F0110E11
:1005F000E76E1718E8AE02D0E73402D0E750175C78
:1006000001E39BD0800EDF6E010EDB6AFE0EDB067F
:10061000FD0EDB06FE0EDB50080804E0FE0EDB508C
:10062000090826E1FD0EDBCF14F0080EE76E141862
:10063000E8AE02D0E73402D0E750145C0CE3200EA1
:10064000DF6E080E146EFD0EDBCFE7FF1450E75E81
:10065000FD0EE7CFDBFF080E146EFE0EDBCFE7FFCB
:100660001450E75EFE0EE7CFDBFFDE52100EDD6EAC
:10067000FC0EDB50010BE76EFC0EE7CFDBFFD95021
:10068000FE0FE96EFF0EDA20EA6EDF50EFCFE7FFD4
:10069000E75204E0E8427F0BE706FCE1DF6EFC0E68
:1006A000DB0425E1010EDBCFE6FFFD0EDB50E5525A
:1006B000E724E96EEA6AE9BEEA68BF0EE926010EA0
:1006C000EA22EF50DF10E66E010EDBCFE6FFFD0EF3
:1006D000DB50E552E724E96EEA6AE9BEEA68BF0E3C
:1006E000E926010EEA22E552E750EF6E26D0DF1C24
:1006F000146E010EDBCFE6FFFD0EDB50E552E72462
:10070000E96EEA6AE9BEEA68BF0EE926010EEA224E
:10071000EF501414E66E010EDBCFE6FFFD0EDB504A
:10072000E552E724E96EEA6AE9BEEA68BF0EE92607
:10073000010EEA22E552E750EF6E020EE15C02E2A2
:10074000E16AE552E16EE552E7CFD9FF1200D9CF59
:10075000E6FFE1CFD9FF020EE126010EDF6EDFCF0B
:1007600014F0110EE76E1418E8AE02D0E73402D090
:10077000E750145C1EE2DE52010EDD6EDBCF14F09A
:100780000B0EE76E1418E8AE02D0E73402D0E75043
:10079000145C0DE2E66ADFCFE6FF010EDBCFE6FF79
:1007A000F1DEE552E552E552010EDB2AE7D7DF2AFA
:1007B000D6D7020EE15C02E2E16AE552E16EE55253
:1007C000E7CFD9FF1200D9CFE6FFE1CFD9FFE6523C
:1007D000DF6ADF6ADFCF14F0050EE76E1418E8AEAB
:1007E00002D0E73402D0E750145C01E343D1070E96
:1007F000D880DF54146EFB0EDBCFE9FFFC0EDBCF9D
:10080000EAFFEF5014C0E7FFE75204E0E8427F0B35
:10081000E706FCE1010B010820E1070ED880DF5458
:10082000146EFB0EDBCFE9FFFC0EDBCFEAFFEF50CF
:1008300014C0E7FFE75204E0E8427F0BE706FCE163
:10084000010BE66EFD0EDBCFE6FFFE0EDB50DF2474
:10085000E66E98DEE552E552E552070ED880DF5489
:10086000146E010EE76EFB0EDBCFE9FFFC0EDBCF53
:10087000EAFFE750E926000EEA22EF5014C0E7FF36
:10088000E75204E0E8427F0BE706FCE1010B0108B8
:1008900026E1070ED880DF54146E010EE76EFB0EC2
:1008A000DBCFE9FFFC0EDBCFEAFFE750E926000EC5
:1008B000EA22EF5014C0E7FFE75204E0E8427F0B62
:1008C000E706FCE1010BE66EFD0EDB28E66EFE0E90
:1008D000DB50DF24E66E56DEE552E552E552070EA8
:1008E000D880DF54146E020EE76EFB0EDBCFE9FFFB
:1008F000FC0EDBCFEAFFE750E926000EEA22EF50BC
:1009000014C0E7FFE75204E0E8427F0BE706FCE192
:10091000010B010827E1070ED880DF54146E020E88
:10092000E76EFB0EDBCFE9FFFC0EDBCFEAFFE75003
:10093000E926000EEA22EF5014C0E7FFE75204E078
:10094000E8427F0BE706FCE1010BE66EFD0EDB5093
:10095000020FE66EFE0EDB50DF24E66E13DEE5527C
:10096000E552E552070ED880DF54146E030EE76E91
:10097000FB0EDBCFE9FFFC0EDBCFEAFFE750E926F9
:10098000000EEA22EF5014C0E7FFE75204E0E8420D
:100990007F0BE706FCE1010B010827E1070ED88079
:1009A000DF54146E030EE76EFB0EDBCFE9FFFC0E87
:1009B000DBCFEAFFE750E926000EEA22EF5014C031
:1009C000E7FFE75204E0E8427F0BE706FCE1010B9A
:1009D000E66EFD0EDB50030FE66EFE0EDB50DF24ED
:1009E000E66ED0DDE552E552E552070ED880DF54C1
:1009F000146E040EE76EFB0EDBCFE9FFFC0EDBCFBF
:100A0000EAFFE750E926000EEA22EF5014C0E7FFA4
:100A1000E75204E0E8427F0BE706FCE1010B010826
:100A200027E1070ED880DF54146E040EE76EFB0E2C
:100A3000DBCFE9FFFC0EDBCFEAFFE750E926000E33
:100A4000EA22EF5014C0E7FFE75204E0E8427F0BD0
:100A5000E706FCE1010BE66EFD0EDB50040FE66ECF
:100A6000FE0EDB50DF24E66E8DDDE552E552E552E9
:100A7000DF2AB0D6E552E552E7CFD9FF1200D9CF31
:100A8000E6FFE1CFD9FFE652DF6ADF6ADFCF14F07D
:100A9000050EE76E1418E8AE02D0E73402D0E75036
:100AA000145C01E3C7D0070ED880DF54146EFB0E30
:100AB000DBCFE9FFFC0EDBCFEAFFEF5014C0E7FF0E
:100AC000E75204E0E8427F0BE706FCE1010B010876
:100AD0000CE1E66AFD0EDBCFE6FFFE0EDB50DF2405
:100AE000E66E50DDE552E552E552070ED880DF5440
:100AF000146E010EE76EFB0EDBCFE9FFFC0EDBCFC1
:100B0000EAFFE750E926000EEA22EF5014C0E7FFA3
:100B1000E75204E0E8427F0BE706FCE1010B010825
:100B20000CE1E66AFD0EDB28E66EFE0EDB50DF24EC
:100B3000E66E28DDE552E552E552070ED880DF5417
:100B4000146E020EE76EFB0EDBCFE9FFFC0EDBCF6F
:100B5000EAFFE750E926000EEA22EF5014C0E7FF53
:100B6000E75204E0E8427F0BE706FCE1010B0108D5
:100B70000DE1E66AFD0EDB50020FE66EFE0EDB5065
:100B8000DF24E66EFFDCE552E552E552070ED88021
:100B9000DF54146E030EE76EFB0EDBCFE9FFFC0E95
:100BA000DBCFEAFFE750E926000EEA22EF5014C03F
:100BB000E7FFE75204E0E8427F0BE706FCE1010BA8
:100BC00001080DE1E66AFD0EDB50030FE66EFE0E36
:100BD000DB50DF24E66ED6DCE552E552E552070E27
:100BE000D880DF54146E040EE76EFB0EDBCFE9FFF6
:100BF000FC0EDBCFEAFFE750E926000EEA22EF50B9
:100C000014C0E7FFE75204E0E8427F0BE706FCE18F
:100C1000010B01080DE1E66AFD0EDB50040FE66EE4
:100C2000FE0EDB50DF24E66EADDCE552E552E55208
:100C3000DF2A2CD7E552E552E7CFD9FF1200CD6A63
:100C4000E20ECF6EB40ECE6E9D80C00EF26ED08ED0
:100C5000F28C9F909E90CD801200D9CFE6FFE1CF1D
:100C6000D9FF020EE126DE6ADD6ADECF14F0DDCFA9
:100C700015F0FD0EDBCF16F0FE0EDBCF17F0155092
:100C80001718E8AE02D0173404D01650145C175071
:100C900015581DE2B1C016F0176A16BE1768DE506F
:100CA0001624146EDD501720156E14C0DEFF15C01B
:100CB000DDFF030002010C5102010A5D02010D512A
:100CC00002010B5903E2DE6ADD6A41DDCED7020E76
:100CD000E15C02E2E16AE552E16EE552E7CFD9FF5D
:100CE0001200D9CFE6FFE1CFD9FF040EE1260F0EA7
:100CF000C16E9268936A010E946E956A966AD38E5D
:100D00009EDF0201070501E07FD2010EF36E020EA5
:100D1000F3CFDBFFDBCF14F0110EE76E1418E8AE53
:100D200002D0E73402D0E750145C28E2DE52010E14
:100D3000DD6EDBCF14F00B0EE76E1418E8AE02D0B8
:100D4000E73402D0E750145C16E2010EE66E020EA4
:100D5000DBCFE6FF010EDBCFE6FFC2EC02F0E5528F
:100D6000E552E552140EE66EE66A77DFE552E5528B
:100D7000010EDB2ADED7020EDB2ACCD7010EF36E82
:100D8000020EF3CFDBFFDBCF14F0110EE76E141869
:100D9000E8AE02D0E73402D0E750145C27E2DE521E
:100DA000010EDD6EDBCF14F00B0EE76E1418E8AE0B
:100DB00002D0E73402D0E750145C15E2E66A020E76
:100DC000DBCFE6FF010EDBCFE6FFC2EC02F0E5521F
:100DD000E552E552140EE66EE66A3FDFE552E55253
:100DE000010EDB2ADFD7020EDB2ACDD7030EDB6A2A
:100DF000DBCF14F0460EE76E1418E8AE02D0E734ED
:100E000002D0E750145C01E3FFD1500EE66E020EF3
:100E1000E66E040EE66E030EDBCFE6FF0B0EE55228
:100E2000D880E754E66E2BDEE552E552E552E552F6
:100E3000500EE66E020EE66E040EE66E030EDBCF7B
:100E4000E6FF0A0EE552D880E754E66EBCDCE552B8
:100E5000E552E552E552140EE66E020EE66E040E01
:100E6000E66E030EDBCFE6FF100EE552D880E754A6
:100E7000E66E05DEE552E552E552E552140EE66EE9
:100E8000020EE66E040EE66E030EDBCFE6FF0F0EDB
:100E9000E552D880E754E66E96DCE552E552E5521D
:100EA000E552460EE66E020EE66E040EE66E030E88
:100EB000DBCFE6FF150EE552D880E754E66EDFDDA6
:100EC000E552E552E552E552460EE66E020EE66E3A
:100ED000040EE66E030EDBCFE6FF140EE552D8805B
:100EE000E754E66E70DCE552E552E552E552410EFC
:100EF000E66E020EE66E040EE66E030EDBCFE6FF34
:100F00001A0EE552D880E754E66EB9DDE552E55297
:100F1000E552E552410EE66E020EE66E040EE66EF6
:100F2000030EDBCFE6FF190EE552D880E754E66EDC
:100F30004ADCE552E552E552E552550EE66E020EE8
:100F4000E66E040EE66E030EDBCFE6FF1F0EE552E3
:100F5000D880E754E66E93DDE552E552E552E5525E
:100F6000550EE66E020EE66E040EE66E030EDBCF45
:100F7000E6FF1E0EE552D880E754E66E24DCE5520B
:100F8000E552E552E552370EE66E020EE66E040EAD
:100F9000E66E030EDBCFE6FF240EE552D880E75461
:100FA000E66E6DDDE552E552E552E552370EE66E2E
:100FB000020EE66E040EE66E030EDBCFE6FF230E96
:100FC000E552D880E754E66EE3EC03F0E552E552D3
:100FD000E552E552280EE66E020EE66E090EE66E4A
:100FE000030EDBCFE6FF240EE552D880E754E66E11
:100FF00046DDE552E552E552E552280EE66E020E58
:10100000E66E090EE66E030EDBCFE6FF230EE55219
:10101000D880E754E66EE3EC03F0E552E552E55282
:10102000E5522D0EE66E020EE66E090EE66E030E1A
:10103000DBCFE6FF290EE552D880E754E66E1FDDD0
:10104000E552E552E552E5522D0EE66E020EE66ED1
:10105000090EE66E030EDBCFE6FF280EE552D880C0
:10106000E754E66EE3EC03F0E552E552E552E55253
:10107000820EE66E020EE66E090EE66E030EDBCF02
:10108000E6FF2E0EE552D880E754E66EF8DCE55216
:10109000E552E552E552820EE66E020EE66E090E4C
:1010A000E66E030EDBCFE6FF2D0EE552D880E75447
:1010B000E66EE3EC03F0E552E552E552E552410EEF
:1010C000E66E020EE66E090EE66E030EDBCFE6FF5D
:1010D000330EE552D880E754E66ED1DCE552E55296
:1010E000E552E552410EE66E020EE66E090EE66E20
:1010F000030EDBCFE6FF320EE552D880E754E66EF2
:10110000E3EC03F0E552E552E552E552230EE66EBC
:10111000020EE66E090EE66E030EDBCFE6FF380E1A
:10112000E552D880E754E66EAADCE552E552E55276
:10113000E552230EE66E020EE66E090EE66E030E13
:10114000DBCFE6FF370EE552D880E754E66EE3ECDE
:1011500003F0E552E552E552E5522D0EE66E020E21
:10116000E66E090EE66E030EDBCFE6FF3D0EE5529E
:10117000D880E754E66E83DCE552E552E552E5524D
:101180002D0EE66E020EE66E090EE66E030EDBCF46
:10119000E6FF3C0EE552D880E754E66EE3EC03F040
:1011A000E552E552E552E5526E0EE66E020EE66E2F
:1011B000090EE66E030EDBCFE6FF420EE552D88045
:1011C000E754E66E5CDCE552E552E552E5526E0E00
:1011D000E66E020EE66E090EE66E030EDBCFE6FF4C
:1011E000410EE552D880E754E66EE3EC03F0E55299
:1011F000E552E552E5525A0EE66EE66A2EDDE552FC
:10120000E552030EDB2AF4D5040EE15C02E2E16A4A
:10121000E552E16EE552E7CFD9FF120094EC01F000
:10122000B2EC01F0040EE66E73EC01F0E552000939
:1012300016E1030EE66E73EC01F0E55200090FE1D2
:10124000050EE66E73EC01F0E552000908E1060EAA
:10125000E66E73EC01F0E552000901E101D0DED742
:101260001200DCDFA7EC03F08C0EE66E020EE66ED9
:101270000A0EE66E090EE66EE3EC03F0E552E55267
:10128000E552E552910EE66E020EE66E0A0EE66E2D
:10129000010EE66EE3EC03F0E552E552E552E5524D
:1012A0001200D9CFE6FFE1CFD9FF030EE126DF6AB6
:1012B000010EDB6A020EDB6A94EC01F08C0EE66E26
:1012C000020EE66E0A0EE66E090EE66EE3EC03F021
:1012D000E552E552E552E552910EE66E020EE66EDB
:1012E0000A0EE66E010EE66EE3EC03F0E552E552FF
:1012F000E552E552DF5002E027EF21F0020EDB500D
:1013000001E058D2DE52040EDD6E010EDBCF14F088
:10131000150EE76E1418E8AE02D0E73402D0E7509D
:10132000145C01E318D16E0EE66E020EE66E040E3A
:10133000E66E010EDBCFE6FF060EE552D880E754DD
:10134000E66E3FEC05F0E552E552E552E5526E0ED1
:10135000E66E020EE66E040EE66E010EDBCFE6FFD1
:10136000050EE552D880E754E66EE3EC03F0E55253
:10137000E552E552E552550EE66E020EE66E040E9B
:10138000E66E010EDBCFE6FF0B0EE552D880E75488
:10139000E66E3FEC05F0E552E552E552E552550E9A
:1013A000E66E020EE66E040EE66E010EDBCFE6FF81
:1013B0000A0EE552D880E754E66EE3EC03F0E552FE
:1013C000E552E552E552140EE66E020EE66E040E8C
:1013D000E66E010EDBCFE6FF110EE552D880E75432
:1013E000E66E3FEC05F0E552E552E552E552140E8B
:1013F000E66E020EE66E040EE66E010EDBCFE6FF31
:10140000100EE552D880E754E66EE3EC03F0E552A7
:10141000E552E552E552460EE66E020EE66E040E09
:10142000E66E010EDBCFE6FF160EE552D880E754DC
:10143000E66E3FEC05F0E552E552E552E552460E08
:10144000E66E020EE66E040EE66E010EDBCFE6FFE0
:10145000150EE552D880E754E66EE3EC03F0E55252
:10146000E552E552E5522D0EE66E020EE66E040ED2
:10147000E66E010EDBCFE6FF1B0EE552D880E75487
:10148000E66E3FEC05F0E552E552E552E5522D0ED1
:10149000E66E020EE66E040EE66E010EDBCFE6FF90
:1014A0001A0EE552D880E754E66EE3EC03F0E552FD
:1014B000E552E552E552AFC0E6FFB0C0E6FF2DECC5
:1014C00006F0E552E552060EE66E73EC01F0E552C9
:1014D000010816E1E66AE66AFA0EE66E430EE66E6B
:1014E00097EC01F0E552E552E552E552A7EC03F026
:1014F000010EDF6E0A0EF36E020EF3CFDBFF2BD070
:10150000040EE66E73EC01F0E552010807E0030EED
:10151000E66E73EC01F0E55201081AE1040EE66E86
:1015200073EC01F0E552010805E1010EF36E020EC5
:10153000F3CFDBFF030EE66E73EC01F0E55201081A
:1015400005E1030EF36E020EF3CFDBFF8ADE03D05C
:10155000010EDB2ADAD6020EDB5001E02AD1DE5280
:10156000140EDD6E010EDBCF14F0030EE76E1418BF
:10157000E8AE02D0143403D0E750D880145401E30D
:1015800018D16E0EE66E020EE66E040EE66E010EC9
:10159000DBCFE6FF050EE552D880E754E66E3FEC60
:1015A00005F0E552E552E552E552550EE66E020EA3
:1015B000E66E040EE66E010EDBCFE6FF0A0EE55284
:1015C000D880E754E66E3FEC05F0E552E552E5526F
:1015D000E5526E0EE66E020EE66E040EE66E010E2B
:1015E000DBCFE6FF060EE552D880E754E66EE3EC6B
:1015F00003F0E552E552E552E552140EE66E020E96
:10160000E66E040EE66E010EDBCFE6FF100EE5522D
:10161000D880E754E66E3FEC05F0E552E552E5521E
:10162000E552550EE66E020EE66E040EE66E010EF3
:10163000DBCFE6FF0B0EE552D880E754E66EE3EC15
:1016400003F0E552E552E552E552460EE66E020E13
:10165000E66E040EE66E010EDBCFE6FF150EE552D8
:10166000D880E754E66E3FEC05F0E552E552E552CE
:10167000E552140EE66E020EE66E040EE66E010EE4
:10168000DBCFE6FF110EE552D880E754E66EE3ECBF
:1016900003F0E552E552E552E5522D0EE66E020EDC
:1016A000E66E040EE66E010EDBCFE6FF1A0EE55283
:1016B000D880E754E66E3FEC05F0E552E552E5527E
:1016C000E552460EE66E020EE66E040EE66E010E62
:1016D000DBCFE6FF160EE552D880E754E66EE3EC6A
:1016E00003F0E552E552E552E5522D0EE66E020E8C
:1016F000E66E040EE66E010EDBCFE6FF1B0EE55232
:10170000D880E754E66EE3EC03F0E552E552E5528B
:10171000E552AFC0E6FFB0C0E6FF2DEC06F0E552A3
:10172000E552060EE66E73EC01F0E552010816E193
:10173000A7EC03F0E66AE66AFA0EE66E430EE66E82
:1017400097EC01F0E552E552E552E552010EDF6EED
:101750000A0EF36E020EF3CFDBFF2BD0040EE66E03
:1017600073EC01F0E552010807E0030EE66E73EC3E
:1017700001F0E55201081AE1040EE66E73EC01F087
:10178000E552010805E1010EF36E020EF3CFDBFF17
:10179000030EE66E73EC01F0E552010805E1030E5D
:1017A000F36E020EF3CFDBFF5CDD03D0010EDB0630
:1017B000D9D6A4D5020EDB0401E0A6D2DE52040E77
:1017C000DD6E010EDBCF14F0160EE76E1418E8AED6
:1017D00002D0E73402D0E750145C01E33FD1780E29
:1017E000E66E020EE66E040EE66E010EDBCFE6FF3D
:1017F000060EE552D880E754E66E3FEC05F0E55260
:10180000E552E552E552780EE66E020EE66E040EE3
:10181000E66E010EDBCFE6FF050EE552D880E754F9
:10182000E66EE3EC03F0E552E552E552E5522D0E8B
:10183000E66E020EE66E040EE66E010EDBCFE6FFEC
:101840000B0EE552D880E754E66E3FEC05F0E5520A
:10185000E552E552E5522D0EE66E020EE66E040EDE
:10186000E66E010EDBCFE6FF0A0EE552D880E754A4
:10187000E66EE3EC03F0E552E552E552E552780EF0
:10188000E66E020EE66E040EE66E010EDBCFE6FF9C
:101890000F0EE552D880E754E66E3FEC05F0E552B6
:1018A000E552E552E552780EE66E020EE66E040E43
:1018B000E66E010EDBCFE6FF0E0EE552D880E75450
:1018C000E66EE3EC03F0E552E552E552E552690EAF
:1018D000E66E020EE66E040EE66E010EDBCFE6FF4C
:1018E000140EE552D880E754E66E3FEC05F0E55261
:1018F000E552E552E552690EE66E020EE66E040E02
:10190000E66E010EDBCFE6FF130EE552D880E754FA
:10191000E66EE3EC03F0E552E552E552E552410E86
:10192000E66E020EE66E040EE66E010EDBCFE6FFFB
:10193000170EE552D880E754E66E3FEC05F0E5520D
:10194000E552E552E552410EE66E020EE66E040ED9
:10195000E66E010EDBCFE6FF160EE552D880E754A7
:10196000E66EE3EC03F0E552E552E552E5526E0E09
:10197000E66E020EE66E040EE66E010EDBCFE6FFAB
:101980001C0EE552D880E754E66E3FEC05F0E552B8
:10199000E552E552E5526E0EE66E020EE66E040E5C
:1019A000E66E010EDBCFE6FF1B0EE552D880E75452
:1019B000E66EE3EC03F0E552E552E552E552AFC0C6
:1019C000E6FFB0C0E6FF2DEC06F0E552E552060E4C
:1019D000E66E73EC01F0E552010816E1A7EC03F0A6
:1019E000E66AE66AFA0EE66E430EE66E97EC01F0E2
:1019F000E552E552E552E552010EDF6E0B0EF36E35
:101A0000020EF3CFDBFF2AD0040EE66E73EC01F07A
:101A1000E552010807E0030EE66E73EC01F0E552B3
:101A2000010819E1040EE66E73EC01F0E5520108BD
:101A300004E1020EF36EF3CFDBFF030EE66E73ECF0
:101A400001F0E552010802E1020EDB6A0EEC09F03A
:101A500031EC09F003D0010EDB2AB3D6020EDB0411
:101A600001E051D1DE52150EDD6E010EDBCF14F018
:101A7000030EE76E1418E8AE02D0143403D0E7501A
:101A8000D880145401E33FD1780EE66E020EE66E64
:101A9000040EE66E010EDBCFE6FF050EE552D880A0
:101AA000E754E66E3FEC05F0E552E552E552E552AB
:101AB0002D0EE66E020EE66E040EE66E010EDBCF14
:101AC000E6FF0A0EE552D880E754E66E3FEC05F0DB
:101AD000E552E552E552E552780EE66E020EE66EEC
:101AE000040EE66E010EDBCFE6FF060EE552D8804F
:101AF000E754E66EE3EC03F0E552E552E552E552B9
:101B0000780EE66E020EE66E040EE66E010EDBCF78
:101B1000E6FF0E0EE552D880E754E66E3FEC05F086
:101B2000E552E552E552E5522D0EE66E020EE66EE6
:101B3000040EE66E010EDBCFE6FF0B0EE552D880F9
:101B4000E754E66EE3EC03F0E552E552E552E55268
:101B5000690EE66E020EE66E040EE66E010EDBCF37
:101B6000E6FF130EE552D880E754E66E3FEC05F031
:101B7000E552E552E552E552780EE66E020EE66E4B
:101B8000040EE66E010EDBCFE6FF0F0EE552D880A5
:101B9000E754E66EE3EC03F0E552E552E552E55218
:101BA000410EE66E020EE66E040EE66E010EDBCF0F
:101BB000E6FF160EE552D880E754E66E3FEC05F0DE
:101BC000E552E552E552E552690EE66E020EE66E0A
:101BD000040EE66E010EDBCFE6FF140EE552D88050
:101BE000E754E66EE3EC03F0E552E552E552E552C8
:101BF000410EE66E020EE66E040EE66E010EDBCFBF
:101C0000E6FF170EE552D880E754E66EE3EC03F0EA
:101C1000E552E552E552E5526E0EE66E020EE66EB4
:101C2000040EE66E010EDBCFE6FF1B0EE552D880F8
:101C3000E754E66E3FEC05F0E552E552E552E55219
:101C40006E0EE66E020EE66E040EE66E010EDBCF41
:101C5000E6FF1C0EE552D880E754E66EE3EC03F095
:101C6000E552E552E552E552AFC0E6FFB0C0E6FFEF
:101C70002DEC06F0E552E552060EE66E73EC01F02F
:101C8000E552010816E1A7EC03F0E66AE66AFA0EEF
:101C9000E66E430EE66E97EC01F0E552E552E55232
:101CA000E552010EDF6E0B0EF36E020EF3CFDBFF7B
:101CB0002AD0040EE66E73EC01F0E552010807E04D
:101CC000030EE66E73EC01F0E552010819E1040E13
:101CD000E66E73EC01F0E552010804E1020EF36ECA
:101CE000F3CFDBFF030EE66E73EC01F0E552010863
:101CF00002E1020EDB6A0EEC09F031EC09F003D0D0
:101D0000010EDB06B2D656D5020EDB50020801E00A
:101D10004FD3DE52040EDD6E010EDBCF14F0230E26
:101D2000E76E1418E8AE02D0E73402D0E750145C36
:101D300001E393D1140EE66E020EE66E040EE66E1B
:101D4000010EDBCFE6FF060EE552D880E754E66EC3
:101D50003FEC05F0E552E552E552E552140EE66E11
:101D6000020EE66E040EE66E010EDBCFE6FF050EF8
:101D7000E552D880E754E66EE3EC03F0E552E55215
:101D8000E552E552690EE66E020EE66E040EE66E50
:101D9000010EDBCFE6FF0B0EE552D880E754E66E6E
:101DA0003FEC05F0E552E552E552E552690EE66E6C
:101DB000020EE66E040EE66E010EDBCFE6FF0A0EA3
:101DC000E552D880E754E66EE3EC03F0E552E552C5
:101DD000E552E552460EE66E020EE66E040EE66E23
:101DE000010EDBCFE6FF0F0EE552D880E754E66E1A
:101DF0003FEC05F0E552E552E552E552460EE66E3F
:101E0000020EE66E040EE66E010EDBCFE6FF0E0E4E
:101E1000E552D880E754E66EE3EC03F0E552E55274
:101E2000E552E552140EE66E020EE66E040EE66E04
:101E3000010EDBCFE6FF140EE552D880E754E66EC4
:101E40003FEC05F0E552E552E552E552140EE66E20
:101E5000020EE66E040EE66E010EDBCFE6FF130EF9
:101E6000E552D880E754E66EE3EC03F0E552E55224
:101E7000E552E552550EE66E020EE66E040EE66E73
:101E8000010EDBCFE6FF190EE552D880E754E66E6F
:101E90003FEC05F0E552E552E552E552550EE66E8F
:101EA000020EE66E040EE66E010EDBCFE6FF180EA4
:101EB000E552D880E754E66EE3EC03F0E552E552D4
:101EC000E552E5525A0EE66E020EE66E040EE66E1E
:101ED000010EDBCFE6FF1F0EE552D880E754E66E19
:101EE0003FEC05F0E552E552E552E5525A0EE66E3A
:101EF000020EE66E040EE66E010EDBCFE6FF1E0E4E
:101F0000E552D880E754E66EE3EC03F0E552E55283
:101F1000E552E552410EE66E020EE66E040EE66EE6
:101F2000010EDBCFE6FF230EE552D880E754E66EC4
:101F30003FEC05F0E552E552E552E552410EE66E02
:101F4000020EE66E040EE66E010EDBCFE6FF220EF9
:101F5000E552D880E754E66EE3EC03F0E552E55233
:101F6000E552E552280EE66E020EE66E040EE66EAF
:101F7000010EDBCFE6FF280EE552D880E754E66E6F
:101F80003FEC05F0E552E552E552E552280EE66ECB
:101F9000020EE66E040EE66E010EDBCFE6FF270EA4
:101FA000E552D880E754E66EE3EC03F0E552E552E3
:101FB000E552E552AFC0E6FFB0C0E6FF2DEC06F0FB
:101FC000E552E552060EE66E73EC01F0E5520108AB
:101FD00016E1A7EC03F0E66AE66AFA0EE66E430E37
:101FE000E66E97EC01F0E552E552E552E552010E3E
:101FF000DF6E0C0EF36E020EF3CFDBFF2ED0040E5D
:10200000E66E73EC01F0E552010807E0030EE66EA0
:1020100073EC01F0E55201081DE1040EE66E73EC6D
:1020200001F0E552010805E1030EF36E020EF3CF55
:10203000DBFF030EE66E73EC01F0E552010805E1EB
:10204000010EF36E020EF3CFDBFF0EEC09F031EC64
:1020500009F003D0010EDB2A5FD6020EDB50020826
:1020600001E0A5D1DE52220EDD6E010EDBCF14F0B1
:10207000030EE76E1418E8AE02D0143403D0E75014
:10208000D880145401E393D1140EE66E020EE66E6E
:10209000040EE66E010EDBCFE6FF050EE552D8809A
:1020A000E754E66E3FEC05F0E552E552E552E552A5
:1020B000690EE66E020EE66E040EE66E010EDBCFD2
:1020C000E6FF0A0EE552D880E754E66E3FEC05F0D5
:1020D000E552E552E552E552140EE66E020EE66E4A
:1020E000040EE66E010EDBCFE6FF060EE552D88049
:1020F000E754E66EE3EC03F0E552E552E552E552B3
:10210000460EE66E020EE66E040EE66E010EDBCFA4
:10211000E6FF0E0EE552D880E754E66E3FEC05F080
:10212000E552E552E552E552690EE66E020EE66EA4
:10213000040EE66E010EDBCFE6FF0B0EE552D880F3
:10214000E754E66EE3EC03F0E552E552E552E55262
:10215000140EE66E020EE66E040EE66E010EDBCF86
:10216000E6FF130EE552D880E754E66E3FEC05F02B
:10217000E552E552E552E552460EE66E020EE66E77
:10218000040EE66E010EDBCFE6FF0F0EE552D8809F
:10219000E754E66EE3EC03F0E552E552E552E55212
:1021A000550EE66E020EE66E040EE66E010EDBCFF5
:1021B000E6FF180EE552D880E754E66E3FEC05F0D6
:1021C000E552E552E552E552140EE66E020EE66E59
:1021D000040EE66E010EDBCFE6FF140EE552D8804A
:1021E000E754E66EE3EC03F0E552E552E552E552C2
:1021F000550EE66E020EE66E040EE66E010EDBCFA5
:10220000E6FF190EE552D880E754E66EE3EC03F0E2
:10221000E552E552E552E5525A0EE66E020EE66EC2
:10222000040EE66E010EDBCFE6FF1E0EE552D880EF
:10223000E754E66E3FEC05F0E552E552E552E55213
:102240005A0EE66E020EE66E040EE66E010EDBCF4F
:10225000E6FF1F0EE552D880E754E66EE3EC03F08C
:10226000E552E552E552E552410EE66E020EE66E8B
:10227000040EE66E010EDBCFE6FF220EE552D8809B
:10228000E754E66E3FEC05F0E552E552E552E552C3
:10229000410EE66E020EE66E040EE66E010EDBCF18
:1022A000E6FF230EE552D880E754E66EE3EC03F038
:1022B000E552E552E552E552280EE66E020EE66E54
:1022C000040EE66E010EDBCFE6FF270EE552D88046
:1022D000E754E66E3FEC05F0E552E552E552E55273
:1022E000280EE66E020EE66E040EE66E010EDBCFE1
:1022F000E6FF280EE552D880E754E66EE3EC03F0E3
:10230000E552E552E552E552AFC0E6FFB0C0E6FF48
:102310002DEC06F0E552E552060EE66E73EC01F088
:10232000E552010816E1A7EC03F0E66AE66AFA0E48
:10233000E66E430EE66E97EC01F0E552E552E5528B
:10234000E552010EDF6E0C0EF36E020EF3CFDBFFD3
:102350002ED0040EE66E73EC01F0E552010807E0A2
:10236000030EE66E73EC01F0E55201081DE1040E68
:10237000E66E73EC01F0E552010805E1030EF36E21
:10238000020EF3CFDBFF030EE66E73EC01F0E552B5
:10239000010805E1010EF36E020EF3CFDBFF0EEC38
:1023A00009F031EC09F003D0010EDB065ED6ACD4A7
:1023B000020EDB50030801E02BD3DE52040EDD6E6B
:1023C000010EDBCF14F0230EE76E1418E8AE02D036
:1023D000E73402D0E750145C01E381D16E0EE66E63
:1023E000020EE66E040EE66E010EDBCFE6FF060E71
:1023F000E552D880E754E66E3FEC05F0E552E55231
:10240000E552E5526E0EE66E020EE66E040EE66EC4
:10241000010EDBCFE6FF050EE552D880E754E66EED
:10242000E3EC03F0E552E552E552E5522D0EE66E7F
:10243000020EE66E040EE66E010EDBCFE6FF0B0E1B
:10244000E552D880E754E66E3FEC05F0E552E552E0
:10245000E552E5522D0EE66E020EE66E040EE66EB5
:10246000010EDBCFE6FF0A0EE552D880E754E66E98
:10247000E3EC03F0E552E552E552E552780EE66EE4
:10248000020EE66E040EE66E010EDBCFE6FF0F0EC7
:10249000E552D880E754E66E3FEC05F0E552E55290
:1024A000E552E552780EE66E020EE66E040EE66E1A
:1024B000010EDBCFE6FF0E0EE552D880E754E66E44
:1024C000E3EC03F0E552E552E552E552780EE66E94
:1024D000020EE66E040EE66E010EDBCFE6FF130E73
:1024E000E552D880E754E66E3FEC05F0E552E55240
:1024F000E552E552780EE66E020EE66E040EE66ECA
:10250000010EDBCFE6FF120EE552D880E754E66EEF
:10251000E3EC03F0E552E552E552E552410EE66E7A
:10252000020EE66E040EE66E010EDBCFE6FF170E1E
:10253000E552D880E754E66E3FEC05F0E552E552EF
:10254000E552E552410EE66E020EE66E040EE66EB0
:10255000010EDBCFE6FF160EE552D880E754E66E9B
:10256000E3EC03F0E552E552E552E552550EE66E16
:10257000020EE66E040EE66E010EDBCFE6FF1C0EC9
:10258000E552D880E754E66E3FEC05F0E552E5529F
:10259000E552E552550EE66E020EE66E040EE66E4C
:1025A000010EDBCFE6FF1B0EE552D880E754E66E46
:1025B000E3EC03F0E552E552E552E552370EE66EE4
:1025C000020EE66E040EE66E010EDBCFE6FF220E73
:1025D000E552D880E754E66E3FEC05F0E552E5524F
:1025E000E552E552370EE66E020EE66E040EE66E1A
:1025F000010EDBCFE6FF210EE552D880E754E66EF0
:10260000E3EC03F0E552E552E552E5526E0EE66E5C
:10261000020EE66E040EE66E010EDBCFE6FF280E1C
:10262000E552D880E754E66E3FEC05F0E552E552FE
:10263000E552E5526E0EE66E020EE66E040EE66E92
:10264000010EDBCFE6FF270EE552D880E754E66E99
:10265000E3EC03F0E552E552E552E552AFC0E6FF88
:10266000B0C0E6FF2DEC06F0E552E552060EE66E30
:1026700073EC01F0E552010808E1040EF36E020E5E
:10268000F3CFDBFF0EEC09F02AD0040EE66E73ECFC
:1026900001F0E552010807E0030EE66E73EC01F06D
:1026A000E552010819E1040EE66E73EC01F0E55203
:1026B000010802E1020EDB6A030EE66E73EC01F024
:1026C000E552010804E1020EF36EF3CFDBFF0EECDE
:1026D00009F031EC09F003D0010EDB2A71D6020EAD
:1026E000DB50030801E093D1DE52220EDD6E010EB5
:1026F000DBCF14F0030EE76E1418E8AE02D01434EA
:1027000003D0E750D880145401E381D16E0EE66EF9
:10271000020EE66E040EE66E010EDBCFE6FF050E3E
:10272000E552D880E754E66E3FEC05F0E552E552FD
:10273000E552E5522D0EE66E020EE66E040EE66ED2
:10274000010EDBCFE6FF0A0EE552D880E754E66EB5
:102750003FEC05F0E552E552E552E5526E0EE66EAD
:10276000020EE66E040EE66E010EDBCFE6FF060EED
:10277000E552D880E754E66EE3EC03F0E552E5520B
:10278000E552E552780EE66E020EE66E040EE66E37
:10279000010EDBCFE6FF0E0EE552D880E754E66E61
:1027A0003FEC05F0E552E552E552E5522D0EE66E9E
:1027B000020EE66E040EE66E010EDBCFE6FF0B0E98
:1027C000E552D880E754E66EE3EC03F0E552E552BB
:1027D000E552E552780EE66E020EE66E040EE66EE7
:1027E000010EDBCFE6FF120EE552D880E754E66E0D
:1027F0003FEC05F0E552E552E552E552780EE66E03
:10280000020EE66E040EE66E010EDBCFE6FF0F0E43
:10281000E552D880E754E66EE3EC03F0E552E5526A
:10282000E552E552410EE66E020EE66E040EE66ECD
:10283000010EDBCFE6FF160EE552D880E754E66EB8
:102840003FEC05F0E552E552E552E552780EE66EB2
:10285000020EE66E040EE66E010EDBCFE6FF130EEF
:10286000E552D880E754E66EE3EC03F0E552E5521A
:10287000E552E552410EE66E020EE66E040EE66E7D
:10288000010EDBCFE6FF170EE552D880E754E66E67
:10289000E3EC03F0E552E552E552E552550EE66EE3
:1028A000020EE66E040EE66E010EDBCFE6FF1B0E97
:1028B000E552D880E754E66E3FEC05F0E552E5526C
:1028C000E552E552550EE66E020EE66E040EE66E19
:1028D000010EDBCFE6FF1C0EE552D880E754E66E12
:1028E000E3EC03F0E552E552E552E552370EE66EB1
:1028F000020EE66E040EE66E010EDBCFE6FF210E41
:10290000E552D880E754E66E3FEC05F0E552E5521B
:10291000E552E552370EE66E020EE66E040EE66EE6
:10292000010EDBCFE6FF220EE552D880E754E66EBB
:10293000E3EC03F0E552E552E552E5526E0EE66E29
:10294000020EE66E040EE66E010EDBCFE6FF270EEA
:10295000E552D880E754E66E3FEC05F0E552E552CB
:10296000E552E5526E0EE66E020EE66E040EE66E5F
:10297000010EDBCFE6FF280EE552D880E754E66E65
:10298000E3EC03F0E552E552E552E552AFC0E6FF55
:10299000B0C0E6FF2DEC06F0E552E552060EE66EFD
:1029A00073EC01F0E552010808E1040EF36E020E2B
:1029B000F3CFDBFF0EEC09F02AD0040EE66E73ECC9
:1029C00001F0E552010807E0030EE66E73EC01F03A
:1029D000E552010819E1040EE66E73EC01F0E552D0
:1029E000010802E1020EDB6A030EE66E73EC01F0F1
:1029F000E552010804E1020EF36EF3CFDBFF0EECAB
:102A000009F031EC09F003D0010EDB0670D6D0D40A
:102A1000020EDB50040801E037D3CB0EE66E28EC43
:102A200000F0E55201081DE1A00EE66E020EE66E12
:102A30000A0EE66E040EE66E3FEC05F0E552E55236
:102A4000E552E5529B0EE66E020EE66E0A0EE66E4B
:102A5000040EE66EE3EC03F0E552E552E552E55272
:102A60001CD09B0EE66E020EE66E0A0EE66E040E9B
:102A7000E66E3FEC05F0E552E552E552E552A00E58
:102A8000E66E020EE66E0A0EE66E040EE66EE3ECED
:102A900003F0E552E552E552E552DE52040EDD6EDA
:102AA000010EDBCF14F0150EE76E1418E8AE02D05D
:102AB000E73402D0E750145C01E368D16E0EE66E95
:102AC000020EE66E040EE66E010EDBCFE6FF060E8A
:102AD000E552D880E754E66E3FEC05F0E552E5524A
:102AE000E552E5526E0EE66E020EE66E040EE66EDE
:102AF000010EDBCFE6FF050EE552D880E754E66E07
:102B0000E3EC03F0E552E552E552E5525A0EE66E6B
:102B1000020EE66E040EE66E010EDBCFE6FF0B0E34
:102B2000E552D880E754E66E3FEC05F0E552E552F9
:102B3000E552E5525A0EE66E020EE66E040EE66EA1
:102B4000010EDBCFE6FF0A0EE552D880E754E66EB1
:102B5000E3EC03F0E552E552E552E5527D0EE66EF8
:102B6000020EE66E040EE66E010EDBCFE6FF100EDF
:102B7000E552D880E754E66E3FEC05F0E552E552A9
:102B8000E552E5527D0EE66E020EE66E040EE66E2E
:102B9000010EDBCFE6FF0F0EE552D880E754E66E5C
:102BA000E3EC03F0E552E552E552E552550EE66ED0
:102BB000020EE66E040EE66E010EDBCFE6FF150E8A
:102BC000E552D880E754E66E3FEC05F0E552E55259
:102BD000E552E552550EE66E020EE66E040EE66E06
:102BE000010EDBCFE6FF140EE552D880E754E66E07
:102BF000E3EC03F0E552E552E552E552280EE66EAD
:102C0000020EE66E040EE66E010EDBCFE6FF1B0E33
:102C1000E552D880E754E66E3FEC05F0E552E55208
:102C2000E552E552280EE66E020EE66E040EE66EE2
:102C3000010EDBCFE6FF1A0EE552D880E754E66EB0
:102C4000E3EC03F0E552E552E552E552AFC0E6FF92
:102C5000B0C0E6FF2DEC06F0E552E552060EE66E3A
:102C600073EC01F0E552010807E0050EE66E73EC27
:102C700001F0E55201085CE1060EE66E73EC01F02E
:102C8000E552010842E1A9EC00F0CB0EE66E28EC1B
:102C900000F0E55201081DE1A00EE66E020EE66EA0
:102CA0000A0EE66E040EE66E3FEC05F0E552E552C4
:102CB000E552E5529B0EE66E020EE66E0A0EE66ED9
:102CC000040EE66EE3EC03F0E552E552E552E55200
:102CD0001CD09B0EE66E020EE66E0A0EE66E040E29
:102CE000E66E3FEC05F0E552E552E552E552A00EE6
:102CF000E66E020EE66E0A0EE66E040EE66EE3EC7B
:102D000003F0E552E552E552E552050EE66E73EC2E
:102D100001F0E55201080AE1030EF36E020EF3CF53
:102D2000DBFFA7EC03F031EC09F030D00EEC09F03A
:102D3000040EE66E73EC01F0E552010807E0030EA5
:102D4000E66E73EC01F0E55201081DE1040EE66E3B
:102D500073EC01F0E552010805E1050EF36E020E79
:102D6000F3CFDBFF030EE66E73EC01F0E5520108D2
:102D700005E1060EF36E020EF3CFDBFF0EEC09F059
:102D800031EC09F003D0010EDB2A8AD6020EDB50AB
:102D9000040801E078D1DE52150EDD6E010EDBCFA6
:102DA00014F0030EE76E1418E8AE02D0143403D00A
:102DB000E750D880145401E366D16E0EE66E020E21
:102DC000E66E040EE66E010EDBCFE6FF050EE55261
:102DD000D880E754E66E3FEC05F0E552E552E55247
:102DE000E5525A0EE66E020EE66E040EE66E010E17
:102DF000DBCFE6FF0A0EE552D880E754E66E3FECE3
:102E000005F0E552E552E552E5526E0EE66E020E11
:102E1000E66E040EE66E010EDBCFE6FF060EE5520F
:102E2000D880E754E66EE3EC03F0E552E552E55254
:102E3000E5527D0EE66E020EE66E040EE66E010EA3
:102E4000DBCFE6FF0F0EE552D880E754E66E3FEC8D
:102E500005F0E552E552E552E5525A0EE66E020ED5
:102E6000E66E040EE66E010EDBCFE6FF0B0EE552BA
:102E7000D880E754E66EE3EC03F0E552E552E55204
:102E8000E552550EE66E020EE66E040EE66E010E7B
:102E9000DBCFE6FF140EE552D880E754E66E3FEC38
:102EA00005F0E552E552E552E5527D0EE66E020E62
:102EB000E66E040EE66E010EDBCFE6FF100EE55265
:102EC000D880E754E66EE3EC03F0E552E552E552B4
:102ED000E552280EE66E020EE66E040EE66E010E58
:102EE000DBCFE6FF1A0EE552D880E754E66E3FECE2
:102EF00005F0E552E552E552E552550EE66E020E3A
:102F0000E66E040EE66E010EDBCFE6FF150EE5520F
:102F1000D880E754E66EE3EC03F0E552E552E55263
:102F2000E552280EE66E020EE66E040EE66E010E07
:102F3000DBCFE6FF1B0EE552D880E754E66EE3ECEC
:102F400003F0E552E552E552E552AFC0E6FFB0C0EE
:102F5000E6FF2DEC06F0E552E552060EE66E73EC48
:102F600001F0E552010807E0050EE66E73EC01F092
:102F7000E55201085AE1060EE66E73EC01F0E552E7
:102F8000010842E1A9EC00F0CB0EE66E28EC00F05F
:102F9000E55201081DE1A00EE66E020EE66E0A0E75
:102FA000E66E040EE66E3FEC05F0E552E552E552A2
:102FB000E5529B0EE66E020EE66E0A0EE66E040EFB
:102FC000E66EE3EC03F0E552E552E552E5521CD023
:102FD0009B0EE66E020EE66E0A0EE66E040EE66EBE
:102FE0003FEC05F0E552E552E552E552A00EE66EE3
:102FF000020EE66E0A0EE66E040EE66EE3EC03F0D9
:10300000E552E552E552E552050EE66E73EC01F02D
:10301000E552010808E1030EF36E020EF3CFDBFF69
:1030200031EC09F030D00EEC09F0040EE66E73ECD2
:1030300001F0E552010807E0030EE66E73EC01F0C3
:10304000E55201081DE1040EE66E73EC01F0E55255
:10305000010805E1050EF36E020EF3CFDBFF030E50
:10306000E66E73EC01F0E552010805E1060EF36E21
:10307000020EF3CFDBFF0EEC09F031EC09F003D0C8
:10308000010EDB068BD6C4D4020EDB50050801E02E
:1030900085D3CA0EE66E28EC00F0E55201081DE16A
:1030A000A00EE66E020EE66E0A0EE66E040EE66EE8
:1030B0003FEC05F0E552E552E552E5529B0EE66E17
:1030C000020EE66E0A0EE66E040EE66EE3EC03F008
:1030D000E552E552E552E5521CD09B0EE66E020E1B
:1030E000E66E0A0EE66E040EE66E3FEC05F0E55263
:1030F000E552E552E552A00EE66E020EE66E0A0EAD
:10310000E66E040EE66EE3EC03F0E552E552E5529E
:10311000E552DE52040EDD6E010EDBCF14F0190E07
:10312000E76E1418E8AE02D0E73402D0E750145C22
:1031300001E38ED16E0EE66E020EE66E040EE66EB2
:10314000010EDBCFE6FF060EE552D880E754E66EAF
:103150003FEC05F0E552E552E552E5526E0EE66EA3
:10316000020EE66E040EE66E010EDBCFE6FF050EE4
:10317000E552D880E754E66EE3EC03F0E552E55201
:10318000E552E5525F0EE66E020EE66E040EE66E46
:10319000010EDBCFE6FF0B0EE552D880E754E66E5A
:1031A0003FEC05F0E552E552E552E5525F0EE66E62
:1031B000020EE66E040EE66E010EDBCFE6FF0A0E8F
:1031C000E552D880E754E66EE3EC03F0E552E552B1
:1031D000E552E5524B0EE66E020EE66E040EE66E0A
:1031E000010EDBCFE6FF100EE552D880E754E66E05
:1031F0003FEC05F0E552E552E552E5524B0EE66E26
:10320000020EE66E040EE66E010EDBCFE6FF0F0E39
:10321000E552D880E754E66EE3EC03F0E552E55260
:10322000E552E552140EE66E020EE66E040EE66EF0
:10323000010EDBCFE6FF140EE552D880E754E66EB0
:103240003FEC05F0E552E552E552E552140EE66E0C
:10325000020EE66E040EE66E010EDBCFE6FF130EE5
:10326000E552D880E754E66EE3EC03F0E552E55210
:10327000E552E5526E0EE66E020EE66E040EE66E46
:10328000010EDBCFE6FF190EE552D880E754E66E5B
:103290003FEC05F0E552E552E552E5526E0EE66E62
:1032A000020EE66E040EE66E010EDBCFE6FF180E90
:1032B000E552D880E754E66EE3EC03F0E552E552C0
:1032C000E552E5523C0EE66E020EE66E040EE66E28
:1032D000010EDBCFE6FF1E0EE552D880E754E66E06
:1032E0003FEC05F0E552E552E552E5523C0EE66E44
:1032F000020EE66E040EE66E010EDBCFE6FF1D0E3B
:10330000E552D880E754E66EE3EC03F0E552E5526F
:10331000E552E552AFC0E6FFB0C0E6FF2DEC06F087
:10332000E552E552060EE66E73EC01F0E552010837
:1033300007E0050EE66E73EC01F0E55201085AE174
:10334000060EE66E73EC01F0E552010842E1C3ECB3
:1033500000F0CA0EE66E28EC00F0E55201081DE10F
:10336000A00EE66E020EE66E0A0EE66E040EE66E25
:103370003FEC05F0E552E552E552E5529B0EE66E54
:10338000020EE66E0A0EE66E040EE66EE3EC03F045
:10339000E552E552E552E5521CD09B0EE66E020E58
:1033A000E66E0A0EE66E040EE66E3FEC05F0E552A0
:1033B000E552E552E552A00EE66E020EE66E0A0EEA
:1033C000E66E040EE66EE3EC03F0E552E552E552DC
:1033D000E552050EE66E73EC01F0E552010808E1D6
:1033E000030EF36E020EF3CFDBFF31EC09F030D0A9
:1033F0000EEC09F0040EE66E73EC01F0E5520108E4
:1034000007E0030EE66E73EC01F0E55201081DE1E2
:10341000040EE66E73EC01F0E552010805E1060EBC
:10342000F36E020EF3CFDBFF030EE66E73EC01F0DA
:10343000E552010805E1040EF36E020EF3CFDBFF47
:103440000EEC09F031EC09F003D0010EDB2A64D652
:10345000020EDB50050801E0A0D1DE52190EDD6E30
:10346000010EDBCF14F0030EE76E1418E8AE02D0A5
:10347000143403D0E750D880145401E38ED16E0E7B
:10348000E66E020EE66E040EE66E010EDBCFE6FF80
:10349000050EE552D880E754E66E3FEC05F0E552A4
:1034A000E552E552E5525F0EE66E020EE66E040E40
:1034B000E66E010EDBCFE6FF0A0EE552D880E75438
:1034C000E66E3FEC05F0E552E552E552E5526E0E30
:1034D000E66E020EE66E040EE66E010EDBCFE6FF30
:1034E000060EE552D880E754E66EE3EC03F0E552B1
:1034F000E552E552E5524B0EE66E020EE66E040E04
:10350000E66E010EDBCFE6FF0F0EE552D880E754E2
:10351000E66E3FEC05F0E552E552E552E5525F0EEE
:10352000E66E020EE66E040EE66E010EDBCFE6FFDF
:103530000B0EE552D880E754E66EE3EC03F0E5525B
:10354000E552E552E552140EE66E020EE66E040EEA
:10355000E66E010EDBCFE6FF130EE552D880E7548E
:10356000E66E3FEC05F0E552E552E552E5524B0EB2
:10357000E66E020EE66E040EE66E010EDBCFE6FF8F
:10358000100EE552D880E754E66EE3EC03F0E55206
:10359000E552E552E5526E0EE66E020EE66E040E40
:1035A000E66E010EDBCFE6FF180EE552D880E75439
:1035B000E66E3FEC05F0E552E552E552E552140E99
:1035C000E66E020EE66E040EE66E010EDBCFE6FF3F
:1035D000140EE552D880E754E66EE3EC03F0E552B2
:1035E000E552E552E5526E0EE66E020EE66E040EF0
:1035F000E66E010EDBCFE6FF190EE552D880E754E8
:10360000E66EE3EC03F0E552E552E552E5523C0E7E
:10361000E66E020EE66E040EE66E010EDBCFE6FFEE
:103620001D0EE552D880E754E66E3FEC05F0E552FA
:10363000E552E552E5523C0EE66E020EE66E040ED1
:10364000E66E010EDBCFE6FF1E0EE552D880E75492
:10365000E66EE3EC03F0E552E552E552E552AFC009
:10366000E6FFB0C0E6FF2DEC06F0E552E552060E8F
:10367000E66E73EC01F0E552010807E0050EE66E18
:1036800073EC01F0E55201085AE1060EE66E73ECA8
:1036900001F0E552010842E1C3EC00F0CA0EE66E0B
:1036A00028EC00F0E55201081DE1A00EE66E020EC6
:1036B000E66E0A0EE66E040EE66E3FEC05F0E5528D
:1036C000E552E552E5529B0EE66E020EE66E0A0EDC
:1036D000E66E040EE66EE3EC03F0E552E552E552C9
:1036E000E5521CD09B0EE66E020EE66E0A0EE66EEA
:1036F000040EE66E3FEC05F0E552E552E552E55268
:10370000A00EE66E020EE66E0A0EE66E040EE66E81
:10371000E3EC03F0E552E552E552E552050EE66EA4
:1037200073EC01F0E552010808E1030EF36E020E9E
:10373000F3CFDBFF31EC09F030D00EEC09F0040ED2
:10374000E66E73EC01F0E552010807E0030EE66E49
:1037500073EC01F0E55201081DE1040EE66E73EC16
:1037600001F0E552010805E1060EF36E020EF3CFFB
:10377000DBFF030EE66E73EC01F0E552010805E194
:10378000040EF36E020EF3CFDBFF0EEC09F031EC0A
:1037900009F003D0010EDB0663D676D4020EDB50AF
:1037A000060801E024D3DE52040EDD6E010EDBCFED
:1037B00014F01C0EE76E1418E8AE02D0E73402D005
:1037C000E750145C01E37ED1690EE66E020EE66EF0
:1037D000040EE66E010EDBCFE6FF070EE552D88041
:1037E000E754E66E3FEC05F0E552E552E552E5524E
:1037F000690EE66E020EE66E040EE66E010EDBCF7B
:10380000E6FF060EE552D880E754E66EE3EC03F0DF
:10381000E552E552E552E5522D0EE66E020EE66ED9
:10382000040EE66E010EDBCFE6FF0B0EE552D880EC
:10383000E754E66E3FEC05F0E552E552E552E552FD
:103840002D0EE66E020EE66E040EE66E010EDBCF66
:10385000E6FF0A0EE552D880E754E66EE3EC03F08B
:10386000E552E552E552E5526E0EE66E020EE66E48
:10387000040EE66E010EDBCFE6FF100EE552D88097
:10388000E754E66E3FEC05F0E552E552E552E552AD
:103890006E0EE66E020EE66E040EE66E010EDBCFD5
:1038A000E6FF0F0EE552D880E754E66EE3EC03F036
:1038B000E552E552E552E552780EE66E020EE66EEE
:1038C000040EE66E010EDBCFE6FF140EE552D88043
:1038D000E754E66E3FEC05F0E552E552E552E5525D
:1038E000780EE66E020EE66E040EE66E010EDBCF7B
:1038F000E6FF130EE552D880E754E66EE3EC03F0E2
:10390000E552E552E552E5525A0EE66E020EE66EBB
:10391000040EE66E010EDBCFE6FF190EE552D880ED
:10392000E754E66E3FEC05F0E552E552E552E5520C
:103930005A0EE66E020EE66E040EE66E010EDBCF48
:10394000E6FF180EE552D880E754E66EE3EC03F08C
:10395000E552E552E552E552690EE66E020EE66E5C
:10396000040EE66E010EDBCFE6FF1E0EE552D88098
:10397000E754E66E3FEC05F0E552E552E552E552BC
:10398000690EE66E020EE66E040EE66E010EDBCFE9
:10399000E6FF1D0EE552D880E754E66EE3EC03F037
:1039A000E552E552E552E5522D0EE66E020EE66E48
:1039B000040EE66E010EDBCFE6FF220EE552D88044
:1039C000E754E66E3FEC05F0E552E552E552E5526C
:1039D0002D0EE66E020EE66E040EE66E010EDBCFD5
:1039E000E6FF210EE552D880E754E66EE3EC03F0E3
:1039F000E552E552E552E552AFC0E6FFB0C0E6FF42
:103A00002DEC06F0E552E552060EE66E73EC01F081
:103A1000E552010807E0050EE66E73EC01F0E55291
:103A2000010822E1060EE66E73EC01F0E552010892
:103A30000AE1070EF36E020EF3CFDBFFA7EC03F0F3
:103A4000DE521C0EDD6E050EE66E73EC01F0E552E3
:103A5000010808E1030EF36E020EF3CFDBFF31EC39
:103A600009F030D00EEC09F0040EE66E73EC01F0B4
:103A7000E552010807E0030EE66E73EC01F0E55233
:103A800001081DE1040EE66E73EC01F0E552010839
:103A900005E1040EF36E020EF3CFDBFF030EE66EBC
:103AA00073EC01F0E552010805E1050EF36E020E1C
:103AB000F3CFDBFF0EEC09F031EC09F003D0010E7F
:103AC000DB2A74D6020EDB50060801E08FD1DE52ED
:103AD0001C0EDD6E010EDBCF14F0030EE76E141822
:103AE000E8AE02D0143403D0E750D880145401E378
:103AF0007DD1690EE66E020EE66E040EE66E010ED4
:103B0000DBCFE6FF060EE552D880E754E66E3FECC9
:103B100005F0E552E552E552E5522D0EE66E020E35
:103B2000E66E040EE66E010EDBCFE6FF0A0EE552EE
:103B3000D880E754E66E3FEC05F0E552E552E552D9
:103B4000E552690EE66E020EE66E040EE66E010E9A
:103B5000DBCFE6FF070EE552D880E754E66EE3ECD4
:103B600003F0E552E552E552E5526E0EE66E020EA6
:103B7000E66E040EE66E010EDBCFE6FF0F0EE55299
:103B8000D880E754E66E3FEC05F0E552E552E55289
:103B9000E5522D0EE66E020EE66E040EE66E010E86
:103BA000DBCFE6FF0B0EE552D880E754E66EE3EC80
:103BB00003F0E552E552E552E552780EE66E020E4C
:103BC000E66E040EE66E010EDBCFE6FF130EE55245
:103BD000D880E754E66E3FEC05F0E552E552E55239
:103BE000E5526E0EE66E020EE66E040EE66E010EF5
:103BF000DBCFE6FF100EE552D880E754E66EE3EC2B
:103C000003F0E552E552E552E5525A0EE66E020E19
:103C1000E66E040EE66E010EDBCFE6FF180EE552EF
:103C2000D880E754E66E3FEC05F0E552E552E552E8
:103C3000E552780EE66E020EE66E040EE66E010E9A
:103C4000DBCFE6FF140EE552D880E754E66EE3ECD6
:103C500003F0E552E552E552E5525A0EE66E020EC9
:103C6000E66E040EE66E010EDBCFE6FF190EE5529E
:103C7000D880E754E66EE3EC03F0E552E552E552F6
:103C8000E552690EE66E020EE66E040EE66E010E59
:103C9000DBCFE6FF1D0EE552D880E754E66E3FEC21
:103CA00005F0E552E552E552E552690EE66E020E68
:103CB000E66E040EE66E010EDBCFE6FF1E0EE55249
:103CC000D880E754E66EE3EC03F0E552E552E552A6
:103CD000E5522D0EE66E020EE66E040EE66E010E45
:103CE000DBCFE6FF210EE552D880E754E66E3FECCD
:103CF00005F0E552E552E552E5522D0EE66E020E54
:103D0000E66E040EE66E010EDBCFE6FF220EE552F4
:103D1000D880E754E66EE3EC03F0E552E552E55255
:103D2000E552AFC0E6FFB0C0E6FF2DEC06F0E5526D
:103D3000E552060EE66E73EC01F0E552010807E06D
:103D4000050EE66E73EC01F0E552010821E1060E66
:103D5000E66E73EC01F0E552010809E1070EF36E1F
:103D6000020EF3CFDBFFA7EC03F0010EDB6A050EBA
:103D7000E66E73EC01F0E552010808E1030EF36E04
:103D8000020EF3CFDBFF31EC09F030D00EEC09F07E
:103D9000040EE66E73EC01F0E552010807E0030E35
:103DA000E66E73EC01F0E55201081DE1040EE66ECB
:103DB00073EC01F0E552010805E1040EF36E020E0A
:103DC000F3CFDBFF030EE66E73EC01F0E552010862
:103DD00005E1050EF36E020EF3CFDBFF0EEC09F0EA
:103DE00031EC09F003D0010EDB0674D6D7D4020EF5
:103DF000DB50070801E029D2DE52040EDD6E010E11
:103E0000DBCF14F0140EE76E1418E8AE02D0E734DE
:103E100002D0E750145C01E300D16E0EE66E020E94
:103E2000E66E040EE66E010EDBCFE6FF060EE552EF
:103E3000D880E754E66E3FEC05F0E552E552E552D6
:103E4000E5526E0EE66E020EE66E040EE66E010E92
:103E5000DBCFE6FF050EE552D880E754E66EE3ECD3
:103E600003F0E552E552E552E5527D0EE66E020E94
:103E7000E66E040EE66E010EDBCFE6FF0B0EE5529A
:103E8000D880E754E66E3FEC05F0E552E552E55286
:103E9000E5527D0EE66E020EE66E040EE66E010E33
:103EA000DBCFE6FF0A0EE552D880E754E66EE3EC7E
:103EB00003F0E552E552E552E552690EE66E020E58
:103EC000E66E040EE66E010EDBCFE6FF100EE55245
:103ED000D880E754E66E3FEC05F0E552E552E55236
:103EE000E552690EE66E020EE66E040EE66E010EF7
:103EF000DBCFE6FF0F0EE552D880E754E66EE3EC29
:103F000003F0E552E552E552E5522D0EE66E020E43
:103F1000E66E040EE66E010EDBCFE6FF140EE552F0
:103F2000D880E754E66E3FEC05F0E552E552E552E5
:103F3000E5522D0EE66E020EE66E040EE66E010EE2
:103F4000DBCFE6FF130EE552D880E754E66EE3ECD4
:103F500003F0E552E552E552E552960EE66E020E8A
:103F6000E66E040EE66E010EDBCFE6FF190EE5529B
:103F7000D880E754E66E3FEC05F0E552E552E55295
:103F8000E552960EE66E020EE66E040EE66E010E29
:103F9000DBCFE6FF180EE552D880E754E66EE3EC7F
:103FA00003F0E552E552E552E552AFC0E6FFB0C07E
:103FB000E6FF2DEC06F0E552E552060EE66E73ECD8
:103FC00001F0E552010807E0050EE66E73EC01F022
:103FD000E55201081FE1060EE66E73EC01F0E552B2
:103FE000010807E1DDEC00F0020EDB6A31EC09F0BC
:103FF00014D0050EE66E73EC01F0E552010808E1FD
:10400000030EF36E020EF3CFDBFF31EC09F005D0A7
:104010000EEC09F0010EDB2AF2D6020EDB50070887
:1040200001E012D1DE52140EDD6E010EDBCF14F072
:10403000030EE76E1418E8AE02D0143403D0E75034
:10404000D880145401E300D16E0EE66E020EE66EC7
:10405000040EE66E010EDBCFE6FF050EE552D880BA
:10406000E754E66E3FEC05F0E552E552E552E552C5
:104070007D0EE66E020EE66E040EE66E010EDBCFDE
:10408000E6FF0A0EE552D880E754E66E3FEC05F0F5
:10409000E552E552E552E5526E0EE66E020EE66E10
:1040A000040EE66E010EDBCFE6FF060EE552D88069
:1040B000E754E66EE3EC03F0E552E552E552E552D3
:1040C000690EE66E020EE66E040EE66E010EDBCFA2
:1040D000E6FF0F0EE552D880E754E66E3FEC05F0A0
:1040E000E552E552E552E5527D0EE66E020EE66EB1
:1040F000040EE66E010EDBCFE6FF0B0EE552D88014
:10410000E754E66EE3EC03F0E552E552E552E55282
:104110002D0EE66E020EE66E040EE66E010EDBCF8D
:10412000E6FF130EE552D880E754E66E3FEC05F04B
:10413000E552E552E552E552690EE66E020EE66E74
:10414000040EE66E010EDBCFE6FF100EE552D880BE
:10415000E754E66EE3EC03F0E552E552E552E55232
:10416000960EE66E020EE66E040EE66E010EDBCFD4
:10417000E6FF180EE552D880E754E66E3FEC05F0F6
:10418000E552E552E552E5522D0EE66E020EE66E60
:10419000040EE66E010EDBCFE6FF140EE552D8806A
:1041A000E754E66EE3EC03F0E552E552E552E552E2
:1041B000960EE66E020EE66E040EE66E010EDBCF84
:1041C000E6FF190EE552D880E754E66EE3EC03F003
:1041D000E552E552E552E552AFC0E6FFB0C0E6FF5A
:1041E0002DEC06F0E552E552060EE66E73EC01F09A
:1041F000E552010807E0050EE66E73EC01F0E552AA
:1042000001081FE1060EE66E73EC01F0E5520108AD
:1042100007E1DDEC00F0020EDB6A31EC09F014D0AE
:10422000050EE66E73EC01F0E552010808E1030E9D
:10423000F36E020EF3CFDBFF31EC09F005D00EEC8C
:1042400009F0010EDB06F1D6D2D57AEF09F0020EA5
:10425000DB50F60F0001A96FAA6B800B01E0AA6981
:10426000010EA76FA86B030EE15C02E2E16AE55262
:10427000E16EE552E7CFD9FF1200E66AE66AFA0E70
:10428000E66E430EE66E97EC01F0E552E552E5521C
:10429000E5524B0EE66E020EE66E010EE66E020E63
:1042A000E66EE3EC03F0E552E552E552E5525A0EB4
:1042B000E66E020EE66E010EE66E060EE66EE3ECAC
:1042C00003F0E552E552E552E552870EE66E020E26
:1042D000E66E070EE66E040EE66EE3EC03F0E552C2
:1042E000E552E552E5521E0EE66E020EE66E0B0E2C
:1042F000E66E010EE66EE3EC03F0E552E552E552A0
:10430000E552190EE66E020EE66E0B0EE66E050E17
:10431000E66EE3EC03F0E552E552E552E552780E25
:10432000E66E020EE66E0B0EE66E070EE66EE3EC30
:1043300003F0E552E552E552E552050EE66E73ECE8
:1043400001F0E552010807E0060EE66E73EC01F09D
:10435000E552010805E1A7EC03F00EEC09F001D0ED
:1043600098D71200D9CFE6FFE1CFD9FF020EE126A0
:10437000D650E66EE66AD7EC3DF0E552E552FA0E0D
:104380000201026F036B0001606B070E9C6F030E4E
:104390009D6F040E9E6F030E9F6FA06BA16BA26BAF
:1043A000A36BA46BA56B040EB26FB36BB56BDE6E23
:1043B000DD6ADECF14F0DDCF15F0D890155004E69D
:1043C000080E145C000E155810E2010EE66E030E86
:1043D000E66EDFCFE6FFC2EC02F0E552E552E552B1
:1043E000DF2A010E01E3DB2AE4D7020EE15C02E2E0
:1043F000E16AE552E16EE552E7CFD9FF1200A7EC82
:1044000003F0E66AE66A7A0EE66E440EE66E97EC14
:1044100001F0E552E552E552E552090E0001A96F9F
:10442000AA6BA76BA86BC90EE66E28EC00F0E552EC
:104430000001D880B55508E2B5C0E6FFC90EE66EAA
:1044400038EC00F0E552E55212000001A35158E1AA
:10445000DEEC3DF0F3CF14F0F4CF15F0090E0D6E45
:104460000E6A14C008F015C009F02FEC3BF004C030
:1044700014F005C015F0010E14240001A46FDEEC49
:104480003DF0F3CF14F0F4CF15F00F0E0D6E0E6A61
:1044900014C008F015C009F02FEC3BF004C014F074
:1044A00005C015F0010E14240001A56FA5C0E6FF9C
:1044B000A4C0E6FF3BEC02F0E552E552000903E13F
:1044C0000001010EA36F0001A40503E1A50501E1B0
:1044D000A36B0A0EA45D03E1A50501E1A36BA4058E
:1044E00004E1100EA55D01E1A36B0A0EA45D04E1D9
:1044F000100EA55D01E1A36BA30501E1B52BA5D7C6
:10450000010EE66EA5C0E6FFA4C0E6FFC2EC02F015
:10451000E552E552E5521200D9CFE6FFE1CFD9FFCF
:10452000040EE126FD0EDB5001E0E4D0A0C016F041
:10453000176A16BE17680001B2511624146EB351E3
:104540001720156E1406000E155A020E14C0DBFF5C
:10455000030E15C0DBFFA2C014F0156A14BE156867
:1045600014C0DEFF15C0DDFF020EDBCF14F0030E1A
:10457000DBCF15F0153404E214500308000E155477
:104580003BE2A2C016F0176A16BE1768020EDBCF18
:1045900018F0030EDBCF19F0040E0D6E0E6A18C072
:1045A00008F019C009F02FEC3BF008C018F009C062
:1045B00019F016501824146E17501920156E14C0D7
:1045C000DEFF15C0DDFF020EDBCF14F0030EDBCFE4
:1045D00015F0040E0D6E0E6A14C008F015C009F037
:1045E0002FEC3BF004C014F005C015F0020E14C00F
:1045F000DBFF030E15C0DBFFDECF14F0DDCF15F0BF
:10460000153404E214503B08000E155408E2D9CFCB
:10461000E9FFDACFEAFF3C0EEE5E000EED5A020E25
:10462000086E096ADBCF0DF0030EDBCF0EF055EC00
:104630003BF006C015F007C016F0060ED8801556E0
:10464000000E1656030E15C0E7FFE75204E0E846D9
:10465000FE0BE706FCE1E81C146EDECFE9FFDDCFC0
:10466000EAFF600EE926000EEA22EF501414E66E0F
:10467000DECFE9FFDDCFEAFF600EE926000EEA2279
:10468000E552E750EF6E020E086E096ADBCF0DF0BF
:10469000030EDBCF0EF055EC3BF006C015F007C063
:1046A00016F0060ED8801556000E1656FE0EDB507C
:1046B00015C0E7FFE75204E0E846FE0BE706FCE121
:1046C000146EDECFE9FFDDCFEAFF600EE926000EB3
:1046D000EA22EF501410E66EDECFE9FFDDCFEAFFED
:1046E000600EE926000EEA22E552E750EF6E000E5A
:1046F0002CD02BD0FD0EDB040EE10001A02B040E0C
:10470000A05D02E1A06BA22B3C0EA25D01E1A26BB9
:10471000000E1BD01AD0FD0EDB50020816E100017E
:10472000A051E824146EA2C0E9FFEA6AE9BEEA6873
:10473000600EE926000EEA22EF50145204E0E8462B
:10474000FE0B1406FCE1C00B00D0146E040EE15CFD
:1047500002E2E16AE552E16E1450E552E7CFD9FF7B
:1047600012000A0E0001E76E9C19E8AE02D09C35DB
:1047700003D0E750D8809C550AE3010EE76E9C19E0
:10478000E8AE02D0E73402D0E7509C5D01E237DEAC
:10479000100E0001E76E9D19E8AE02D09D3503D0E2
:1047A000E750D8809D550AE3010EE76E9D19E8AEEB
:1047B00002D0E73402D0E7509D5D01E220DE000127
:1047C000A1512CE19C29A45D28E1A5519D5D25E125
:1047D000A36BE66AE66A160EE66E430EE66E97EC8B
:1047E00001F0E552E552E552E5520201033504E2DB
:1047F00002515A08000E035504E2050E025F000E36
:10480000035B00019C2BE66AA1C0E6FF85DEE55252
:10481000E5520001B22B000EB3239C2B030EA15DC9
:104820002CE1A4519C5D28E19D29A55D25E1A36BA8
:10483000E66AE66A160EE66E430EE66E97EC01F047
:10484000E552E552E552E5520201033504E2025118
:104850005A08000E035504E2050E025F000E035BCA
:1048600000019D2BE66AA1C0E6FF56DEE552E55247
:104870000001B22B000EB3239D2B020EA15D2CE193
:10488000A4519C5D28E19D05A55D25E1A36BE66A29
:10489000E66A160EE66E430EE66E97EC01F0E55200
:1048A000E552E552E5520201033504E202515A088D
:1048B000000E035504E2050E025F000E035B0001CB
:1048C0009D07E66AA1C0E6FF27DEE552E55200013A
:1048D000B22B000EB3239D07A1052CE19C05A45D1E
:1048E00028E1A5519D5D25E1A36BE66AE66A160EF7
:1048F000E66E430EE66E97EC01F0E552E552E552A6
:10490000E5520201033504E202515A08000E035534
:1049100004E2050E025F000E035B00019C07E66ADD
:10492000A1C0E6FFF9DDE552E5520001B22B000E11
:10493000B3239C079DC0E6FF9CC0E6FF3BEC02F062
:10494000E552E552010802E15ADD0BD0010EE66E98
:104950009DC0E6FF9CC0E6FFC2EC02F0E552E552C6
:10496000E552E66A9FC0E6FF9EC0E6FFC2EC02F099
:10497000E552E552E552E66AA1C0E6FFCDDDE5521B
:10498000E552020EE66EA1C0E6FFC6DDE552E55235
:10499000000902E100019E2B020EE66EA1C0E6FFB7
:1049A000BBDDE552E552C00802E100019F2B020E7B
:1049B000E66EA1C0E6FFB0DDE552E552400802E137
:1049C00000019E07020EE66EA1C0E6FFA5DDE552DE
:1049D000E552800802E100019F070001B46B010E5F
:1049E000E66EA1C0E6FF98DDE552E5521200040E26
:1049F000E66E73EC01F0E552010808E10001B451E4
:104A000005E1A10503E0010EB46FA16B030EE66E94
:104A100073EC01F0E552010808E10001B45105E131
:104A2000A15103E0010EB46FA16F020EE66E73ECAC
:104A300001F0E55201080AE10001B45107E1020E5C
:104A4000A15D04E0010EB46F030EA16F010EE66ECE
:104A500073EC01F0E55201080AE10001B45107E1ED
:104A6000030EA15D04E0010EB46F020EA16F1200EF
:104A7000D9CFE6FFE1CFD9FF040EE126DF6A010EB0
:104A8000DB6A020EDB6A030EDB6AC90EE66E28ECF7
:104A900000F0E552DF6EDF5003E164DCCFD0CED012
:104AA0000EEC09F0640EE66E020EE66E010EE66E86
:104AB000E66EE3EC03F0E552E552E552E552780E7E
:104AC000E66E020EE66E010EE66E030EE66EE3EC97
:104AD00003F0E552E552E552E552730EE66E020E22
:104AE000E66E010EE66E080EE66EE3EC03F0E552AC
:104AF000E552E552E552640E146E14C00EF0DFCF9D
:104B000009F040EC3EF0010E09C0DBFF0A0E146E06
:104B100014C00EF0010EDBCF09F040EC3EF0010EA8
:104B200005C0DBFF0A0E146E14C00EF0DFCF09F0D3
:104B300040EC3EF0020E09C0DBFF0A0E146E14C0FA
:104B40000EF0020EDBCF09F040EC3EF0020E05C085
:104B5000DBFF030EDFCFDBFF0A0E146E14C00EF076
:104B6000030EDBCF09F040EC3EF0030E05C0DBFF87
:104B7000010EDB50050DF3CF14F0F4CF15F0000E4D
:104B80001426010E152214C0E6FF15C0E6FF060E1E
:104B9000E66E010EE66EE3EC03F0E552E552E552F7
:104BA000E552020EDB50050DF3CF14F0F4CF15F0F3
:104BB000000E1426010E152214C0E6FF15C0E6FFF4
:104BC0000C0EE66E010EE66EE3EC03F0E552E552E4
:104BD000E552E552030EDB50050DF3CF14F0F4CF90
:104BE00015F0000E1426010E152214C0E6FF15C0A4
:104BF000E6FF0C0EE66E060EE66EE3EC03F0E55201
:104C0000E552E552E552060EE66E73EC01F0E55210
:104C1000010807E1A7EC03F0B2EC21F00EEC09F07B
:104C20000DD0050EE66E73EC01F0E552010805E1CA
:104C3000FFEC21F00EEC09F001D032D7040EE15C5C
:104C400002E2E16AE552E16EE552E7CFD9FF1200D8
:104C5000D9CFE6FFE1CFD9FFE652DF6ADF6ADFCFC7
:104C600014F0FE0EDBCFF6FFF76AF6BEF768290EEA
:104C7000F702F3CFF7FFF602F3CFF6FFF450F72673
:104C8000760EF626790EF7220800F550E76E141816
:104C9000E8AE02D0E73402D0E750145C01E39CD0C8
:104CA000010EE66EFE0EDBCF14F0156A14BE156819
:104CB000290E1502F3CF15F01402F3CF14F0F450BF
:104CC0001526760E1426790E1522DF50E824020FE1
:104CD000166E176A16BE176814501624F66E155015
:104CE0001720F76E0800F550E66EFE0EDBCF18F0C9
:104CF000196A18BE1968290E1902F3CF19F01802A3
:104D0000F3CF18F0F4501926760E1826790E1922D2
:104D1000DF50E824010F1A6E1B6A1ABE1B68185078
:104D20001A24F66E19501B20F76E0800F550E66E37
:104D3000C2EC02F0E552E552E552010EE66EFE0EBF
:104D4000DBCF14F0156A14BE1568290E1502F3CFD7
:104D500015F01402F3CF14F0F4501526760E142635
:104D6000790E1522DF50E824020F166E176A16BE60
:104D7000176814501624F66E15501720F76E0800A9
:104D8000F550E66EFE0EDBCF18F0196A18BE1968F2
:104D9000290E1902F3CF19F01802F3CF18F0F450CE
:104DA0001926760E1826790E1922DF50E824010FF5
:104DB0001A6E1B6A1ABE1B6818501A24F66E195018
:104DC0001B20F76E0800F528E66EC2EC02F0E552F3
:104DD000E552E552DF2A43D7E552E552E7CFD9FF46
:104DE0001200D650E66EE66AD7EC3DF0E552E55289
:104DF000C80EE66E28EC00F0E552146E0001D351A7
:104E0000E76E1418E8AE02D0E73402D0E750145C25
:104E100008E2D3C0E6FFC80EE66E38EC00F0E552BB
:104E2000E5520A0E0001E76ED319E8AE02D0D33581
:104E300003D0E750D880D35502E3D33501E3D36BD9
:104E4000040E606F100E616F04016C6B6D6BA00E31
:104E50006E6F400E6F6F706B716B700E726F410EE4
:104E6000736F646B656B666B676B686B696B6A6BA2
:104E70006B6B0001A46BA56B010EA36FA26F030EF9
:104E8000E76ED319E8AE02D0E73402D0E750D35D25
:104E900005E2F00ECA6F040E626F13D0070EE76EC4
:104EA000D319E8AE02D0E73402D0E750D35D05E273
:104EB000E00ECA6F030E626F04D0C00ECA6F020EFE
:104EC000626FD3C0E9FFEA6AE9BEEA68D890E936C2
:104ED000EA36B60EE926000EEA22EECF00F2EDCF5A
:104EE00001F2010EE66E70C407F071C408F072C4DE
:104EF00009F073C40AF082EC3BF00950E66E6CC412
:104F000007F06DC408F06EC409F06FC40AF082ECBB
:104F10003BF00950E66EC2EC02F0E552E552E55274
:104F2000CA0EE66E000EE66E61C0E6FF60C0E6FFE8
:104F3000E3EC03F0E552E552E552E5520001D46B93
:104F4000D3C0E6FF85DEE55212000001D36BA7EC6B
:104F500003F0E66AE66A7A0EE66E440EE66E97ECB9
:104F600001F0E552E552E552E552090E0001A96F44
:104F7000AA6BA76BA86BA36B1200D9CFE6FFE1CF9A
:104F8000D9FFE652DF6AFE0EDBCF14F0000160515C
:104F9000E76E1418E8AE02D0E73402D0E750145C94
:104FA00046E3FE0EDBCF15F060516225E76E151863
:104FB000E8AE02D0E73402D0E750155C38E2FD0ECF
:104FC000DB50615D34E1CFC00CF0D0C00DF0D1C03A
:104FD0000EF0D2C00FF064C407F065C408F066C4D8
:104FE00009F067C40AF0D9EC39F007C064F408C0CE
:104FF00065F409C066F40AC067F40C6A0D6A800E95
:105000000E6EBF0E0F6E68C407F069C408F06AC464
:1050100009F06BC40AF0C2EC3AF007C068F408C0AB
:1050200069F409C06AF40AC06BF4020EECD2FD0EFA
:10503000DBCF14F0010EE76E1418E8AE02D0E734AF
:1050400002D0E750145C1AE20C6A0D6A800E0E6EF4
:10505000BF0E0F6E68C407F069C408F06AC409F097
:105060006BC40AF0C2EC3AF007C068F408C069F4F7
:1050700009C06AF40AC06BF4010EC5D2FD0EDBCF85
:1050800014F0010EE76E1418E8AE02D0E73402D037
:10509000E750145C1AE20C6A0D6A800E0E6EBF0EA9
:1050A0000F6E68C407F069C408F06AC409F06BC4E5
:1050B0000AF0C2EC3AF007C068F408C069F409C00D
:1050C0006AF40AC06BF4010E9ED2FE0EDBCF14F020
:1050D0000A0EE76E1418E8AE02D0143403D0E7507D
:1050E000D88014540DE3FE0EDBCF15F0010EE76EF1
:1050F0001518E8AE02D0E73402D0E750155C1AE28A
:105100000C6A0D6A800E0E6EBF0E0F6E64C407F03F
:1051100065C408F066C409F067C40AF0C2EC3AF04E
:1051200007C064F408C065F409C066F40AC067F4F7
:10513000010E69D2DF6ADFCF14F0D3C0F6FFF76A41
:10514000F6BEF768290EF702F3CFF7FFF602F3CFAA
:10515000F6FFF450F726760EF626790EF7220800B1
:10516000F550E76E1418E8AE02D0E73402D0E750ED
:10517000145C01E346D2D3C014F0156A14BE15685E
:10518000290E1502F3CF15F01402F3CF14F0F450EA
:105190001526760E1426790E1522DF50E824010F0D
:1051A000166E176A16BE176814501624F66E155040
:1051B0001720F76E0800F550F36EFE0EDB50F35C1F
:1051C00001E0E5D0D3C018F0196A18BE1968290E9D
:1051D0001902F3CF19F01802F3CF18F0F450192682
:1051E000760E1826790E1922DF50E824020F1A6E67
:1051F0001B6A1ABE1B6818501A24F66E19501B2021
:10520000F76E0800F550F36EFD0EDB50F35C01E025
:10521000BED0FD0EDBCFE6FFFE0EDBCFE6FF3BECA4
:1052200002F0E552E552010801E0B1D00C6A0D6AC6
:105230000E6A0F6A64C407F065C408F066C409F01A
:1052400067C40AF0B0EC3BF0010A19E10C6A0D6A80
:10525000800E0E6EBF0E0F6E64C407F065C408F0BA
:1052600066C409F067C40AF0C2EC3AF007C064F4FF
:1052700008C065F409C066F40AC067F418D00C6A67
:105280000D6A800E0E6EBF0E0F6E68C407F069C403
:1052900008F06AC409F06BC40AF0C2EC3AF007C027
:1052A00068F408C069F409C06AF40AC06BF4DEEC63
:1052B0003DF0F3CF18F0F4CF19F0050E0D6E0E6A25
:1052C00018C008F019C009F02FEC3BF004C018F02A
:1052D00005C019F00A0E0D6E0E6A18C008F019C04C
:1052E00009F02FEC3BF008C018F009C019F018C005
:1052F00008F019C009F0C5EC39F007C014F008C077
:1053000015F009C016F00AC017F014C00CF015C053
:105310000DF016C00EF017C00FF064C407F065C49E
:1053200008F066C409F067C40AF0D8EC39F007C089
:1053300064F408C065F409C066F40AC067F4E66A5C
:10534000FD0EDBCFE6FFFE0EDBCFE6FFC2EC02F088
:10535000E552E552E552E66AFD0EDBCFE6FFFE0EB2
:10536000DB28E66EC2EC02F0E552E552E5520001A0
:10537000D42BE66AE66AC80EE66E420EE66E97EC3D
:1053800001F0E552E552E552E552030E3CD1D3C09F
:1053900014F0156A14BE1568290E1502F3CF15F026
:1053A0001402F3CF14F0F4501526760E1426790E5D
:1053B0001522DF50E824010F166E176A16BE176813
:1053C00014501624F66E15501720F76E0800F528B5
:1053D000F36EFE0EDB50F35C01E011D1D3C018F088
:1053E000196A18BE1968290E1902F3CF19F01802AC
:1053F000F3CF18F0F4501926760E1826790E1922DC
:10540000DF50E824020F1A6E1B6A1ABE1B68185080
:105410001A24F66E19501B20F76E0800F550F36E33
:10542000FD0EDB50F35C01E0EAD0FD0EDBCFE6FFC2
:10543000FE0EDBCFE6FF3BEC02F0E552E552010841
:1054400001E0DDD00C6A0D6A0E6A0F6A64C407F0D1
:1054500065C408F066C409F067C40AF0B9EC3BF013
:10546000010A19E10C6A0D6A800E0E6EBF0E0F6EF6
:1054700064C407F065C408F066C409F067C40AF0A4
:10548000C2EC3AF007C064F408C065F409C066F4E1
:105490000AC067F418D00C6A0D6A800E0E6EBF0E3B
:1054A0000F6E68C407F069C408F06AC409F06BC4E1
:1054B0000AF0C2EC3AF007C068F408C069F409C009
:1054C0006AF40AC06BF40C6A0D6A800E0E6EBF0E91
:1054D0000F6E64C407F065C408F066C409F067C4C1
:1054E0000AF0C2EC3AF007C014F008C015F009C089
:1054F00016F00AC017F014C0E6FF15C0E6FF16C08C
:10550000E6FF17C0E6FFDEEC3DF0E552E7CF17F00F
:10551000E552E7CF16F0E552E7CF15F0E552E7CFB9
:1055200014F0F3CF1CF0F4CF1DF0050E0D6E0E6AD3
:105530001CC008F01DC009F02FEC3BF004C01CF0AB
:1055400005C01DF00A0E0D6E0E6A1CC008F01DC0CD
:1055500009F02FEC3BF008C01CF009C01DF01CC086
:1055600008F01DC009F0C5EC39F007C018F008C0FC
:1055700019F009C01AF00AC01BF018C00CF019C0CD
:105580000DF01AC00EF01BC00FF014C007F015C0CC
:1055900008F016C009F017C00AF0D8EC39F007C0BF
:1055A00064F408C065F409C066F40AC067F4E66AEA
:1055B000FD0EDBCFE6FFFE0EDBCFE6FFC2EC02F016
:1055C000E552E552E552E66AFD0EDBCFE6FFFE0E40
:1055D000DB04E66EC2EC02F0E552E552E552000152
:1055E000D42BE66AE66AC80EE66E420EE66E97ECCB
:1055F00001F0E552E552E552E552030E04D0DF2AF0
:105600009AD5000E00D0E552E552E7CFD9FF12003F
:105610000C6A0D6A800E0E6E410E0F6E70C407F09C
:1056200071C408F072C409F073C40AF0B0EC3BF026
:10563000010A03E18ADC010E02D0000E00D0120044
:10564000D3C0F6FFF76AF6BEF768290EF702F3CF6C
:10565000F7FFF602F3CFF6FFF450F726760EF626A4
:10566000790EF7220800F5500001D45D13E1D32B29
:10567000A7EC03F0F1EC26F0E66AE66A7A0EE66E35
:10568000440EE66E97EC01F0E552E552E552E55224
:10569000010E02D0000E00D01200030EE66E73EC75
:1056A00001F0E552000921E1040EE66E73EC01F011
:1056B000E55200091AE1CD0E0C6ECC0E0D6E8C0E6B
:1056C0000E6E3F0E0F6ECFC007F0D0C008F0D1C0F5
:1056D00009F0D2C00AF06FEC3AF007C0CFF008C072
:1056E000D0F009C0D1F00AC0D2F068C40CF069C48F
:1056F0000DF06AC40EF06BC40FF070C407F071C4F3
:1057000008F072C409F073C40AF0D9EC39F082ECE5
:105710003BF00950E66E64C40CF065C40DF066C43D
:105720000EF067C40FF06CC407F06DC408F06EC4CF
:1057300009F06FC40AF0D9EC39F082EC3BF0095063
:10574000E66E1BDCE552E552000901E0CED7E66AC1
:1057500070C407F071C408F072C409F073C40AF091
:1057600082EC3BF00950E66E6CC407F06DC408F0A3
:105770006EC409F06FC40AF082EC3BF00950E66E8B
:10578000C2EC02F0E552E552E55264C40CF065C487
:105790000DF066C40EF067C40FF06CC407F06DC462
:1057A00008F06EC409F06FC40AF0D9EC39F007C0F4
:1057B0006CF408C06DF409C06EF40AC06FF468C4DC
:1057C0000CF069C40DF06AC40EF06BC40FF070C425
:1057D00007F071C408F072C409F073C40AF0D9EC80
:1057E00039F007C070F408C071F409C072F40AC03F
:1057F00073F40C6A0D6A800E0E6E3F0E0F6E68C455
:1058000007F069C408F06AC409F06BC40AF0B0EC90
:105810003BF0010A07E10401686B696B800E6A6F57
:105820003F0E6B6F0C6A0D6A800E0E6EBF0E0F6E10
:1058300068C407F069C408F06AC409F06BC40AF0D0
:10584000B9EC3BF0010A07E10401686B696B800E5B
:105850006A6FBF0E6B6F0C6A0D6A0E6A400E0F6E98
:1058600064C407F065C408F066C409F067C40AF0B0
:10587000B0EC3BF0010A06E10401686B696B6A6BEE
:10588000400E6B6F0C6A0D6A0E6AC00E0F6E64C418
:1058900007F065C408F066C409F067C40AF0B9EC03
:1058A0003BF0010A06E10401686B696B6A6BC00E8C
:1058B0006B6FC6DE000922E1ABDE00091FE1010EBD
:1058C000E66E70C407F071C408F072C409F073C4C6
:1058D0000AF082EC3BF00950E66E6CC407F06DC430
:1058E00008F06EC409F06FC40AF082EC3BF0095076
:1058F000E66EC2EC02F0E552E552E55212000001FC
:10590000A30501E01CD2040EE66E73EC01F0E55233
:10591000010801E0DCD00001A55101E0D8D00B0E58
:10592000D8806255E76E6019E8AE02D0E73402D045
:10593000E750605D01E3CBD00C6A0D6A0E6A0F6A16
:1059400064C407F065C408F066C409F067C40AF0CF
:10595000A9EC3BF0010A6DE10C6A0D6A0E6A0F6A50
:1059600068C407F069C408F06AC409F06BC40AF09F
:10597000A9EC3BF0010A5DE1E66A70C407F071C46E
:1059800008F072C409F073C40AF082EC3BF00950CD
:10599000E66E6CC407F06DC408F06EC409F06FC405
:1059A0000AF00C6A0D6A800E0E6E3F0E0F6ED9EC77
:1059B00039F06CC414F06DC415F06EC416F06FC4E9
:1059C00017F007C06CF408C06DF409C06EF40AC08B
:1059D0006FF414C007F015C008F016C009F017C026
:1059E0000AF082EC3BF00950E66EC2EC02F0E552A0
:1059F000E552E552010EE66E70C407F071C408F07E
:105A000072C409F073C40AF082EC3BF00950E66EF0
:105A10006CC407F06DC408F06EC409F06FC40AF0DE
:105A200082EC3BF00950E66EC2EC02F0E552E55222
:105A3000E552CA0EE66E000EE66E61C0E6FF60C07B
:105A4000E6FF3FEC05F0E552E552E552E552CA0E9D
:105A5000E66E000EE66E61C0E6FF0001602B60C0DE
:105A6000E6FFE3EC03F0E552E552E552E552CD0ED8
:105A70000C6ECC0E0D6E0E6E3E0E0F6ECFC007F08C
:105A8000D0C008F0D1C009F0D2C00AF0B9EC3BF0A8
:105A9000010A19E1CD0E0C6ECC0E0D6E0E6E3D0E90
:105AA0000F6ECFC007F0D0C008F0D1C009F0D2C04F
:105AB0000AF0D9EC39F007C0CFF008C0D0F009C027
:105AC000D1F00AC0D2F00001010EA56F09D0040E7A
